{
  "_format": "hh-sol-artifact-1",
  "contractName": "TransactionManager",
  "sourceName": "contracts/TransactionManager.sol",
  "abi": [
    {
      "inputs": [
        {
          "internalType": "address",
          "name": "_carNFTAddress",
          "type": "address"
        },
        {
          "internalType": "address",
          "name": "_ownershipTransferAddress",
          "type": "address"
        }
      ],
      "stateMutability": "nonpayable",
      "type": "constructor"
    },
    {
      "anonymous": false,
      "inputs": [
        {
          "indexed": true,
          "internalType": "uint256",
          "name": "transactionId",
          "type": "uint256"
        },
        {
          "indexed": false,
          "internalType": "address",
          "name": "complainant",
          "type": "address"
        }
      ],
      "name": "DisputeRaised",
      "type": "event"
    },
    {
      "anonymous": false,
      "inputs": [
        {
          "indexed": true,
          "internalType": "uint256",
          "name": "transactionId",
          "type": "uint256"
        },
        {
          "indexed": false,
          "internalType": "uint256",
          "name": "amount",
          "type": "uint256"
        }
      ],
      "name": "EscrowDeposited",
      "type": "event"
    },
    {
      "anonymous": false,
      "inputs": [
        {
          "indexed": true,
          "internalType": "uint256",
          "name": "transactionId",
          "type": "uint256"
        },
        {
          "indexed": false,
          "internalType": "address",
          "name": "recipient",
          "type": "address"
        },
        {
          "indexed": false,
          "internalType": "uint256",
          "name": "amount",
          "type": "uint256"
        }
      ],
      "name": "EscrowReleased",
      "type": "event"
    },
    {
      "anonymous": false,
      "inputs": [
        {
          "indexed": true,
          "internalType": "address",
          "name": "previousOwner",
          "type": "address"
        },
        {
          "indexed": true,
          "internalType": "address",
          "name": "newOwner",
          "type": "address"
        }
      ],
      "name": "OwnershipTransferred",
      "type": "event"
    },
    {
      "anonymous": false,
      "inputs": [
        {
          "indexed": true,
          "internalType": "uint256",
          "name": "transactionId",
          "type": "uint256"
        },
        {
          "indexed": true,
          "internalType": "uint256",
          "name": "carId",
          "type": "uint256"
        }
      ],
      "name": "TransactionCancelled",
      "type": "event"
    },
    {
      "anonymous": false,
      "inputs": [
        {
          "indexed": true,
          "internalType": "uint256",
          "name": "transactionId",
          "type": "uint256"
        },
        {
          "indexed": true,
          "internalType": "uint256",
          "name": "carId",
          "type": "uint256"
        }
      ],
      "name": "TransactionCompleted",
      "type": "event"
    },
    {
      "anonymous": false,
      "inputs": [
        {
          "indexed": true,
          "internalType": "uint256",
          "name": "transactionId",
          "type": "uint256"
        },
        {
          "indexed": true,
          "internalType": "uint256",
          "name": "carId",
          "type": "uint256"
        },
        {
          "indexed": false,
          "internalType": "address",
          "name": "seller",
          "type": "address"
        },
        {
          "indexed": false,
          "internalType": "address",
          "name": "buyer",
          "type": "address"
        },
        {
          "indexed": false,
          "internalType": "uint256",
          "name": "price",
          "type": "uint256"
        }
      ],
      "name": "TransactionCreated",
      "type": "event"
    },
    {
      "inputs": [
        {
          "internalType": "uint256",
          "name": "transactionId",
          "type": "uint256"
        }
      ],
      "name": "cancelTransaction",
      "outputs": [],
      "stateMutability": "nonpayable",
      "type": "function"
    },
    {
      "inputs": [],
      "name": "carNFT",
      "outputs": [
        {
          "internalType": "contract CarNFT",
          "name": "",
          "type": "address"
        }
      ],
      "stateMutability": "view",
      "type": "function"
    },
    {
      "inputs": [
        {
          "internalType": "uint256",
          "name": "",
          "type": "uint256"
        },
        {
          "internalType": "uint256",
          "name": "",
          "type": "uint256"
        }
      ],
      "name": "carTransactions",
      "outputs": [
        {
          "internalType": "uint256",
          "name": "",
          "type": "uint256"
        }
      ],
      "stateMutability": "view",
      "type": "function"
    },
    {
      "inputs": [
        {
          "internalType": "uint256",
          "name": "transactionId",
          "type": "uint256"
        }
      ],
      "name": "completeTransaction",
      "outputs": [],
      "stateMutability": "nonpayable",
      "type": "function"
    },
    {
      "inputs": [
        {
          "internalType": "uint256",
          "name": "carId",
          "type": "uint256"
        },
        {
          "internalType": "address",
          "name": "buyer",
          "type": "address"
        },
        {
          "internalType": "uint256",
          "name": "price",
          "type": "uint256"
        },
        {
          "internalType": "string",
          "name": "transactionType",
          "type": "string"
        },
        {
          "internalType": "bytes32",
          "name": "documentHash",
          "type": "bytes32"
        }
      ],
      "name": "createTransaction",
      "outputs": [
        {
          "internalType": "uint256",
          "name": "",
          "type": "uint256"
        }
      ],
      "stateMutability": "nonpayable",
      "type": "function"
    },
    {
      "inputs": [
        {
          "internalType": "uint256",
          "name": "transactionId",
          "type": "uint256"
        }
      ],
      "name": "depositEscrow",
      "outputs": [],
      "stateMutability": "payable",
      "type": "function"
    },
    {
      "inputs": [
        {
          "internalType": "uint256",
          "name": "",
          "type": "uint256"
        }
      ],
      "name": "escrowBalances",
      "outputs": [
        {
          "internalType": "uint256",
          "name": "",
          "type": "uint256"
        }
      ],
      "stateMutability": "view",
      "type": "function"
    },
    {
      "inputs": [
        {
          "internalType": "uint256",
          "name": "carId",
          "type": "uint256"
        }
      ],
      "name": "getCarTransactionHistory",
      "outputs": [
        {
          "internalType": "uint256[]",
          "name": "",
          "type": "uint256[]"
        }
      ],
      "stateMutability": "view",
      "type": "function"
    },
    {
      "inputs": [
        {
          "internalType": "uint256",
          "name": "transactionId",
          "type": "uint256"
        }
      ],
      "name": "getTransaction",
      "outputs": [
        {
          "internalType": "uint256",
          "name": "carId",
          "type": "uint256"
        },
        {
          "internalType": "address",
          "name": "seller",
          "type": "address"
        },
        {
          "internalType": "address",
          "name": "buyer",
          "type": "address"
        },
        {
          "internalType": "uint256",
          "name": "price",
          "type": "uint256"
        },
        {
          "internalType": "uint256",
          "name": "timestamp",
          "type": "uint256"
        },
        {
          "internalType": "enum TransactionManager.TransactionStatus",
          "name": "status",
          "type": "uint8"
        },
        {
          "internalType": "string",
          "name": "transactionType",
          "type": "string"
        },
        {
          "internalType": "bytes32",
          "name": "documentHash",
          "type": "bytes32"
        }
      ],
      "stateMutability": "view",
      "type": "function"
    },
    {
      "inputs": [],
      "name": "owner",
      "outputs": [
        {
          "internalType": "address",
          "name": "",
          "type": "address"
        }
      ],
      "stateMutability": "view",
      "type": "function"
    },
    {
      "inputs": [],
      "name": "ownershipTransfer",
      "outputs": [
        {
          "internalType": "contract OwnershipTransfer",
          "name": "",
          "type": "address"
        }
      ],
      "stateMutability": "view",
      "type": "function"
    },
    {
      "inputs": [
        {
          "internalType": "uint256",
          "name": "transactionId",
          "type": "uint256"
        }
      ],
      "name": "raiseDispute",
      "outputs": [],
      "stateMutability": "nonpayable",
      "type": "function"
    },
    {
      "inputs": [],
      "name": "renounceOwnership",
      "outputs": [],
      "stateMutability": "nonpayable",
      "type": "function"
    },
    {
      "inputs": [
        {
          "internalType": "uint256",
          "name": "",
          "type": "uint256"
        }
      ],
      "name": "transactions",
      "outputs": [
        {
          "internalType": "uint256",
          "name": "carId",
          "type": "uint256"
        },
        {
          "internalType": "address",
          "name": "seller",
          "type": "address"
        },
        {
          "internalType": "address",
          "name": "buyer",
          "type": "address"
        },
        {
          "internalType": "uint256",
          "name": "price",
          "type": "uint256"
        },
        {
          "internalType": "uint256",
          "name": "timestamp",
          "type": "uint256"
        },
        {
          "internalType": "enum TransactionManager.TransactionStatus",
          "name": "status",
          "type": "uint8"
        },
        {
          "internalType": "string",
          "name": "transactionType",
          "type": "string"
        },
        {
          "internalType": "bytes32",
          "name": "documentHash",
          "type": "bytes32"
        }
      ],
      "stateMutability": "view",
      "type": "function"
    },
    {
      "inputs": [
        {
          "internalType": "address",
          "name": "newOwner",
          "type": "address"
        }
      ],
      "name": "transferOwnership",
      "outputs": [],
      "stateMutability": "nonpayable",
      "type": "function"
    }
  ],
  "bytecode": "0x60806040523480156200001157600080fd5b5060405162002a3438038062002a3483398181016040528101906200003791906200021e565b620000576200004b620000e860201b60201c565b620000f060201b60201c565b6001808190555081600260006101000a81548173ffffffffffffffffffffffffffffffffffffffff021916908373ffffffffffffffffffffffffffffffffffffffff16021790555080600360006101000a81548173ffffffffffffffffffffffffffffffffffffffff021916908373ffffffffffffffffffffffffffffffffffffffff160217905550505062000265565b600033905090565b60008060009054906101000a900473ffffffffffffffffffffffffffffffffffffffff169050816000806101000a81548173ffffffffffffffffffffffffffffffffffffffff021916908373ffffffffffffffffffffffffffffffffffffffff1602179055508173ffffffffffffffffffffffffffffffffffffffff168173ffffffffffffffffffffffffffffffffffffffff167f8be0079c531659141344cd1fd0a4f28419497f9722a3daafe3b4186f6b6457e060405160405180910390a35050565b600080fd5b600073ffffffffffffffffffffffffffffffffffffffff82169050919050565b6000620001e682620001b9565b9050919050565b620001f881620001d9565b81146200020457600080fd5b50565b6000815190506200021881620001ed565b92915050565b60008060408385031215620002385762000237620001b4565b5b6000620002488582860162000207565b92505060206200025b8582860162000207565b9150509250929050565b6127bf80620002756000396000f3fe6080604052600436106100e85760003560e01c80638da5cb5b1161008a578063f24998a111610059578063f24998a114610307578063f2f17bf514610344578063f2fde38b1461036f578063f5e83e1714610398576100e8565b80638da5cb5b146102535780639ace38c21461027e578063a5c1674e146102c2578063cb991efe146102eb576100e8565b806343ebf45a116100c657806343ebf45a146101975780634992698d146101d45780635f0d093c14610211578063715018a61461023c576100e8565b80633380c0d8146100ed57806333ea3dc81461011657806334863a951461015a575b600080fd5b3480156100f957600080fd5b50610114600480360381019061010f9190611869565b6103c1565b005b34801561012257600080fd5b5061013d60048036038101906101389190611869565b6106a4565b604051610151989796959493929190611a06565b60405180910390f35b34801561016657600080fd5b50610181600480360381019061017c9190611a8b565b6108b8565b60405161018e9190611acb565b60405180910390f35b3480156101a357600080fd5b506101be60048036038101906101b99190611869565b6108e9565b6040516101cb9190611acb565b60405180910390f35b3480156101e057600080fd5b506101fb60048036038101906101f69190611c73565b610901565b6040516102089190611acb565b60405180910390f35b34801561021d57600080fd5b50610226610c3c565b6040516102339190611d69565b60405180910390f35b34801561024857600080fd5b50610251610c62565b005b34801561025f57600080fd5b50610268610c76565b6040516102759190611d84565b60405180910390f35b34801561028a57600080fd5b506102a560048036038101906102a09190611869565b610c9f565b6040516102b9989796959493929190611a06565b60405180910390f35b3480156102ce57600080fd5b506102e960048036038101906102e49190611869565b610dbc565b005b61030560048036038101906103009190611869565b610fa0565b005b34801561031357600080fd5b5061032e60048036038101906103299190611869565b61116b565b60405161033b9190611e5d565b60405180910390f35b34801561035057600080fd5b506103596111d6565b6040516103669190611ea0565b60405180910390f35b34801561037b57600080fd5b5061039660048036038101906103919190611ebb565b6111fc565b005b3480156103a457600080fd5b506103bf60048036038101906103ba9190611869565b61127f565b005b6000600460008381526020019081526020016000209050600060038111156103ec576103eb6118e6565b5b8160050160009054906101000a900460ff1660038111156104105761040f6118e6565b5b14610450576040517f08c379a000000000000000000000000000000000000000000000000000000000815260040161044790611f34565b60405180910390fd5b8060020160009054906101000a900473ffffffffffffffffffffffffffffffffffffffff1673ffffffffffffffffffffffffffffffffffffffff163373ffffffffffffffffffffffffffffffffffffffff1614806104fd57508060010160009054906101000a900473ffffffffffffffffffffffffffffffffffffffff1673ffffffffffffffffffffffffffffffffffffffff163373ffffffffffffffffffffffffffffffffffffffff16145b61053c576040517f08c379a000000000000000000000000000000000000000000000000000000000815260040161053390611fa0565b60405180910390fd5b600060076000848152602001908152602001600020549050600081111561064057600060076000858152602001908152602001600020819055508160020160009054906101000a900473ffffffffffffffffffffffffffffffffffffffff1673ffffffffffffffffffffffffffffffffffffffff166108fc829081150290604051600060405180830381858888f193505050501580156105e0573d6000803e3d6000fd5b50827f6244ed823ca6be0f11bc890c3fafcf3c29cb23420c14243642e930b5e07e6d0a8360020160009054906101000a900473ffffffffffffffffffffffffffffffffffffffff1683604051610637929190611fc0565b60405180910390a25b60028260050160006101000a81548160ff02191690836003811115610668576106676118e6565b5b02179055508160000154837f8ed1c04b4543a42ca119194e218f5a8b4ead3d24f821c4e604b1e922ebdf69fb60405160405180910390a3505050565b6000806000806000806060600080600460008b815260200190815260200160002060405180610100016040529081600082015481526020016001820160009054906101000a900473ffffffffffffffffffffffffffffffffffffffff1673ffffffffffffffffffffffffffffffffffffffff1673ffffffffffffffffffffffffffffffffffffffff1681526020016002820160009054906101000a900473ffffffffffffffffffffffffffffffffffffffff1673ffffffffffffffffffffffffffffffffffffffff1673ffffffffffffffffffffffffffffffffffffffff16815260200160038201548152602001600482015481526020016005820160009054906101000a900460ff1660038111156107c0576107bf6118e6565b5b60038111156107d2576107d16118e6565b5b81526020016006820180546107e690612018565b80601f016020809104026020016040519081016040528092919081815260200182805461081290612018565b801561085f5780601f106108345761010080835404028352916020019161085f565b820191906000526020600020905b81548152906001019060200180831161084257829003601f168201915b505050505081526020016007820154815250509050806000015181602001518260400151836060015184608001518560a001518660c001518760e001519850985098509850985098509850985050919395975091939597565b600660205281600052604060002081815481106108d457600080fd5b90600052602060002001600091509150505481565b60076020528060005260406000206000915090505481565b60003373ffffffffffffffffffffffffffffffffffffffff16600260009054906101000a900473ffffffffffffffffffffffffffffffffffffffff1673ffffffffffffffffffffffffffffffffffffffff16636352211e886040518263ffffffff1660e01b81526004016109759190611acb565b602060405180830381865afa158015610992573d6000803e3d6000fd5b505050506040513d601f19601f820116820180604052508101906109b6919061205e565b73ffffffffffffffffffffffffffffffffffffffff1614610a0c576040517f08c379a0000000000000000000000000000000000000000000000000000000008152600401610a03906120d7565b60405180910390fd5b600060056000815480929190610a2190612126565b91905055905060006040518061010001604052808981526020013373ffffffffffffffffffffffffffffffffffffffff1681526020018873ffffffffffffffffffffffffffffffffffffffff16815260200187815260200142815260200160006003811115610a9357610a926118e6565b5b815260200186815260200185815250905080600460008481526020019081526020016000206000820151816000015560208201518160010160006101000a81548173ffffffffffffffffffffffffffffffffffffffff021916908373ffffffffffffffffffffffffffffffffffffffff16021790555060408201518160020160006101000a81548173ffffffffffffffffffffffffffffffffffffffff021916908373ffffffffffffffffffffffffffffffffffffffff160217905550606082015181600301556080820151816004015560a08201518160050160006101000a81548160ff02191690836003811115610b8f57610b8e6118e6565b5b021790555060c0820151816006019081610ba99190612310565b5060e082015181600701559050506006600089815260200190815260200160002082908060018154018082558091505060019003906000526020600020016000909190919091505587827f5f6691791e2b4d688c51e354745bde3d6241c32436450235df6ccba1adbaea81338a8a604051610c26939291906123e2565b60405180910390a3819250505095945050505050565b600360009054906101000a900473ffffffffffffffffffffffffffffffffffffffff1681565b610c6a61167d565b610c7460006116fb565b565b60008060009054906101000a900473ffffffffffffffffffffffffffffffffffffffff16905090565b60046020528060005260406000206000915090508060000154908060010160009054906101000a900473ffffffffffffffffffffffffffffffffffffffff16908060020160009054906101000a900473ffffffffffffffffffffffffffffffffffffffff16908060030154908060040154908060050160009054906101000a900460ff1690806006018054610d3390612018565b80601f0160208091040260200160405190810160405280929190818152602001828054610d5f90612018565b8015610dac5780601f10610d8157610100808354040283529160200191610dac565b820191906000526020600020905b815481529060010190602001808311610d8f57829003601f168201915b5050505050908060070154905088565b60006004600083815260200190815260200160002090508060020160009054906101000a900473ffffffffffffffffffffffffffffffffffffffff1673ffffffffffffffffffffffffffffffffffffffff163373ffffffffffffffffffffffffffffffffffffffff161480610e8057508060010160009054906101000a900473ffffffffffffffffffffffffffffffffffffffff1673ffffffffffffffffffffffffffffffffffffffff163373ffffffffffffffffffffffffffffffffffffffff16145b610ebf576040517f08c379a0000000000000000000000000000000000000000000000000000000008152600401610eb690611fa0565b60405180910390fd5b60006003811115610ed357610ed26118e6565b5b8160050160009054906101000a900460ff166003811115610ef757610ef66118e6565b5b14610f37576040517f08c379a0000000000000000000000000000000000000000000000000000000008152600401610f2e90611f34565b60405180910390fd5b60038160050160006101000a81548160ff02191690836003811115610f5f57610f5e6118e6565b5b0217905550817f84a477df8a28a4276ca6dee4458a06c3015f30c477d9c949ede4e13ff8a552b433604051610f949190611d84565b60405180910390a25050565b610fa86117bf565b60006004600083815260200190815260200160002090503373ffffffffffffffffffffffffffffffffffffffff168160020160009054906101000a900473ffffffffffffffffffffffffffffffffffffffff1673ffffffffffffffffffffffffffffffffffffffff1614611051576040517f08c379a000000000000000000000000000000000000000000000000000000000815260040161104890612465565b60405180910390fd5b60006003811115611065576110646118e6565b5b8160050160009054906101000a900460ff166003811115611089576110886118e6565b5b146110c9576040517f08c379a00000000000000000000000000000000000000000000000000000000081526004016110c090611f34565b60405180910390fd5b8060030154341461110f576040517f08c379a0000000000000000000000000000000000000000000000000000000008152600401611106906124d1565b60405180910390fd5b346007600084815260200190815260200160002081905550817fd3c221d5b0aba10ecbafdafc16a948672d7d45a8dcb069038786f81a75e06575346040516111579190611acb565b60405180910390a25061116861180e565b50565b6060600660008381526020019081526020016000208054806020026020016040519081016040528092919081815260200182805480156111ca57602002820191906000526020600020905b8154815260200190600101908083116111b6575b50505050509050919050565b600260009054906101000a900473ffffffffffffffffffffffffffffffffffffffff1681565b61120461167d565b600073ffffffffffffffffffffffffffffffffffffffff168173ffffffffffffffffffffffffffffffffffffffff1603611273576040517f08c379a000000000000000000000000000000000000000000000000000000000815260040161126a90612563565b60405180910390fd5b61127c816116fb565b50565b6112876117bf565b6000600460008381526020019081526020016000209050600060038111156112b2576112b16118e6565b5b8160050160009054906101000a900460ff1660038111156112d6576112d56118e6565b5b14611316576040517f08c379a000000000000000000000000000000000000000000000000000000000815260040161130d90611f34565b60405180910390fd5b806003015460076000848152602001908152602001600020541461136f576040517f08c379a0000000000000000000000000000000000000000000000000000000008152600401611366906125cf565b60405180910390fd5b8060020160009054906101000a900473ffffffffffffffffffffffffffffffffffffffff1673ffffffffffffffffffffffffffffffffffffffff163373ffffffffffffffffffffffffffffffffffffffff16148061141c57508060010160009054906101000a900473ffffffffffffffffffffffffffffffffffffffff1673ffffffffffffffffffffffffffffffffffffffff163373ffffffffffffffffffffffffffffffffffffffff16145b61145b576040517f08c379a000000000000000000000000000000000000000000000000000000000815260040161145290611fa0565b60405180910390fd5b600360009054906101000a900473ffffffffffffffffffffffffffffffffffffffff1673ffffffffffffffffffffffffffffffffffffffff16637b53d28882600001548360020160009054906101000a900473ffffffffffffffffffffffffffffffffffffffff16846006016040518463ffffffff1660e01b81526004016114e593929190612673565b600060405180830381600087803b1580156114ff57600080fd5b505af1158015611513573d6000803e3d6000fd5b50505050600060076000848152602001908152602001600020549050600060076000858152602001908152602001600020819055508160010160009054906101000a900473ffffffffffffffffffffffffffffffffffffffff1673ffffffffffffffffffffffffffffffffffffffff166108fc829081150290604051600060405180830381858888f193505050501580156115b2573d6000803e3d6000fd5b5060018260050160006101000a81548160ff021916908360038111156115db576115da6118e6565b5b02179055508160000154837f6aa7274309d76cd1146fd229f234c1325770c94642718bd7f5f10f41fbc44c9e60405160405180910390a3827f6244ed823ca6be0f11bc890c3fafcf3c29cb23420c14243642e930b5e07e6d0a8360010160009054906101000a900473ffffffffffffffffffffffffffffffffffffffff1683604051611668929190611fc0565b60405180910390a2505061167a61180e565b50565b611685611817565b73ffffffffffffffffffffffffffffffffffffffff166116a3610c76565b73ffffffffffffffffffffffffffffffffffffffff16146116f9576040517f08c379a00000000000000000000000000000000000000000000000000000000081526004016116f0906126fd565b60405180910390fd5b565b60008060009054906101000a900473ffffffffffffffffffffffffffffffffffffffff169050816000806101000a81548173ffffffffffffffffffffffffffffffffffffffff021916908373ffffffffffffffffffffffffffffffffffffffff1602179055508173ffffffffffffffffffffffffffffffffffffffff168173ffffffffffffffffffffffffffffffffffffffff167f8be0079c531659141344cd1fd0a4f28419497f9722a3daafe3b4186f6b6457e060405160405180910390a35050565b600260015403611804576040517f08c379a00000000000000000000000000000000000000000000000000000000081526004016117fb90612769565b60405180910390fd5b6002600181905550565b60018081905550565b600033905090565b6000604051905090565b600080fd5b600080fd5b6000819050919050565b61184681611833565b811461185157600080fd5b50565b6000813590506118638161183d565b92915050565b60006020828403121561187f5761187e611829565b5b600061188d84828501611854565b91505092915050565b61189f81611833565b82525050565b600073ffffffffffffffffffffffffffffffffffffffff82169050919050565b60006118d0826118a5565b9050919050565b6118e0816118c5565b82525050565b7f4e487b7100000000000000000000000000000000000000000000000000000000600052602160045260246000fd5b60048110611926576119256118e6565b5b50565b600081905061193782611915565b919050565b600061194782611929565b9050919050565b6119578161193c565b82525050565b600081519050919050565b600082825260208201905092915050565b60005b8381101561199757808201518184015260208101905061197c565b60008484015250505050565b6000601f19601f8301169050919050565b60006119bf8261195d565b6119c98185611968565b93506119d9818560208601611979565b6119e2816119a3565b840191505092915050565b6000819050919050565b611a00816119ed565b82525050565b600061010082019050611a1c600083018b611896565b611a29602083018a6118d7565b611a3660408301896118d7565b611a436060830188611896565b611a506080830187611896565b611a5d60a083018661194e565b81810360c0830152611a6f81856119b4565b9050611a7e60e08301846119f7565b9998505050505050505050565b60008060408385031215611aa257611aa1611829565b5b6000611ab085828601611854565b9250506020611ac185828601611854565b9150509250929050565b6000602082019050611ae06000830184611896565b92915050565b611aef816118c5565b8114611afa57600080fd5b50565b600081359050611b0c81611ae6565b92915050565b600080fd5b600080fd5b7f4e487b7100000000000000000000000000000000000000000000000000000000600052604160045260246000fd5b611b54826119a3565b810181811067ffffffffffffffff82111715611b7357611b72611b1c565b5b80604052505050565b6000611b8661181f565b9050611b928282611b4b565b919050565b600067ffffffffffffffff821115611bb257611bb1611b1c565b5b611bbb826119a3565b9050602081019050919050565b82818337600083830152505050565b6000611bea611be584611b97565b611b7c565b905082815260208101848484011115611c0657611c05611b17565b5b611c11848285611bc8565b509392505050565b600082601f830112611c2e57611c2d611b12565b5b8135611c3e848260208601611bd7565b91505092915050565b611c50816119ed565b8114611c5b57600080fd5b50565b600081359050611c6d81611c47565b92915050565b600080600080600060a08688031215611c8f57611c8e611829565b5b6000611c9d88828901611854565b9550506020611cae88828901611afd565b9450506040611cbf88828901611854565b935050606086013567ffffffffffffffff811115611ce057611cdf61182e565b5b611cec88828901611c19565b9250506080611cfd88828901611c5e565b9150509295509295909350565b6000819050919050565b6000611d2f611d2a611d25846118a5565b611d0a565b6118a5565b9050919050565b6000611d4182611d14565b9050919050565b6000611d5382611d36565b9050919050565b611d6381611d48565b82525050565b6000602082019050611d7e6000830184611d5a565b92915050565b6000602082019050611d9960008301846118d7565b92915050565b600081519050919050565b600082825260208201905092915050565b6000819050602082019050919050565b611dd481611833565b82525050565b6000611de68383611dcb565b60208301905092915050565b6000602082019050919050565b6000611e0a82611d9f565b611e148185611daa565b9350611e1f83611dbb565b8060005b83811015611e50578151611e378882611dda565b9750611e4283611df2565b925050600181019050611e23565b5085935050505092915050565b60006020820190508181036000830152611e778184611dff565b905092915050565b6000611e8a82611d36565b9050919050565b611e9a81611e7f565b82525050565b6000602082019050611eb56000830184611e91565b92915050565b600060208284031215611ed157611ed0611829565b5b6000611edf84828501611afd565b91505092915050565b7f496e76616c6964207472616e73616374696f6e20737461747573000000000000600082015250565b6000611f1e601a83611968565b9150611f2982611ee8565b602082019050919050565b60006020820190508181036000830152611f4d81611f11565b9050919050565b7f4e6f7420617574686f72697a6564000000000000000000000000000000000000600082015250565b6000611f8a600e83611968565b9150611f9582611f54565b602082019050919050565b60006020820190508181036000830152611fb981611f7d565b9050919050565b6000604082019050611fd560008301856118d7565b611fe26020830184611896565b9392505050565b7f4e487b7100000000000000000000000000000000000000000000000000000000600052602260045260246000fd5b6000600282049050600182168061203057607f821691505b60208210810361204357612042611fe9565b5b50919050565b60008151905061205881611ae6565b92915050565b60006020828403121561207457612073611829565b5b600061208284828501612049565b91505092915050565b7f4e6f742074686520636172206f776e6572000000000000000000000000000000600082015250565b60006120c1601183611968565b91506120cc8261208b565b602082019050919050565b600060208201905081810360008301526120f0816120b4565b9050919050565b7f4e487b7100000000000000000000000000000000000000000000000000000000600052601160045260246000fd5b600061213182611833565b91507fffffffffffffffffffffffffffffffffffffffffffffffffffffffffffffffff8203612163576121626120f7565b5b600182019050919050565b60008190508160005260206000209050919050565b60006020601f8301049050919050565b600082821b905092915050565b6000600883026121d07fffffffffffffffffffffffffffffffffffffffffffffffffffffffffffffffff82612193565b6121da8683612193565b95508019841693508086168417925050509392505050565b600061220d61220861220384611833565b611d0a565b611833565b9050919050565b6000819050919050565b612227836121f2565b61223b61223382612214565b8484546121a0565b825550505050565b600090565b612250612243565b61225b81848461221e565b505050565b5b8181101561227f57612274600082612248565b600181019050612261565b5050565b601f8211156122c4576122958161216e565b61229e84612183565b810160208510156122ad578190505b6122c16122b985612183565b830182612260565b50505b505050565b600082821c905092915050565b60006122e7600019846008026122c9565b1980831691505092915050565b600061230083836122d6565b9150826002028217905092915050565b6123198261195d565b67ffffffffffffffff81111561233257612331611b1c565b5b61233c8254612018565b612347828285612283565b600060209050601f83116001811461237a5760008415612368578287015190505b61237285826122f4565b8655506123da565b601f1984166123888661216e565b60005b828110156123b05784890151825560018201915060208501945060208101905061238b565b868310156123cd57848901516123c9601f8916826122d6565b8355505b6001600288020188555050505b505050505050565b60006060820190506123f760008301866118d7565b61240460208301856118d7565b6124116040830184611896565b949350505050565b7f4e6f742074686520627579657200000000000000000000000000000000000000600082015250565b600061244f600d83611968565b915061245a82612419565b602082019050919050565b6000602082019050818103600083015261247e81612442565b9050919050565b7f496e636f7272656374207061796d656e7420616d6f756e740000000000000000600082015250565b60006124bb601883611968565b91506124c682612485565b602082019050919050565b600060208201905081810360008301526124ea816124ae565b9050919050565b7f4f776e61626c653a206e6577206f776e657220697320746865207a65726f206160008201527f6464726573730000000000000000000000000000000000000000000000000000602082015250565b600061254d602683611968565b9150612558826124f1565b604082019050919050565b6000602082019050818103600083015261257c81612540565b9050919050565b7f457363726f77206e6f742066756e646564000000000000000000000000000000600082015250565b60006125b9601183611968565b91506125c482612583565b602082019050919050565b600060208201905081810360008301526125e8816125ac565b9050919050565b600081546125fc81612018565b6126068186611968565b9450600182166000811461262157600181146126375761266a565b60ff19831686528115156020028601935061266a565b6126408561216e565b60005b8381101561266257815481890152600182019150602081019050612643565b808801955050505b50505092915050565b60006060820190506126886000830186611896565b61269560208301856118d7565b81810360408301526126a781846125ef565b9050949350505050565b7f4f776e61626c653a2063616c6c6572206973206e6f7420746865206f776e6572600082015250565b60006126e7602083611968565b91506126f2826126b1565b602082019050919050565b60006020820190508181036000830152612716816126da565b9050919050565b7f5265656e7472616e637947756172643a207265656e7472616e742063616c6c00600082015250565b6000612753601f83611968565b915061275e8261271d565b602082019050919050565b6000602082019050818103600083015261278281612746565b905091905056fea2646970667358221220aca5add6bc92ab6f2785d5aac419bf051f1c8366769f65c823c22496704fa2f664736f6c63430008110033",
  "linkReferences": {},
  "deployedLinkReferences": {}
}