{"contracts/CarNFT.sol":{"CarNFT":{"abi":[{"inputs":[],"stateMutability":"nonpayable","type":"constructor"},{"anonymous":false,"inputs":[{"indexed":true,"internalType":"address","name":"owner","type":"address"},{"indexed":true,"internalType":"address","name":"approved","type":"address"},{"indexed":true,"internalType":"uint256","name":"tokenId","type":"uint256"}],"name":"Approval","type":"event"},{"anonymous":false,"inputs":[{"indexed":true,"internalType":"address","name":"owner","type":"address"},{"indexed":true,"internalType":"address","name":"operator","type":"address"},{"indexed":false,"internalType":"bool","name":"approved","type":"bool"}],"name":"ApprovalForAll","type":"event"},{"anonymous":false,"inputs":[{"indexed":true,"internalType":"uint256","name":"tokenId","type":"uint256"},{"indexed":false,"internalType":"string","name":"vin","type":"string"},{"indexed":false,"internalType":"string","name":"licensePlate","type":"string"}],"name":"CarRegistered","type":"event"},{"anonymous":false,"inputs":[{"indexed":true,"internalType":"address","name":"previousOwner","type":"address"},{"indexed":true,"internalType":"address","name":"newOwner","type":"address"}],"name":"OwnershipTransferred","type":"event"},{"anonymous":false,"inputs":[{"indexed":true,"internalType":"address","name":"from","type":"address"},{"indexed":true,"internalType":"address","name":"to","type":"address"},{"indexed":true,"internalType":"uint256","name":"tokenId","type":"uint256"}],"name":"Transfer","type":"event"},{"inputs":[{"internalType":"address","name":"to","type":"address"},{"internalType":"uint256","name":"tokenId","type":"uint256"}],"name":"approve","outputs":[],"stateMutability":"nonpayable","type":"function"},{"inputs":[{"internalType":"address","name":"owner","type":"address"}],"name":"balanceOf","outputs":[{"internalType":"uint256","name":"","type":"uint256"}],"stateMutability":"view","type":"function"},{"inputs":[{"internalType":"uint256","name":"tokenId","type":"uint256"}],"name":"getApproved","outputs":[{"internalType":"address","name":"","type":"address"}],"stateMutability":"view","type":"function"},{"inputs":[{"internalType":"uint256","name":"tokenId","type":"uint256"}],"name":"getCarDetails","outputs":[{"internalType":"string","name":"vin","type":"string"},{"internalType":"string","name":"ppsr","type":"string"},{"internalType":"string","name":"make","type":"string"},{"internalType":"string","name":"model","type":"string"},{"internalType":"string","name":"color","type":"string"},{"internalType":"string","name":"licensePlate","type":"string"},{"internalType":"uint256","name":"year","type":"uint256"}],"stateMutability":"view","type":"function"},{"inputs":[{"internalType":"address","name":"owner","type":"address"},{"internalType":"address","name":"operator","type":"address"}],"name":"isApprovedForAll","outputs":[{"internalType":"bool","name":"","type":"bool"}],"stateMutability":"view","type":"function"},{"inputs":[],"name":"name","outputs":[{"internalType":"string","name":"","type":"string"}],"stateMutability":"view","type":"function"},{"inputs":[],"name":"owner","outputs":[{"internalType":"address","name":"","type":"address"}],"stateMutability":"view","type":"function"},{"inputs":[{"internalType":"uint256","name":"tokenId","type":"uint256"}],"name":"ownerOf","outputs":[{"internalType":"address","name":"","type":"address"}],"stateMutability":"view","type":"function"},{"inputs":[{"internalType":"string","name":"vin","type":"string"},{"internalType":"string","name":"ppsr","type":"string"},{"internalType":"string","name":"make","type":"string"},{"internalType":"string","name":"model","type":"string"},{"internalType":"string","name":"color","type":"string"},{"internalType":"string","name":"licensePlate","type":"string"},{"internalType":"uint256","name":"year","type":"uint256"},{"internalType":"address","name":"owner","type":"address"}],"name":"registerCar","outputs":[{"internalType":"uint256","name":"","type":"uint256"}],"stateMutability":"nonpayable","type":"function"},{"inputs":[],"name":"renounceOwnership","outputs":[],"stateMutability":"nonpayable","type":"function"},{"inputs":[{"internalType":"address","name":"from","type":"address"},{"internalType":"address","name":"to","type":"address"},{"internalType":"uint256","name":"tokenId","type":"uint256"}],"name":"safeTransferFrom","outputs":[],"stateMutability":"nonpayable","type":"function"},{"inputs":[{"internalType":"address","name":"from","type":"address"},{"internalType":"address","name":"to","type":"address"},{"internalType":"uint256","name":"tokenId","type":"uint256"},{"internalType":"bytes","name":"data","type":"bytes"}],"name":"safeTransferFrom","outputs":[],"stateMutability":"nonpayable","type":"function"},{"inputs":[{"internalType":"address","name":"operator","type":"address"},{"internalType":"bool","name":"approved","type":"bool"}],"name":"setApprovalForAll","outputs":[],"stateMutability":"nonpayable","type":"function"},{"inputs":[{"internalType":"bytes4","name":"interfaceId","type":"bytes4"}],"name":"supportsInterface","outputs":[{"internalType":"bool","name":"","type":"bool"}],"stateMutability":"view","type":"function"},{"inputs":[],"name":"symbol","outputs":[{"internalType":"string","name":"","type":"string"}],"stateMutability":"view","type":"function"},{"inputs":[{"internalType":"uint256","name":"tokenId","type":"uint256"}],"name":"tokenURI","outputs":[{"internalType":"string","name":"","type":"string"}],"stateMutability":"view","type":"function"},{"inputs":[{"internalType":"address","name":"from","type":"address"},{"internalType":"address","name":"to","type":"address"},{"internalType":"uint256","name":"tokenId","type":"uint256"}],"name":"transferFrom","outputs":[],"stateMutability":"nonpayable","type":"function"},{"inputs":[{"internalType":"address","name":"newOwner","type":"address"}],"name":"transferOwnership","outputs":[],"stateMutability":"nonpayable","type":"function"}],"evm":{"bytecode":{"linkReferences":{},"object":"60806040523480156200001157600080fd5b506040518060400160405280600d81526020017f4175746f50726f6f6620436172000000000000000000000000000000000000008152506040518060400160405280600381526020017f434152000000000000000000000000000000000000000000000000000000000081525081600090816200008f919062000412565b508060019081620000a1919062000412565b505050620000c4620000b8620000ca60201b60201c565b620000d260201b60201c565b620004f9565b600033905090565b6000600660009054906101000a900473ffffffffffffffffffffffffffffffffffffffff16905081600660006101000a81548173ffffffffffffffffffffffffffffffffffffffff021916908373ffffffffffffffffffffffffffffffffffffffff1602179055508173ffffffffffffffffffffffffffffffffffffffff168173ffffffffffffffffffffffffffffffffffffffff167f8be0079c531659141344cd1fd0a4f28419497f9722a3daafe3b4186f6b6457e060405160405180910390a35050565b600081519050919050565b7f4e487b7100000000000000000000000000000000000000000000000000000000600052604160045260246000fd5b7f4e487b7100000000000000000000000000000000000000000000000000000000600052602260045260246000fd5b600060028204905060018216806200021a57607f821691505b60208210810362000230576200022f620001d2565b5b50919050565b60008190508160005260206000209050919050565b60006020601f8301049050919050565b600082821b905092915050565b6000600883026200029a7fffffffffffffffffffffffffffffffffffffffffffffffffffffffffffffffff826200025b565b620002a686836200025b565b95508019841693508086168417925050509392505050565b6000819050919050565b6000819050919050565b6000620002f3620002ed620002e784620002be565b620002c8565b620002be565b9050919050565b6000819050919050565b6200030f83620002d2565b620003276200031e82620002fa565b84845462000268565b825550505050565b600090565b6200033e6200032f565b6200034b81848462000304565b505050565b5b8181101562000373576200036760008262000334565b60018101905062000351565b5050565b601f821115620003c2576200038c8162000236565b62000397846200024b565b81016020851015620003a7578190505b620003bf620003b6856200024b565b83018262000350565b50505b505050565b600082821c905092915050565b6000620003e760001984600802620003c7565b1980831691505092915050565b6000620004028383620003d4565b9150826002028217905092915050565b6200041d8262000198565b67ffffffffffffffff811115620004395762000438620001a3565b5b62000445825462000201565b6200045282828562000377565b600060209050601f8311600181146200048a576000841562000475578287015190505b620004818582620003f4565b865550620004f1565b601f1984166200049a8662000236565b60005b82811015620004c4578489015182556001820191506020850194506020810190506200049d565b86831015620004e45784890151620004e0601f891682620003d4565b8355505b6001600288020188555050505b505050505050565b61342e80620005096000396000f3fe608060405234801561001057600080fd5b50600436106101165760003560e01c8063715018a6116100a2578063a22cb46511610071578063a22cb465146102f9578063b88d4fde14610315578063c87b56dd14610331578063e985e9c514610361578063f2fde38b1461039157610116565b8063715018a6146102835780638002e22c1461028d5780638da5cb5b146102bd57806395d89b41146102db57610116565b806323b872dd116100e957806323b872dd146101b557806342842e0e146101d1578063472ec454146101ed5780636352211e1461022357806370a082311461025357610116565b806301ffc9a71461011b57806306fdde031461014b578063081812fc14610169578063095ea7b314610199575b600080fd5b61013560048036038101906101309190611ffc565b6103ad565b6040516101429190612044565b60405180910390f35b61015361048f565b60405161016091906120ef565b60405180910390f35b610183600480360381019061017e9190612147565b610521565b60405161019091906121b5565b60405180910390f35b6101b360048036038101906101ae91906121fc565b610567565b005b6101cf60048036038101906101ca919061223c565b61067e565b005b6101eb60048036038101906101e6919061223c565b6106de565b005b61020760048036038101906102029190612147565b6106fe565b60405161021a979695949392919061229e565b60405180910390f35b61023d60048036038101906102389190612147565b610b26565b60405161024a91906121b5565b60405180910390f35b61026d60048036038101906102689190612337565b610bac565b60405161027a9190612364565b60405180910390f35b61028b610c63565b005b6102a760048036038101906102a291906124b4565b610c77565b6040516102b49190612364565b60405180910390f35b6102c5610dcb565b6040516102d291906121b5565b60405180910390f35b6102e3610df5565b6040516102f091906120ef565b60405180910390f35b610313600480360381019061030e919061263e565b610e87565b005b61032f600480360381019061032a919061271f565b610e9d565b005b61034b60048036038101906103469190612147565b610eff565b60405161035891906120ef565b60405180910390f35b61037b600480360381019061037691906127a2565b610f67565b6040516103889190612044565b60405180910390f35b6103ab60048036038101906103a69190612337565b610ffb565b005b60007f80ac58cd000000000000000000000000000000000000000000000000000000007bffffffffffffffffffffffffffffffffffffffffffffffffffffffff1916827bffffffffffffffffffffffffffffffffffffffffffffffffffffffff1916148061047857507f5b5e139f000000000000000000000000000000000000000000000000000000007bffffffffffffffffffffffffffffffffffffffffffffffffffffffff1916827bffffffffffffffffffffffffffffffffffffffffffffffffffffffff1916145b8061048857506104878261107e565b5b9050919050565b60606000805461049e90612811565b80601f01602080910402602001604051908101604052809291908181526020018280546104ca90612811565b80156105175780601f106104ec57610100808354040283529160200191610517565b820191906000526020600020905b8154815290600101906020018083116104fa57829003601f168201915b5050505050905090565b600061052c826110e8565b6004600083815260200190815260200160002060009054906101000a900473ffffffffffffffffffffffffffffffffffffffff169050919050565b600061057282610b26565b90508073ffffffffffffffffffffffffffffffffffffffff168373ffffffffffffffffffffffffffffffffffffffff16036105e2576040517f08c379a00000000000000000000000000000000000000000000000000000000081526004016105d9906128b4565b60405180910390fd5b8073ffffffffffffffffffffffffffffffffffffffff16610601611133565b73ffffffffffffffffffffffffffffffffffffffff161480610630575061062f8161062a611133565b610f67565b5b61066f576040517f08c379a000000000000000000000000000000000000000000000000000000000815260040161066690612946565b60405180910390fd5b610679838361113b565b505050565b61068f610689611133565b826111f4565b6106ce576040517f08c379a00000000000000000000000000000000000000000000000000000000081526004016106c5906129d8565b60405180910390fd5b6106d9838383611289565b505050565b6106f983838360405180602001604052806000815250610e9d565b505050565b606080606080606080600061071288611582565b610751576040517f08c379a000000000000000000000000000000000000000000000000000000000815260040161074890612a44565b60405180910390fd5b6000600760008a81526020019081526020016000206040518060e001604052908160008201805461078190612811565b80601f01602080910402602001604051908101604052809291908181526020018280546107ad90612811565b80156107fa5780601f106107cf576101008083540402835291602001916107fa565b820191906000526020600020905b8154815290600101906020018083116107dd57829003601f168201915b5050505050815260200160018201805461081390612811565b80601f016020809104026020016040519081016040528092919081815260200182805461083f90612811565b801561088c5780601f106108615761010080835404028352916020019161088c565b820191906000526020600020905b81548152906001019060200180831161086f57829003601f168201915b505050505081526020016002820180546108a590612811565b80601f01602080910402602001604051908101604052809291908181526020018280546108d190612811565b801561091e5780601f106108f35761010080835404028352916020019161091e565b820191906000526020600020905b81548152906001019060200180831161090157829003601f168201915b5050505050815260200160038201805461093790612811565b80601f016020809104026020016040519081016040528092919081815260200182805461096390612811565b80156109b05780601f10610985576101008083540402835291602001916109b0565b820191906000526020600020905b81548152906001019060200180831161099357829003601f168201915b505050505081526020016004820180546109c990612811565b80601f01602080910402602001604051908101604052809291908181526020018280546109f590612811565b8015610a425780601f10610a1757610100808354040283529160200191610a42565b820191906000526020600020905b815481529060010190602001808311610a2557829003601f168201915b50505050508152602001600582018054610a5b90612811565b80601f0160208091040260200160405190810160405280929190818152602001828054610a8790612811565b8015610ad45780601f10610aa957610100808354040283529160200191610ad4565b820191906000526020600020905b815481529060010190602001808311610ab757829003601f168201915b505050505081526020016006820154815250509050806000015181602001518260400151836060015184608001518560a001518660c00151975097509750975097509750975050919395979092949650565b600080610b32836115c3565b9050600073ffffffffffffffffffffffffffffffffffffffff168173ffffffffffffffffffffffffffffffffffffffff1603610ba3576040517f08c379a0000000000000000000000000000000000000000000000000000000008152600401610b9a90612ab0565b60405180910390fd5b80915050919050565b60008073ffffffffffffffffffffffffffffffffffffffff168273ffffffffffffffffffffffffffffffffffffffff1603610c1c576040517f08c379a0000000000000000000000000000000000000000000000000000000008152600401610c1390612b42565b60405180910390fd5b600360008373ffffffffffffffffffffffffffffffffffffffff1673ffffffffffffffffffffffffffffffffffffffff168152602001908152602001600020549050919050565b610c6b611600565b610c75600061167e565b565b6000610c81611600565b6000600854905060086000815480929190610c9b90612b91565b91905055506040518060e001604052808b81526020018a815260200189815260200188815260200187815260200186815260200185815250600760008381526020019081526020016000206000820151816000019081610cfb9190612d85565b506020820151816001019081610d119190612d85565b506040820151816002019081610d279190612d85565b506060820151816003019081610d3d9190612d85565b506080820151816004019081610d539190612d85565b5060a0820151816005019081610d699190612d85565b5060c08201518160060155905050610d818382611744565b807f874aa2ca5ffc8d2ed8b042e9af9287b2e03dab4a96517706aeafb2ca2f9dd4618b87604051610db3929190612e57565b60405180910390a28091505098975050505050505050565b6000600660009054906101000a900473ffffffffffffffffffffffffffffffffffffffff16905090565b606060018054610e0490612811565b80601f0160208091040260200160405190810160405280929190818152602001828054610e3090612811565b8015610e7d5780601f10610e5257610100808354040283529160200191610e7d565b820191906000526020600020905b815481529060010190602001808311610e6057829003601f168201915b5050505050905090565b610e99610e92611133565b8383611762565b5050565b610eae610ea8611133565b836111f4565b610eed576040517f08c379a0000000000000000000000000000000000000000000000000000000008152600401610ee4906129d8565b60405180910390fd5b610ef9848484846118ce565b50505050565b6060610f0a826110e8565b6000610f1461192a565b90506000815111610f345760405180602001604052806000815250610f5f565b80610f3e84611941565b604051602001610f4f929190612eca565b6040516020818303038152906040525b915050919050565b6000600560008473ffffffffffffffffffffffffffffffffffffffff1673ffffffffffffffffffffffffffffffffffffffff16815260200190815260200160002060008373ffffffffffffffffffffffffffffffffffffffff1673ffffffffffffffffffffffffffffffffffffffff16815260200190815260200160002060009054906101000a900460ff16905092915050565b611003611600565b600073ffffffffffffffffffffffffffffffffffffffff168173ffffffffffffffffffffffffffffffffffffffff1603611072576040517f08c379a000000000000000000000000000000000000000000000000000000000815260040161106990612f60565b60405180910390fd5b61107b8161167e565b50565b60007f01ffc9a7000000000000000000000000000000000000000000000000000000007bffffffffffffffffffffffffffffffffffffffffffffffffffffffff1916827bffffffffffffffffffffffffffffffffffffffffffffffffffffffff1916149050919050565b6110f181611582565b611130576040517f08c379a000000000000000000000000000000000000000000000000000000000815260040161112790612ab0565b60405180910390fd5b50565b600033905090565b816004600083815260200190815260200160002060006101000a81548173ffffffffffffffffffffffffffffffffffffffff021916908373ffffffffffffffffffffffffffffffffffffffff160217905550808273ffffffffffffffffffffffffffffffffffffffff166111ae83610b26565b73ffffffffffffffffffffffffffffffffffffffff167f8c5be1e5ebec7d5bd14f71427d1e84f3dd0314c0f7b2291e5b200ac8c7c3b92560405160405180910390a45050565b60008061120083610b26565b90508073ffffffffffffffffffffffffffffffffffffffff168473ffffffffffffffffffffffffffffffffffffffff16148061124257506112418185610f67565b5b8061128057508373ffffffffffffffffffffffffffffffffffffffff1661126884610521565b73ffffffffffffffffffffffffffffffffffffffff16145b91505092915050565b8273ffffffffffffffffffffffffffffffffffffffff166112a982610b26565b73ffffffffffffffffffffffffffffffffffffffff16146112ff576040517f08c379a00000000000000000000000000000000000000000000000000000000081526004016112f690612ff2565b60405180910390fd5b600073ffffffffffffffffffffffffffffffffffffffff168273ffffffffffffffffffffffffffffffffffffffff160361136e576040517f08c379a000000000000000000000000000000000000000000000000000000000815260040161136590613084565b60405180910390fd5b61137b8383836001611a0f565b8273ffffffffffffffffffffffffffffffffffffffff1661139b82610b26565b73ffffffffffffffffffffffffffffffffffffffff16146113f1576040517f08c379a00000000000000000000000000000000000000000000000000000000081526004016113e890612ff2565b60405180910390fd5b6004600082815260200190815260200160002060006101000a81549073ffffffffffffffffffffffffffffffffffffffff02191690556001600360008573ffffffffffffffffffffffffffffffffffffffff1673ffffffffffffffffffffffffffffffffffffffff168152602001908152602001600020600082825403925050819055506001600360008473ffffffffffffffffffffffffffffffffffffffff1673ffffffffffffffffffffffffffffffffffffffff16815260200190815260200160002060008282540192505081905550816002600083815260200190815260200160002060006101000a81548173ffffffffffffffffffffffffffffffffffffffff021916908373ffffffffffffffffffffffffffffffffffffffff160217905550808273ffffffffffffffffffffffffffffffffffffffff168473ffffffffffffffffffffffffffffffffffffffff167fddf252ad1be2c89b69c2b068fc378daa952ba7f163c4a11628f55a4df523b3ef60405160405180910390a461157d8383836001611a15565b505050565b60008073ffffffffffffffffffffffffffffffffffffffff166115a4836115c3565b73ffffffffffffffffffffffffffffffffffffffff1614159050919050565b60006002600083815260200190815260200160002060009054906101000a900473ffffffffffffffffffffffffffffffffffffffff169050919050565b611608611133565b73ffffffffffffffffffffffffffffffffffffffff16611626610dcb565b73ffffffffffffffffffffffffffffffffffffffff161461167c576040517f08c379a0000000000000000000000000000000000000000000000000000000008152600401611673906130f0565b60405180910390fd5b565b6000600660009054906101000a900473ffffffffffffffffffffffffffffffffffffffff16905081600660006101000a81548173ffffffffffffffffffffffffffffffffffffffff021916908373ffffffffffffffffffffffffffffffffffffffff1602179055508173ffffffffffffffffffffffffffffffffffffffff168173ffffffffffffffffffffffffffffffffffffffff167f8be0079c531659141344cd1fd0a4f28419497f9722a3daafe3b4186f6b6457e060405160405180910390a35050565b61175e828260405180602001604052806000815250611a1b565b5050565b8173ffffffffffffffffffffffffffffffffffffffff168373ffffffffffffffffffffffffffffffffffffffff16036117d0576040517f08c379a00000000000000000000000000000000000000000000000000000000081526004016117c79061315c565b60405180910390fd5b80600560008573ffffffffffffffffffffffffffffffffffffffff1673ffffffffffffffffffffffffffffffffffffffff16815260200190815260200160002060008473ffffffffffffffffffffffffffffffffffffffff1673ffffffffffffffffffffffffffffffffffffffff16815260200190815260200160002060006101000a81548160ff0219169083151502179055508173ffffffffffffffffffffffffffffffffffffffff168373ffffffffffffffffffffffffffffffffffffffff167f17307eab39ab6107e8899845ad3d59bd9653f200f220920489ca2b5937696c31836040516118c19190612044565b60405180910390a3505050565b6118d9848484611289565b6118e584848484611a76565b611924576040517f08c379a000000000000000000000000000000000000000000000000000000000815260040161191b906131ee565b60405180910390fd5b50505050565b606060405180602001604052806000815250905090565b60606000600161195084611bfd565b01905060008167ffffffffffffffff81111561196f5761196e612389565b5b6040519080825280601f01601f1916602001820160405280156119a15781602001600182028036833780820191505090505b509050600082602001820190505b600115611a04578080600190039150507f3031323334353637383961626364656600000000000000000000000000000000600a86061a8153600a85816119f8576119f761320e565b5b049450600085036119af575b819350505050919050565b50505050565b50505050565b611a258383611d50565b611a326000848484611a76565b611a71576040517f08c379a0000000000000000000000000000000000000000000000000000000008152600401611a68906131ee565b60405180910390fd5b505050565b6000611a978473ffffffffffffffffffffffffffffffffffffffff16611f6d565b15611bf0578373ffffffffffffffffffffffffffffffffffffffff1663150b7a02611ac0611133565b8786866040518563ffffffff1660e01b8152600401611ae29493929190613292565b6020604051808303816000875af1925050508015611b1e57506040513d601f19601f82011682018060405250810190611b1b91906132f3565b60015b611ba0573d8060008114611b4e576040519150601f19603f3d011682016040523d82523d6000602084013e611b53565b606091505b506000815103611b98576040517f08c379a0000000000000000000000000000000000000000000000000000000008152600401611b8f906131ee565b60405180910390fd5b805181602001fd5b63150b7a0260e01b7bffffffffffffffffffffffffffffffffffffffffffffffffffffffff1916817bffffffffffffffffffffffffffffffffffffffffffffffffffffffff191614915050611bf5565b600190505b949350505050565b600080600090507a184f03e93ff9f4daa797ed6e38ed64bf6a1f0100000000000000008310611c5b577a184f03e93ff9f4daa797ed6e38ed64bf6a1f0100000000000000008381611c5157611c5061320e565b5b0492506040810190505b6d04ee2d6d415b85acef81000000008310611c98576d04ee2d6d415b85acef81000000008381611c8e57611c8d61320e565b5b0492506020810190505b662386f26fc100008310611cc757662386f26fc100008381611cbd57611cbc61320e565b5b0492506010810190505b6305f5e1008310611cf0576305f5e1008381611ce657611ce561320e565b5b0492506008810190505b6127108310611d15576127108381611d0b57611d0a61320e565b5b0492506004810190505b60648310611d385760648381611d2e57611d2d61320e565b5b0492506002810190505b600a8310611d47576001810190505b80915050919050565b600073ffffffffffffffffffffffffffffffffffffffff168273ffffffffffffffffffffffffffffffffffffffff1603611dbf576040517f08c379a0000000000000000000000000000000000000000000000000000000008152600401611db69061336c565b60405180910390fd5b611dc881611582565b15611e08576040517f08c379a0000000000000000000000000000000000000000000000000000000008152600401611dff906133d8565b60405180910390fd5b611e16600083836001611a0f565b611e1f81611582565b15611e5f576040517f08c379a0000000000000000000000000000000000000000000000000000000008152600401611e56906133d8565b60405180910390fd5b6001600360008473ffffffffffffffffffffffffffffffffffffffff1673ffffffffffffffffffffffffffffffffffffffff16815260200190815260200160002060008282540192505081905550816002600083815260200190815260200160002060006101000a81548173ffffffffffffffffffffffffffffffffffffffff021916908373ffffffffffffffffffffffffffffffffffffffff160217905550808273ffffffffffffffffffffffffffffffffffffffff16600073ffffffffffffffffffffffffffffffffffffffff167fddf252ad1be2c89b69c2b068fc378daa952ba7f163c4a11628f55a4df523b3ef60405160405180910390a4611f69600083836001611a15565b5050565b6000808273ffffffffffffffffffffffffffffffffffffffff163b119050919050565b6000604051905090565b600080fd5b600080fd5b60007fffffffff0000000000000000000000000000000000000000000000000000000082169050919050565b611fd981611fa4565b8114611fe457600080fd5b50565b600081359050611ff681611fd0565b92915050565b60006020828403121561201257612011611f9a565b5b600061202084828501611fe7565b91505092915050565b60008115159050919050565b61203e81612029565b82525050565b60006020820190506120596000830184612035565b92915050565b600081519050919050565b600082825260208201905092915050565b60005b8381101561209957808201518184015260208101905061207e565b60008484015250505050565b6000601f19601f8301169050919050565b60006120c18261205f565b6120cb818561206a565b93506120db81856020860161207b565b6120e4816120a5565b840191505092915050565b6000602082019050818103600083015261210981846120b6565b905092915050565b6000819050919050565b61212481612111565b811461212f57600080fd5b50565b6000813590506121418161211b565b92915050565b60006020828403121561215d5761215c611f9a565b5b600061216b84828501612132565b91505092915050565b600073ffffffffffffffffffffffffffffffffffffffff82169050919050565b600061219f82612174565b9050919050565b6121af81612194565b82525050565b60006020820190506121ca60008301846121a6565b92915050565b6121d981612194565b81146121e457600080fd5b50565b6000813590506121f6816121d0565b92915050565b6000806040838503121561221357612212611f9a565b5b6000612221858286016121e7565b925050602061223285828601612132565b9150509250929050565b60008060006060848603121561225557612254611f9a565b5b6000612263868287016121e7565b9350506020612274868287016121e7565b925050604061228586828701612132565b9150509250925092565b61229881612111565b82525050565b600060e08201905081810360008301526122b8818a6120b6565b905081810360208301526122cc81896120b6565b905081810360408301526122e081886120b6565b905081810360608301526122f481876120b6565b9050818103608083015261230881866120b6565b905081810360a083015261231c81856120b6565b905061232b60c083018461228f565b98975050505050505050565b60006020828403121561234d5761234c611f9a565b5b600061235b848285016121e7565b91505092915050565b6000602082019050612379600083018461228f565b92915050565b600080fd5b600080fd5b7f4e487b7100000000000000000000000000000000000000000000000000000000600052604160045260246000fd5b6123c1826120a5565b810181811067ffffffffffffffff821117156123e0576123df612389565b5b80604052505050565b60006123f3611f90565b90506123ff82826123b8565b919050565b600067ffffffffffffffff82111561241f5761241e612389565b5b612428826120a5565b9050602081019050919050565b82818337600083830152505050565b600061245761245284612404565b6123e9565b90508281526020810184848401111561247357612472612384565b5b61247e848285612435565b509392505050565b600082601f83011261249b5761249a61237f565b5b81356124ab848260208601612444565b91505092915050565b600080600080600080600080610100898b0312156124d5576124d4611f9a565b5b600089013567ffffffffffffffff8111156124f3576124f2611f9f565b5b6124ff8b828c01612486565b985050602089013567ffffffffffffffff8111156125205761251f611f9f565b5b61252c8b828c01612486565b975050604089013567ffffffffffffffff81111561254d5761254c611f9f565b5b6125598b828c01612486565b965050606089013567ffffffffffffffff81111561257a57612579611f9f565b5b6125868b828c01612486565b955050608089013567ffffffffffffffff8111156125a7576125a6611f9f565b5b6125b38b828c01612486565b94505060a089013567ffffffffffffffff8111156125d4576125d3611f9f565b5b6125e08b828c01612486565b93505060c06125f18b828c01612132565b92505060e06126028b828c016121e7565b9150509295985092959890939650565b61261b81612029565b811461262657600080fd5b50565b60008135905061263881612612565b92915050565b6000806040838503121561265557612654611f9a565b5b6000612663858286016121e7565b925050602061267485828601612629565b9150509250929050565b600067ffffffffffffffff82111561269957612698612389565b5b6126a2826120a5565b9050602081019050919050565b60006126c26126bd8461267e565b6123e9565b9050828152602081018484840111156126de576126dd612384565b5b6126e9848285612435565b509392505050565b600082601f8301126127065761270561237f565b5b81356127168482602086016126af565b91505092915050565b6000806000806080858703121561273957612738611f9a565b5b6000612747878288016121e7565b9450506020612758878288016121e7565b935050604061276987828801612132565b925050606085013567ffffffffffffffff81111561278a57612789611f9f565b5b612796878288016126f1565b91505092959194509250565b600080604083850312156127b9576127b8611f9a565b5b60006127c7858286016121e7565b92505060206127d8858286016121e7565b9150509250929050565b7f4e487b7100000000000000000000000000000000000000000000000000000000600052602260045260246000fd5b6000600282049050600182168061282957607f821691505b60208210810361283c5761283b6127e2565b5b50919050565b7f4552433732313a20617070726f76616c20746f2063757272656e74206f776e6560008201527f7200000000000000000000000000000000000000000000000000000000000000602082015250565b600061289e60218361206a565b91506128a982612842565b604082019050919050565b600060208201905081810360008301526128cd81612891565b9050919050565b7f4552433732313a20617070726f76652063616c6c6572206973206e6f7420746f60008201527f6b656e206f776e6572206f7220617070726f76656420666f7220616c6c000000602082015250565b6000612930603d8361206a565b915061293b826128d4565b604082019050919050565b6000602082019050818103600083015261295f81612923565b9050919050565b7f4552433732313a2063616c6c6572206973206e6f7420746f6b656e206f776e6560008201527f72206f7220617070726f76656400000000000000000000000000000000000000602082015250565b60006129c2602d8361206a565b91506129cd82612966565b604082019050919050565b600060208201905081810360008301526129f1816129b5565b9050919050565b7f43617220646f6573206e6f742065786973740000000000000000000000000000600082015250565b6000612a2e60128361206a565b9150612a39826129f8565b602082019050919050565b60006020820190508181036000830152612a5d81612a21565b9050919050565b7f4552433732313a20696e76616c696420746f6b656e2049440000000000000000600082015250565b6000612a9a60188361206a565b9150612aa582612a64565b602082019050919050565b60006020820190508181036000830152612ac981612a8d565b9050919050565b7f4552433732313a2061646472657373207a65726f206973206e6f74206120766160008201527f6c6964206f776e65720000000000000000000000000000000000000000000000602082015250565b6000612b2c60298361206a565b9150612b3782612ad0565b604082019050919050565b60006020820190508181036000830152612b5b81612b1f565b9050919050565b7f4e487b7100000000000000000000000000000000000000000000000000000000600052601160045260246000fd5b6000612b9c82612111565b91507fffffffffffffffffffffffffffffffffffffffffffffffffffffffffffffffff8203612bce57612bcd612b62565b5b600182019050919050565b60008190508160005260206000209050919050565b60006020601f8301049050919050565b600082821b905092915050565b600060088302612c3b7fffffffffffffffffffffffffffffffffffffffffffffffffffffffffffffffff82612bfe565b612c458683612bfe565b95508019841693508086168417925050509392505050565b6000819050919050565b6000612c82612c7d612c7884612111565b612c5d565b612111565b9050919050565b6000819050919050565b612c9c83612c67565b612cb0612ca882612c89565b848454612c0b565b825550505050565b600090565b612cc5612cb8565b612cd0818484612c93565b505050565b5b81811015612cf457612ce9600082612cbd565b600181019050612cd6565b5050565b601f821115612d3957612d0a81612bd9565b612d1384612bee565b81016020851015612d22578190505b612d36612d2e85612bee565b830182612cd5565b50505b505050565b600082821c905092915050565b6000612d5c60001984600802612d3e565b1980831691505092915050565b6000612d758383612d4b565b9150826002028217905092915050565b612d8e8261205f565b67ffffffffffffffff811115612da757612da6612389565b5b612db18254612811565b612dbc828285612cf8565b600060209050601f831160018114612def5760008415612ddd578287015190505b612de78582612d69565b865550612e4f565b601f198416612dfd86612bd9565b60005b82811015612e2557848901518255600182019150602085019450602081019050612e00565b86831015612e425784890151612e3e601f891682612d4b565b8355505b6001600288020188555050505b505050505050565b60006040820190508181036000830152612e7181856120b6565b90508181036020830152612e8581846120b6565b90509392505050565b600081905092915050565b6000612ea48261205f565b612eae8185612e8e565b9350612ebe81856020860161207b565b80840191505092915050565b6000612ed68285612e99565b9150612ee28284612e99565b91508190509392505050565b7f4f776e61626c653a206e6577206f776e657220697320746865207a65726f206160008201527f6464726573730000000000000000000000000000000000000000000000000000602082015250565b6000612f4a60268361206a565b9150612f5582612eee565b604082019050919050565b60006020820190508181036000830152612f7981612f3d565b9050919050565b7f4552433732313a207472616e736665722066726f6d20696e636f72726563742060008201527f6f776e6572000000000000000000000000000000000000000000000000000000602082015250565b6000612fdc60258361206a565b9150612fe782612f80565b604082019050919050565b6000602082019050818103600083015261300b81612fcf565b9050919050565b7f4552433732313a207472616e7366657220746f20746865207a65726f2061646460008201527f7265737300000000000000000000000000000000000000000000000000000000602082015250565b600061306e60248361206a565b915061307982613012565b604082019050919050565b6000602082019050818103600083015261309d81613061565b9050919050565b7f4f776e61626c653a2063616c6c6572206973206e6f7420746865206f776e6572600082015250565b60006130da60208361206a565b91506130e5826130a4565b602082019050919050565b60006020820190508181036000830152613109816130cd565b9050919050565b7f4552433732313a20617070726f766520746f2063616c6c657200000000000000600082015250565b600061314660198361206a565b915061315182613110565b602082019050919050565b6000602082019050818103600083015261317581613139565b9050919050565b7f4552433732313a207472616e7366657220746f206e6f6e20455243373231526560008201527f63656976657220696d706c656d656e7465720000000000000000000000000000602082015250565b60006131d860328361206a565b91506131e38261317c565b604082019050919050565b60006020820190508181036000830152613207816131cb565b9050919050565b7f4e487b7100000000000000000000000000000000000000000000000000000000600052601260045260246000fd5b600081519050919050565b600082825260208201905092915050565b60006132648261323d565b61326e8185613248565b935061327e81856020860161207b565b613287816120a5565b840191505092915050565b60006080820190506132a760008301876121a6565b6132b460208301866121a6565b6132c1604083018561228f565b81810360608301526132d38184613259565b905095945050505050565b6000815190506132ed81611fd0565b92915050565b60006020828403121561330957613308611f9a565b5b6000613317848285016132de565b91505092915050565b7f4552433732313a206d696e7420746f20746865207a65726f2061646472657373600082015250565b600061335660208361206a565b915061336182613320565b602082019050919050565b6000602082019050818103600083015261338581613349565b9050919050565b7f4552433732313a20746f6b656e20616c7265616479206d696e74656400000000600082015250565b60006133c2601c8361206a565b91506133cd8261338c565b602082019050919050565b600060208201905081810360008301526133f1816133b5565b905091905056fea26469706673582212208cc0948e0e8bbd8df72ff6dd805607012f7872644cf845c7b55adfda86c0ad5364736f6c63430008110033","opcodes":"PUSH1 0x80 PUSH1 0x40 MSTORE CALLVALUE DUP1 ISZERO PUSH3 0x11 JUMPI PUSH1 0x0 DUP1 REVERT JUMPDEST POP PUSH1 0x40 MLOAD DUP1 PUSH1 0x40 ADD PUSH1 0x40 MSTORE DUP1 PUSH1 0xD DUP2 MSTORE PUSH1 0x20 ADD PUSH32 0x4175746F50726F6F662043617200000000000000000000000000000000000000 DUP2 MSTORE POP PUSH1 0x40 MLOAD DUP1 PUSH1 0x40 ADD PUSH1 0x40 MSTORE DUP1 PUSH1 0x3 DUP2 MSTORE PUSH1 0x20 ADD PUSH32 0x4341520000000000000000000000000000000000000000000000000000000000 DUP2 MSTORE POP DUP2 PUSH1 0x0 SWAP1 DUP2 PUSH3 0x8F SWAP2 SWAP1 PUSH3 0x412 JUMP JUMPDEST POP DUP1 PUSH1 0x1 SWAP1 DUP2 PUSH3 0xA1 SWAP2 SWAP1 PUSH3 0x412 JUMP JUMPDEST POP POP POP PUSH3 0xC4 PUSH3 0xB8 PUSH3 0xCA PUSH1 0x20 SHL PUSH1 0x20 SHR JUMP JUMPDEST PUSH3 0xD2 PUSH1 0x20 SHL PUSH1 0x20 SHR JUMP JUMPDEST PUSH3 0x4F9 JUMP JUMPDEST PUSH1 0x0 CALLER SWAP1 POP SWAP1 JUMP JUMPDEST PUSH1 0x0 PUSH1 0x6 PUSH1 0x0 SWAP1 SLOAD SWAP1 PUSH2 0x100 EXP SWAP1 DIV PUSH20 0xFFFFFFFFFFFFFFFFFFFFFFFFFFFFFFFFFFFFFFFF AND SWAP1 POP DUP2 PUSH1 0x6 PUSH1 0x0 PUSH2 0x100 EXP DUP2 SLOAD DUP2 PUSH20 0xFFFFFFFFFFFFFFFFFFFFFFFFFFFFFFFFFFFFFFFF MUL NOT AND SWAP1 DUP4 PUSH20 0xFFFFFFFFFFFFFFFFFFFFFFFFFFFFFFFFFFFFFFFF AND MUL OR SWAP1 SSTORE POP DUP2 PUSH20 0xFFFFFFFFFFFFFFFFFFFFFFFFFFFFFFFFFFFFFFFF AND DUP2 PUSH20 0xFFFFFFFFFFFFFFFFFFFFFFFFFFFFFFFFFFFFFFFF AND PUSH32 0x8BE0079C531659141344CD1FD0A4F28419497F9722A3DAAFE3B4186F6B6457E0 PUSH1 0x40 MLOAD PUSH1 0x40 MLOAD DUP1 SWAP2 SUB SWAP1 LOG3 POP POP JUMP JUMPDEST PUSH1 0x0 DUP2 MLOAD SWAP1 POP SWAP2 SWAP1 POP JUMP JUMPDEST PUSH32 0x4E487B7100000000000000000000000000000000000000000000000000000000 PUSH1 0x0 MSTORE PUSH1 0x41 PUSH1 0x4 MSTORE PUSH1 0x24 PUSH1 0x0 REVERT JUMPDEST PUSH32 0x4E487B7100000000000000000000000000000000000000000000000000000000 PUSH1 0x0 MSTORE PUSH1 0x22 PUSH1 0x4 MSTORE PUSH1 0x24 PUSH1 0x0 REVERT JUMPDEST PUSH1 0x0 PUSH1 0x2 DUP3 DIV SWAP1 POP PUSH1 0x1 DUP3 AND DUP1 PUSH3 0x21A JUMPI PUSH1 0x7F DUP3 AND SWAP2 POP JUMPDEST PUSH1 0x20 DUP3 LT DUP2 SUB PUSH3 0x230 JUMPI PUSH3 0x22F PUSH3 0x1D2 JUMP JUMPDEST JUMPDEST POP SWAP2 SWAP1 POP JUMP JUMPDEST PUSH1 0x0 DUP2 SWAP1 POP DUP2 PUSH1 0x0 MSTORE PUSH1 0x20 PUSH1 0x0 KECCAK256 SWAP1 POP SWAP2 SWAP1 POP JUMP JUMPDEST PUSH1 0x0 PUSH1 0x20 PUSH1 0x1F DUP4 ADD DIV SWAP1 POP SWAP2 SWAP1 POP JUMP JUMPDEST PUSH1 0x0 DUP3 DUP3 SHL SWAP1 POP SWAP3 SWAP2 POP POP JUMP JUMPDEST PUSH1 0x0 PUSH1 0x8 DUP4 MUL PUSH3 0x29A PUSH32 0xFFFFFFFFFFFFFFFFFFFFFFFFFFFFFFFFFFFFFFFFFFFFFFFFFFFFFFFFFFFFFFFF DUP3 PUSH3 0x25B JUMP JUMPDEST PUSH3 0x2A6 DUP7 DUP4 PUSH3 0x25B JUMP JUMPDEST SWAP6 POP DUP1 NOT DUP5 AND SWAP4 POP DUP1 DUP7 AND DUP5 OR SWAP3 POP POP POP SWAP4 SWAP3 POP POP POP JUMP JUMPDEST PUSH1 0x0 DUP2 SWAP1 POP SWAP2 SWAP1 POP JUMP JUMPDEST PUSH1 0x0 DUP2 SWAP1 POP SWAP2 SWAP1 POP JUMP JUMPDEST PUSH1 0x0 PUSH3 0x2F3 PUSH3 0x2ED PUSH3 0x2E7 DUP5 PUSH3 0x2BE JUMP JUMPDEST PUSH3 0x2C8 JUMP JUMPDEST PUSH3 0x2BE JUMP JUMPDEST SWAP1 POP SWAP2 SWAP1 POP JUMP JUMPDEST PUSH1 0x0 DUP2 SWAP1 POP SWAP2 SWAP1 POP JUMP JUMPDEST PUSH3 0x30F DUP4 PUSH3 0x2D2 JUMP JUMPDEST PUSH3 0x327 PUSH3 0x31E DUP3 PUSH3 0x2FA JUMP JUMPDEST DUP5 DUP5 SLOAD PUSH3 0x268 JUMP JUMPDEST DUP3 SSTORE POP POP POP POP JUMP JUMPDEST PUSH1 0x0 SWAP1 JUMP JUMPDEST PUSH3 0x33E PUSH3 0x32F JUMP JUMPDEST PUSH3 0x34B DUP2 DUP5 DUP5 PUSH3 0x304 JUMP JUMPDEST POP POP POP JUMP JUMPDEST JUMPDEST DUP2 DUP2 LT ISZERO PUSH3 0x373 JUMPI PUSH3 0x367 PUSH1 0x0 DUP3 PUSH3 0x334 JUMP JUMPDEST PUSH1 0x1 DUP2 ADD SWAP1 POP PUSH3 0x351 JUMP JUMPDEST POP POP JUMP JUMPDEST PUSH1 0x1F DUP3 GT ISZERO PUSH3 0x3C2 JUMPI PUSH3 0x38C DUP2 PUSH3 0x236 JUMP JUMPDEST PUSH3 0x397 DUP5 PUSH3 0x24B JUMP JUMPDEST DUP2 ADD PUSH1 0x20 DUP6 LT ISZERO PUSH3 0x3A7 JUMPI DUP2 SWAP1 POP JUMPDEST PUSH3 0x3BF PUSH3 0x3B6 DUP6 PUSH3 0x24B JUMP JUMPDEST DUP4 ADD DUP3 PUSH3 0x350 JUMP JUMPDEST POP POP JUMPDEST POP POP POP JUMP JUMPDEST PUSH1 0x0 DUP3 DUP3 SHR SWAP1 POP SWAP3 SWAP2 POP POP JUMP JUMPDEST PUSH1 0x0 PUSH3 0x3E7 PUSH1 0x0 NOT DUP5 PUSH1 0x8 MUL PUSH3 0x3C7 JUMP JUMPDEST NOT DUP1 DUP4 AND SWAP2 POP POP SWAP3 SWAP2 POP POP JUMP JUMPDEST PUSH1 0x0 PUSH3 0x402 DUP4 DUP4 PUSH3 0x3D4 JUMP JUMPDEST SWAP2 POP DUP3 PUSH1 0x2 MUL DUP3 OR SWAP1 POP SWAP3 SWAP2 POP POP JUMP JUMPDEST PUSH3 0x41D DUP3 PUSH3 0x198 JUMP JUMPDEST PUSH8 0xFFFFFFFFFFFFFFFF DUP2 GT ISZERO PUSH3 0x439 JUMPI PUSH3 0x438 PUSH3 0x1A3 JUMP JUMPDEST JUMPDEST PUSH3 0x445 DUP3 SLOAD PUSH3 0x201 JUMP JUMPDEST PUSH3 0x452 DUP3 DUP3 DUP6 PUSH3 0x377 JUMP JUMPDEST PUSH1 0x0 PUSH1 0x20 SWAP1 POP PUSH1 0x1F DUP4 GT PUSH1 0x1 DUP2 EQ PUSH3 0x48A JUMPI PUSH1 0x0 DUP5 ISZERO PUSH3 0x475 JUMPI DUP3 DUP8 ADD MLOAD SWAP1 POP JUMPDEST PUSH3 0x481 DUP6 DUP3 PUSH3 0x3F4 JUMP JUMPDEST DUP7 SSTORE POP PUSH3 0x4F1 JUMP JUMPDEST PUSH1 0x1F NOT DUP5 AND PUSH3 0x49A DUP7 PUSH3 0x236 JUMP JUMPDEST PUSH1 0x0 JUMPDEST DUP3 DUP2 LT ISZERO PUSH3 0x4C4 JUMPI DUP5 DUP10 ADD MLOAD DUP3 SSTORE PUSH1 0x1 DUP3 ADD SWAP2 POP PUSH1 0x20 DUP6 ADD SWAP5 POP PUSH1 0x20 DUP2 ADD SWAP1 POP PUSH3 0x49D JUMP JUMPDEST DUP7 DUP4 LT ISZERO PUSH3 0x4E4 JUMPI DUP5 DUP10 ADD MLOAD PUSH3 0x4E0 PUSH1 0x1F DUP10 AND DUP3 PUSH3 0x3D4 JUMP JUMPDEST DUP4 SSTORE POP JUMPDEST PUSH1 0x1 PUSH1 0x2 DUP9 MUL ADD DUP9 SSTORE POP POP POP JUMPDEST POP POP POP POP POP POP JUMP JUMPDEST PUSH2 0x342E DUP1 PUSH3 0x509 PUSH1 0x0 CODECOPY PUSH1 0x0 RETURN INVALID PUSH1 0x80 PUSH1 0x40 MSTORE CALLVALUE DUP1 ISZERO PUSH2 0x10 JUMPI PUSH1 0x0 DUP1 REVERT JUMPDEST POP PUSH1 0x4 CALLDATASIZE LT PUSH2 0x116 JUMPI PUSH1 0x0 CALLDATALOAD PUSH1 0xE0 SHR DUP1 PUSH4 0x715018A6 GT PUSH2 0xA2 JUMPI DUP1 PUSH4 0xA22CB465 GT PUSH2 0x71 JUMPI DUP1 PUSH4 0xA22CB465 EQ PUSH2 0x2F9 JUMPI DUP1 PUSH4 0xB88D4FDE EQ PUSH2 0x315 JUMPI DUP1 PUSH4 0xC87B56DD EQ PUSH2 0x331 JUMPI DUP1 PUSH4 0xE985E9C5 EQ PUSH2 0x361 JUMPI DUP1 PUSH4 0xF2FDE38B EQ PUSH2 0x391 JUMPI PUSH2 0x116 JUMP JUMPDEST DUP1 PUSH4 0x715018A6 EQ PUSH2 0x283 JUMPI DUP1 PUSH4 0x8002E22C EQ PUSH2 0x28D JUMPI DUP1 PUSH4 0x8DA5CB5B EQ PUSH2 0x2BD JUMPI DUP1 PUSH4 0x95D89B41 EQ PUSH2 0x2DB JUMPI PUSH2 0x116 JUMP JUMPDEST DUP1 PUSH4 0x23B872DD GT PUSH2 0xE9 JUMPI DUP1 PUSH4 0x23B872DD EQ PUSH2 0x1B5 JUMPI DUP1 PUSH4 0x42842E0E EQ PUSH2 0x1D1 JUMPI DUP1 PUSH4 0x472EC454 EQ PUSH2 0x1ED JUMPI DUP1 PUSH4 0x6352211E EQ PUSH2 0x223 JUMPI DUP1 PUSH4 0x70A08231 EQ PUSH2 0x253 JUMPI PUSH2 0x116 JUMP JUMPDEST DUP1 PUSH4 0x1FFC9A7 EQ PUSH2 0x11B JUMPI DUP1 PUSH4 0x6FDDE03 EQ PUSH2 0x14B JUMPI DUP1 PUSH4 0x81812FC EQ PUSH2 0x169 JUMPI DUP1 PUSH4 0x95EA7B3 EQ PUSH2 0x199 JUMPI JUMPDEST PUSH1 0x0 DUP1 REVERT JUMPDEST PUSH2 0x135 PUSH1 0x4 DUP1 CALLDATASIZE SUB DUP2 ADD SWAP1 PUSH2 0x130 SWAP2 SWAP1 PUSH2 0x1FFC JUMP JUMPDEST PUSH2 0x3AD JUMP JUMPDEST PUSH1 0x40 MLOAD PUSH2 0x142 SWAP2 SWAP1 PUSH2 0x2044 JUMP JUMPDEST PUSH1 0x40 MLOAD DUP1 SWAP2 SUB SWAP1 RETURN JUMPDEST PUSH2 0x153 PUSH2 0x48F JUMP JUMPDEST PUSH1 0x40 MLOAD PUSH2 0x160 SWAP2 SWAP1 PUSH2 0x20EF JUMP JUMPDEST PUSH1 0x40 MLOAD DUP1 SWAP2 SUB SWAP1 RETURN JUMPDEST PUSH2 0x183 PUSH1 0x4 DUP1 CALLDATASIZE SUB DUP2 ADD SWAP1 PUSH2 0x17E SWAP2 SWAP1 PUSH2 0x2147 JUMP JUMPDEST PUSH2 0x521 JUMP JUMPDEST PUSH1 0x40 MLOAD PUSH2 0x190 SWAP2 SWAP1 PUSH2 0x21B5 JUMP JUMPDEST PUSH1 0x40 MLOAD DUP1 SWAP2 SUB SWAP1 RETURN JUMPDEST PUSH2 0x1B3 PUSH1 0x4 DUP1 CALLDATASIZE SUB DUP2 ADD SWAP1 PUSH2 0x1AE SWAP2 SWAP1 PUSH2 0x21FC JUMP JUMPDEST PUSH2 0x567 JUMP JUMPDEST STOP JUMPDEST PUSH2 0x1CF PUSH1 0x4 DUP1 CALLDATASIZE SUB DUP2 ADD SWAP1 PUSH2 0x1CA SWAP2 SWAP1 PUSH2 0x223C JUMP JUMPDEST PUSH2 0x67E JUMP JUMPDEST STOP JUMPDEST PUSH2 0x1EB PUSH1 0x4 DUP1 CALLDATASIZE SUB DUP2 ADD SWAP1 PUSH2 0x1E6 SWAP2 SWAP1 PUSH2 0x223C JUMP JUMPDEST PUSH2 0x6DE JUMP JUMPDEST STOP JUMPDEST PUSH2 0x207 PUSH1 0x4 DUP1 CALLDATASIZE SUB DUP2 ADD SWAP1 PUSH2 0x202 SWAP2 SWAP1 PUSH2 0x2147 JUMP JUMPDEST PUSH2 0x6FE JUMP JUMPDEST PUSH1 0x40 MLOAD PUSH2 0x21A SWAP8 SWAP7 SWAP6 SWAP5 SWAP4 SWAP3 SWAP2 SWAP1 PUSH2 0x229E JUMP JUMPDEST PUSH1 0x40 MLOAD DUP1 SWAP2 SUB SWAP1 RETURN JUMPDEST PUSH2 0x23D PUSH1 0x4 DUP1 CALLDATASIZE SUB DUP2 ADD SWAP1 PUSH2 0x238 SWAP2 SWAP1 PUSH2 0x2147 JUMP JUMPDEST PUSH2 0xB26 JUMP JUMPDEST PUSH1 0x40 MLOAD PUSH2 0x24A SWAP2 SWAP1 PUSH2 0x21B5 JUMP JUMPDEST PUSH1 0x40 MLOAD DUP1 SWAP2 SUB SWAP1 RETURN JUMPDEST PUSH2 0x26D PUSH1 0x4 DUP1 CALLDATASIZE SUB DUP2 ADD SWAP1 PUSH2 0x268 SWAP2 SWAP1 PUSH2 0x2337 JUMP JUMPDEST PUSH2 0xBAC JUMP JUMPDEST PUSH1 0x40 MLOAD PUSH2 0x27A SWAP2 SWAP1 PUSH2 0x2364 JUMP JUMPDEST PUSH1 0x40 MLOAD DUP1 SWAP2 SUB SWAP1 RETURN JUMPDEST PUSH2 0x28B PUSH2 0xC63 JUMP JUMPDEST STOP JUMPDEST PUSH2 0x2A7 PUSH1 0x4 DUP1 CALLDATASIZE SUB DUP2 ADD SWAP1 PUSH2 0x2A2 SWAP2 SWAP1 PUSH2 0x24B4 JUMP JUMPDEST PUSH2 0xC77 JUMP JUMPDEST PUSH1 0x40 MLOAD PUSH2 0x2B4 SWAP2 SWAP1 PUSH2 0x2364 JUMP JUMPDEST PUSH1 0x40 MLOAD DUP1 SWAP2 SUB SWAP1 RETURN JUMPDEST PUSH2 0x2C5 PUSH2 0xDCB JUMP JUMPDEST PUSH1 0x40 MLOAD PUSH2 0x2D2 SWAP2 SWAP1 PUSH2 0x21B5 JUMP JUMPDEST PUSH1 0x40 MLOAD DUP1 SWAP2 SUB SWAP1 RETURN JUMPDEST PUSH2 0x2E3 PUSH2 0xDF5 JUMP JUMPDEST PUSH1 0x40 MLOAD PUSH2 0x2F0 SWAP2 SWAP1 PUSH2 0x20EF JUMP JUMPDEST PUSH1 0x40 MLOAD DUP1 SWAP2 SUB SWAP1 RETURN JUMPDEST PUSH2 0x313 PUSH1 0x4 DUP1 CALLDATASIZE SUB DUP2 ADD SWAP1 PUSH2 0x30E SWAP2 SWAP1 PUSH2 0x263E JUMP JUMPDEST PUSH2 0xE87 JUMP JUMPDEST STOP JUMPDEST PUSH2 0x32F PUSH1 0x4 DUP1 CALLDATASIZE SUB DUP2 ADD SWAP1 PUSH2 0x32A SWAP2 SWAP1 PUSH2 0x271F JUMP JUMPDEST PUSH2 0xE9D JUMP JUMPDEST STOP JUMPDEST PUSH2 0x34B PUSH1 0x4 DUP1 CALLDATASIZE SUB DUP2 ADD SWAP1 PUSH2 0x346 SWAP2 SWAP1 PUSH2 0x2147 JUMP JUMPDEST PUSH2 0xEFF JUMP JUMPDEST PUSH1 0x40 MLOAD PUSH2 0x358 SWAP2 SWAP1 PUSH2 0x20EF JUMP JUMPDEST PUSH1 0x40 MLOAD DUP1 SWAP2 SUB SWAP1 RETURN JUMPDEST PUSH2 0x37B PUSH1 0x4 DUP1 CALLDATASIZE SUB DUP2 ADD SWAP1 PUSH2 0x376 SWAP2 SWAP1 PUSH2 0x27A2 JUMP JUMPDEST PUSH2 0xF67 JUMP JUMPDEST PUSH1 0x40 MLOAD PUSH2 0x388 SWAP2 SWAP1 PUSH2 0x2044 JUMP JUMPDEST PUSH1 0x40 MLOAD DUP1 SWAP2 SUB SWAP1 RETURN JUMPDEST PUSH2 0x3AB PUSH1 0x4 DUP1 CALLDATASIZE SUB DUP2 ADD SWAP1 PUSH2 0x3A6 SWAP2 SWAP1 PUSH2 0x2337 JUMP JUMPDEST PUSH2 0xFFB JUMP JUMPDEST STOP JUMPDEST PUSH1 0x0 PUSH32 0x80AC58CD00000000000000000000000000000000000000000000000000000000 PUSH28 0xFFFFFFFFFFFFFFFFFFFFFFFFFFFFFFFFFFFFFFFFFFFFFFFFFFFFFFFF NOT AND DUP3 PUSH28 0xFFFFFFFFFFFFFFFFFFFFFFFFFFFFFFFFFFFFFFFFFFFFFFFFFFFFFFFF NOT AND EQ DUP1 PUSH2 0x478 JUMPI POP PUSH32 0x5B5E139F00000000000000000000000000000000000000000000000000000000 PUSH28 0xFFFFFFFFFFFFFFFFFFFFFFFFFFFFFFFFFFFFFFFFFFFFFFFFFFFFFFFF NOT AND DUP3 PUSH28 0xFFFFFFFFFFFFFFFFFFFFFFFFFFFFFFFFFFFFFFFFFFFFFFFFFFFFFFFF NOT AND EQ JUMPDEST DUP1 PUSH2 0x488 JUMPI POP PUSH2 0x487 DUP3 PUSH2 0x107E JUMP JUMPDEST JUMPDEST SWAP1 POP SWAP2 SWAP1 POP JUMP JUMPDEST PUSH1 0x60 PUSH1 0x0 DUP1 SLOAD PUSH2 0x49E SWAP1 PUSH2 0x2811 JUMP JUMPDEST DUP1 PUSH1 0x1F ADD PUSH1 0x20 DUP1 SWAP2 DIV MUL PUSH1 0x20 ADD PUSH1 0x40 MLOAD SWAP1 DUP2 ADD PUSH1 0x40 MSTORE DUP1 SWAP3 SWAP2 SWAP1 DUP2 DUP2 MSTORE PUSH1 0x20 ADD DUP3 DUP1 SLOAD PUSH2 0x4CA SWAP1 PUSH2 0x2811 JUMP JUMPDEST DUP1 ISZERO PUSH2 0x517 JUMPI DUP1 PUSH1 0x1F LT PUSH2 0x4EC JUMPI PUSH2 0x100 DUP1 DUP4 SLOAD DIV MUL DUP4 MSTORE SWAP2 PUSH1 0x20 ADD SWAP2 PUSH2 0x517 JUMP JUMPDEST DUP3 ADD SWAP2 SWAP1 PUSH1 0x0 MSTORE PUSH1 0x20 PUSH1 0x0 KECCAK256 SWAP1 JUMPDEST DUP2 SLOAD DUP2 MSTORE SWAP1 PUSH1 0x1 ADD SWAP1 PUSH1 0x20 ADD DUP1 DUP4 GT PUSH2 0x4FA JUMPI DUP3 SWAP1 SUB PUSH1 0x1F AND DUP3 ADD SWAP2 JUMPDEST POP POP POP POP POP SWAP1 POP SWAP1 JUMP JUMPDEST PUSH1 0x0 PUSH2 0x52C DUP3 PUSH2 0x10E8 JUMP JUMPDEST PUSH1 0x4 PUSH1 0x0 DUP4 DUP2 MSTORE PUSH1 0x20 ADD SWAP1 DUP2 MSTORE PUSH1 0x20 ADD PUSH1 0x0 KECCAK256 PUSH1 0x0 SWAP1 SLOAD SWAP1 PUSH2 0x100 EXP SWAP1 DIV PUSH20 0xFFFFFFFFFFFFFFFFFFFFFFFFFFFFFFFFFFFFFFFF AND SWAP1 POP SWAP2 SWAP1 POP JUMP JUMPDEST PUSH1 0x0 PUSH2 0x572 DUP3 PUSH2 0xB26 JUMP JUMPDEST SWAP1 POP DUP1 PUSH20 0xFFFFFFFFFFFFFFFFFFFFFFFFFFFFFFFFFFFFFFFF AND DUP4 PUSH20 0xFFFFFFFFFFFFFFFFFFFFFFFFFFFFFFFFFFFFFFFF AND SUB PUSH2 0x5E2 JUMPI PUSH1 0x40 MLOAD PUSH32 0x8C379A000000000000000000000000000000000000000000000000000000000 DUP2 MSTORE PUSH1 0x4 ADD PUSH2 0x5D9 SWAP1 PUSH2 0x28B4 JUMP JUMPDEST PUSH1 0x40 MLOAD DUP1 SWAP2 SUB SWAP1 REVERT JUMPDEST DUP1 PUSH20 0xFFFFFFFFFFFFFFFFFFFFFFFFFFFFFFFFFFFFFFFF AND PUSH2 0x601 PUSH2 0x1133 JUMP JUMPDEST PUSH20 0xFFFFFFFFFFFFFFFFFFFFFFFFFFFFFFFFFFFFFFFF AND EQ DUP1 PUSH2 0x630 JUMPI POP PUSH2 0x62F DUP2 PUSH2 0x62A PUSH2 0x1133 JUMP JUMPDEST PUSH2 0xF67 JUMP JUMPDEST JUMPDEST PUSH2 0x66F JUMPI PUSH1 0x40 MLOAD PUSH32 0x8C379A000000000000000000000000000000000000000000000000000000000 DUP2 MSTORE PUSH1 0x4 ADD PUSH2 0x666 SWAP1 PUSH2 0x2946 JUMP JUMPDEST PUSH1 0x40 MLOAD DUP1 SWAP2 SUB SWAP1 REVERT JUMPDEST PUSH2 0x679 DUP4 DUP4 PUSH2 0x113B JUMP JUMPDEST POP POP POP JUMP JUMPDEST PUSH2 0x68F PUSH2 0x689 PUSH2 0x1133 JUMP JUMPDEST DUP3 PUSH2 0x11F4 JUMP JUMPDEST PUSH2 0x6CE JUMPI PUSH1 0x40 MLOAD PUSH32 0x8C379A000000000000000000000000000000000000000000000000000000000 DUP2 MSTORE PUSH1 0x4 ADD PUSH2 0x6C5 SWAP1 PUSH2 0x29D8 JUMP JUMPDEST PUSH1 0x40 MLOAD DUP1 SWAP2 SUB SWAP1 REVERT JUMPDEST PUSH2 0x6D9 DUP4 DUP4 DUP4 PUSH2 0x1289 JUMP JUMPDEST POP POP POP JUMP JUMPDEST PUSH2 0x6F9 DUP4 DUP4 DUP4 PUSH1 0x40 MLOAD DUP1 PUSH1 0x20 ADD PUSH1 0x40 MSTORE DUP1 PUSH1 0x0 DUP2 MSTORE POP PUSH2 0xE9D JUMP JUMPDEST POP POP POP JUMP JUMPDEST PUSH1 0x60 DUP1 PUSH1 0x60 DUP1 PUSH1 0x60 DUP1 PUSH1 0x0 PUSH2 0x712 DUP9 PUSH2 0x1582 JUMP JUMPDEST PUSH2 0x751 JUMPI PUSH1 0x40 MLOAD PUSH32 0x8C379A000000000000000000000000000000000000000000000000000000000 DUP2 MSTORE PUSH1 0x4 ADD PUSH2 0x748 SWAP1 PUSH2 0x2A44 JUMP JUMPDEST PUSH1 0x40 MLOAD DUP1 SWAP2 SUB SWAP1 REVERT JUMPDEST PUSH1 0x0 PUSH1 0x7 PUSH1 0x0 DUP11 DUP2 MSTORE PUSH1 0x20 ADD SWAP1 DUP2 MSTORE PUSH1 0x20 ADD PUSH1 0x0 KECCAK256 PUSH1 0x40 MLOAD DUP1 PUSH1 0xE0 ADD PUSH1 0x40 MSTORE SWAP1 DUP2 PUSH1 0x0 DUP3 ADD DUP1 SLOAD PUSH2 0x781 SWAP1 PUSH2 0x2811 JUMP JUMPDEST DUP1 PUSH1 0x1F ADD PUSH1 0x20 DUP1 SWAP2 DIV MUL PUSH1 0x20 ADD PUSH1 0x40 MLOAD SWAP1 DUP2 ADD PUSH1 0x40 MSTORE DUP1 SWAP3 SWAP2 SWAP1 DUP2 DUP2 MSTORE PUSH1 0x20 ADD DUP3 DUP1 SLOAD PUSH2 0x7AD SWAP1 PUSH2 0x2811 JUMP JUMPDEST DUP1 ISZERO PUSH2 0x7FA JUMPI DUP1 PUSH1 0x1F LT PUSH2 0x7CF JUMPI PUSH2 0x100 DUP1 DUP4 SLOAD DIV MUL DUP4 MSTORE SWAP2 PUSH1 0x20 ADD SWAP2 PUSH2 0x7FA JUMP JUMPDEST DUP3 ADD SWAP2 SWAP1 PUSH1 0x0 MSTORE PUSH1 0x20 PUSH1 0x0 KECCAK256 SWAP1 JUMPDEST DUP2 SLOAD DUP2 MSTORE SWAP1 PUSH1 0x1 ADD SWAP1 PUSH1 0x20 ADD DUP1 DUP4 GT PUSH2 0x7DD JUMPI DUP3 SWAP1 SUB PUSH1 0x1F AND DUP3 ADD SWAP2 JUMPDEST POP POP POP POP POP DUP2 MSTORE PUSH1 0x20 ADD PUSH1 0x1 DUP3 ADD DUP1 SLOAD PUSH2 0x813 SWAP1 PUSH2 0x2811 JUMP JUMPDEST DUP1 PUSH1 0x1F ADD PUSH1 0x20 DUP1 SWAP2 DIV MUL PUSH1 0x20 ADD PUSH1 0x40 MLOAD SWAP1 DUP2 ADD PUSH1 0x40 MSTORE DUP1 SWAP3 SWAP2 SWAP1 DUP2 DUP2 MSTORE PUSH1 0x20 ADD DUP3 DUP1 SLOAD PUSH2 0x83F SWAP1 PUSH2 0x2811 JUMP JUMPDEST DUP1 ISZERO PUSH2 0x88C JUMPI DUP1 PUSH1 0x1F LT PUSH2 0x861 JUMPI PUSH2 0x100 DUP1 DUP4 SLOAD DIV MUL DUP4 MSTORE SWAP2 PUSH1 0x20 ADD SWAP2 PUSH2 0x88C JUMP JUMPDEST DUP3 ADD SWAP2 SWAP1 PUSH1 0x0 MSTORE PUSH1 0x20 PUSH1 0x0 KECCAK256 SWAP1 JUMPDEST DUP2 SLOAD DUP2 MSTORE SWAP1 PUSH1 0x1 ADD SWAP1 PUSH1 0x20 ADD DUP1 DUP4 GT PUSH2 0x86F JUMPI DUP3 SWAP1 SUB PUSH1 0x1F AND DUP3 ADD SWAP2 JUMPDEST POP POP POP POP POP DUP2 MSTORE PUSH1 0x20 ADD PUSH1 0x2 DUP3 ADD DUP1 SLOAD PUSH2 0x8A5 SWAP1 PUSH2 0x2811 JUMP JUMPDEST DUP1 PUSH1 0x1F ADD PUSH1 0x20 DUP1 SWAP2 DIV MUL PUSH1 0x20 ADD PUSH1 0x40 MLOAD SWAP1 DUP2 ADD PUSH1 0x40 MSTORE DUP1 SWAP3 SWAP2 SWAP1 DUP2 DUP2 MSTORE PUSH1 0x20 ADD DUP3 DUP1 SLOAD PUSH2 0x8D1 SWAP1 PUSH2 0x2811 JUMP JUMPDEST DUP1 ISZERO PUSH2 0x91E JUMPI DUP1 PUSH1 0x1F LT PUSH2 0x8F3 JUMPI PUSH2 0x100 DUP1 DUP4 SLOAD DIV MUL DUP4 MSTORE SWAP2 PUSH1 0x20 ADD SWAP2 PUSH2 0x91E JUMP JUMPDEST DUP3 ADD SWAP2 SWAP1 PUSH1 0x0 MSTORE PUSH1 0x20 PUSH1 0x0 KECCAK256 SWAP1 JUMPDEST DUP2 SLOAD DUP2 MSTORE SWAP1 PUSH1 0x1 ADD SWAP1 PUSH1 0x20 ADD DUP1 DUP4 GT PUSH2 0x901 JUMPI DUP3 SWAP1 SUB PUSH1 0x1F AND DUP3 ADD SWAP2 JUMPDEST POP POP POP POP POP DUP2 MSTORE PUSH1 0x20 ADD PUSH1 0x3 DUP3 ADD DUP1 SLOAD PUSH2 0x937 SWAP1 PUSH2 0x2811 JUMP JUMPDEST DUP1 PUSH1 0x1F ADD PUSH1 0x20 DUP1 SWAP2 DIV MUL PUSH1 0x20 ADD PUSH1 0x40 MLOAD SWAP1 DUP2 ADD PUSH1 0x40 MSTORE DUP1 SWAP3 SWAP2 SWAP1 DUP2 DUP2 MSTORE PUSH1 0x20 ADD DUP3 DUP1 SLOAD PUSH2 0x963 SWAP1 PUSH2 0x2811 JUMP JUMPDEST DUP1 ISZERO PUSH2 0x9B0 JUMPI DUP1 PUSH1 0x1F LT PUSH2 0x985 JUMPI PUSH2 0x100 DUP1 DUP4 SLOAD DIV MUL DUP4 MSTORE SWAP2 PUSH1 0x20 ADD SWAP2 PUSH2 0x9B0 JUMP JUMPDEST DUP3 ADD SWAP2 SWAP1 PUSH1 0x0 MSTORE PUSH1 0x20 PUSH1 0x0 KECCAK256 SWAP1 JUMPDEST DUP2 SLOAD DUP2 MSTORE SWAP1 PUSH1 0x1 ADD SWAP1 PUSH1 0x20 ADD DUP1 DUP4 GT PUSH2 0x993 JUMPI DUP3 SWAP1 SUB PUSH1 0x1F AND DUP3 ADD SWAP2 JUMPDEST POP POP POP POP POP DUP2 MSTORE PUSH1 0x20 ADD PUSH1 0x4 DUP3 ADD DUP1 SLOAD PUSH2 0x9C9 SWAP1 PUSH2 0x2811 JUMP JUMPDEST DUP1 PUSH1 0x1F ADD PUSH1 0x20 DUP1 SWAP2 DIV MUL PUSH1 0x20 ADD PUSH1 0x40 MLOAD SWAP1 DUP2 ADD PUSH1 0x40 MSTORE DUP1 SWAP3 SWAP2 SWAP1 DUP2 DUP2 MSTORE PUSH1 0x20 ADD DUP3 DUP1 SLOAD PUSH2 0x9F5 SWAP1 PUSH2 0x2811 JUMP JUMPDEST DUP1 ISZERO PUSH2 0xA42 JUMPI DUP1 PUSH1 0x1F LT PUSH2 0xA17 JUMPI PUSH2 0x100 DUP1 DUP4 SLOAD DIV MUL DUP4 MSTORE SWAP2 PUSH1 0x20 ADD SWAP2 PUSH2 0xA42 JUMP JUMPDEST DUP3 ADD SWAP2 SWAP1 PUSH1 0x0 MSTORE PUSH1 0x20 PUSH1 0x0 KECCAK256 SWAP1 JUMPDEST DUP2 SLOAD DUP2 MSTORE SWAP1 PUSH1 0x1 ADD SWAP1 PUSH1 0x20 ADD DUP1 DUP4 GT PUSH2 0xA25 JUMPI DUP3 SWAP1 SUB PUSH1 0x1F AND DUP3 ADD SWAP2 JUMPDEST POP POP POP POP POP DUP2 MSTORE PUSH1 0x20 ADD PUSH1 0x5 DUP3 ADD DUP1 SLOAD PUSH2 0xA5B SWAP1 PUSH2 0x2811 JUMP JUMPDEST DUP1 PUSH1 0x1F ADD PUSH1 0x20 DUP1 SWAP2 DIV MUL PUSH1 0x20 ADD PUSH1 0x40 MLOAD SWAP1 DUP2 ADD PUSH1 0x40 MSTORE DUP1 SWAP3 SWAP2 SWAP1 DUP2 DUP2 MSTORE PUSH1 0x20 ADD DUP3 DUP1 SLOAD PUSH2 0xA87 SWAP1 PUSH2 0x2811 JUMP JUMPDEST DUP1 ISZERO PUSH2 0xAD4 JUMPI DUP1 PUSH1 0x1F LT PUSH2 0xAA9 JUMPI PUSH2 0x100 DUP1 DUP4 SLOAD DIV MUL DUP4 MSTORE SWAP2 PUSH1 0x20 ADD SWAP2 PUSH2 0xAD4 JUMP JUMPDEST DUP3 ADD SWAP2 SWAP1 PUSH1 0x0 MSTORE PUSH1 0x20 PUSH1 0x0 KECCAK256 SWAP1 JUMPDEST DUP2 SLOAD DUP2 MSTORE SWAP1 PUSH1 0x1 ADD SWAP1 PUSH1 0x20 ADD DUP1 DUP4 GT PUSH2 0xAB7 JUMPI DUP3 SWAP1 SUB PUSH1 0x1F AND DUP3 ADD SWAP2 JUMPDEST POP POP POP POP POP DUP2 MSTORE PUSH1 0x20 ADD PUSH1 0x6 DUP3 ADD SLOAD DUP2 MSTORE POP POP SWAP1 POP DUP1 PUSH1 0x0 ADD MLOAD DUP2 PUSH1 0x20 ADD MLOAD DUP3 PUSH1 0x40 ADD MLOAD DUP4 PUSH1 0x60 ADD MLOAD DUP5 PUSH1 0x80 ADD MLOAD DUP6 PUSH1 0xA0 ADD MLOAD DUP7 PUSH1 0xC0 ADD MLOAD SWAP8 POP SWAP8 POP SWAP8 POP SWAP8 POP SWAP8 POP SWAP8 POP SWAP8 POP POP SWAP2 SWAP4 SWAP6 SWAP8 SWAP1 SWAP3 SWAP5 SWAP7 POP JUMP JUMPDEST PUSH1 0x0 DUP1 PUSH2 0xB32 DUP4 PUSH2 0x15C3 JUMP JUMPDEST SWAP1 POP PUSH1 0x0 PUSH20 0xFFFFFFFFFFFFFFFFFFFFFFFFFFFFFFFFFFFFFFFF AND DUP2 PUSH20 0xFFFFFFFFFFFFFFFFFFFFFFFFFFFFFFFFFFFFFFFF AND SUB PUSH2 0xBA3 JUMPI PUSH1 0x40 MLOAD PUSH32 0x8C379A000000000000000000000000000000000000000000000000000000000 DUP2 MSTORE PUSH1 0x4 ADD PUSH2 0xB9A SWAP1 PUSH2 0x2AB0 JUMP JUMPDEST PUSH1 0x40 MLOAD DUP1 SWAP2 SUB SWAP1 REVERT JUMPDEST DUP1 SWAP2 POP POP SWAP2 SWAP1 POP JUMP JUMPDEST PUSH1 0x0 DUP1 PUSH20 0xFFFFFFFFFFFFFFFFFFFFFFFFFFFFFFFFFFFFFFFF AND DUP3 PUSH20 0xFFFFFFFFFFFFFFFFFFFFFFFFFFFFFFFFFFFFFFFF AND SUB PUSH2 0xC1C JUMPI PUSH1 0x40 MLOAD PUSH32 0x8C379A000000000000000000000000000000000000000000000000000000000 DUP2 MSTORE PUSH1 0x4 ADD PUSH2 0xC13 SWAP1 PUSH2 0x2B42 JUMP JUMPDEST PUSH1 0x40 MLOAD DUP1 SWAP2 SUB SWAP1 REVERT JUMPDEST PUSH1 0x3 PUSH1 0x0 DUP4 PUSH20 0xFFFFFFFFFFFFFFFFFFFFFFFFFFFFFFFFFFFFFFFF AND PUSH20 0xFFFFFFFFFFFFFFFFFFFFFFFFFFFFFFFFFFFFFFFF AND DUP2 MSTORE PUSH1 0x20 ADD SWAP1 DUP2 MSTORE PUSH1 0x20 ADD PUSH1 0x0 KECCAK256 SLOAD SWAP1 POP SWAP2 SWAP1 POP JUMP JUMPDEST PUSH2 0xC6B PUSH2 0x1600 JUMP JUMPDEST PUSH2 0xC75 PUSH1 0x0 PUSH2 0x167E JUMP JUMPDEST JUMP JUMPDEST PUSH1 0x0 PUSH2 0xC81 PUSH2 0x1600 JUMP JUMPDEST PUSH1 0x0 PUSH1 0x8 SLOAD SWAP1 POP PUSH1 0x8 PUSH1 0x0 DUP2 SLOAD DUP1 SWAP3 SWAP2 SWAP1 PUSH2 0xC9B SWAP1 PUSH2 0x2B91 JUMP JUMPDEST SWAP2 SWAP1 POP SSTORE POP PUSH1 0x40 MLOAD DUP1 PUSH1 0xE0 ADD PUSH1 0x40 MSTORE DUP1 DUP12 DUP2 MSTORE PUSH1 0x20 ADD DUP11 DUP2 MSTORE PUSH1 0x20 ADD DUP10 DUP2 MSTORE PUSH1 0x20 ADD DUP9 DUP2 MSTORE PUSH1 0x20 ADD DUP8 DUP2 MSTORE PUSH1 0x20 ADD DUP7 DUP2 MSTORE PUSH1 0x20 ADD DUP6 DUP2 MSTORE POP PUSH1 0x7 PUSH1 0x0 DUP4 DUP2 MSTORE PUSH1 0x20 ADD SWAP1 DUP2 MSTORE PUSH1 0x20 ADD PUSH1 0x0 KECCAK256 PUSH1 0x0 DUP3 ADD MLOAD DUP2 PUSH1 0x0 ADD SWAP1 DUP2 PUSH2 0xCFB SWAP2 SWAP1 PUSH2 0x2D85 JUMP JUMPDEST POP PUSH1 0x20 DUP3 ADD MLOAD DUP2 PUSH1 0x1 ADD SWAP1 DUP2 PUSH2 0xD11 SWAP2 SWAP1 PUSH2 0x2D85 JUMP JUMPDEST POP PUSH1 0x40 DUP3 ADD MLOAD DUP2 PUSH1 0x2 ADD SWAP1 DUP2 PUSH2 0xD27 SWAP2 SWAP1 PUSH2 0x2D85 JUMP JUMPDEST POP PUSH1 0x60 DUP3 ADD MLOAD DUP2 PUSH1 0x3 ADD SWAP1 DUP2 PUSH2 0xD3D SWAP2 SWAP1 PUSH2 0x2D85 JUMP JUMPDEST POP PUSH1 0x80 DUP3 ADD MLOAD DUP2 PUSH1 0x4 ADD SWAP1 DUP2 PUSH2 0xD53 SWAP2 SWAP1 PUSH2 0x2D85 JUMP JUMPDEST POP PUSH1 0xA0 DUP3 ADD MLOAD DUP2 PUSH1 0x5 ADD SWAP1 DUP2 PUSH2 0xD69 SWAP2 SWAP1 PUSH2 0x2D85 JUMP JUMPDEST POP PUSH1 0xC0 DUP3 ADD MLOAD DUP2 PUSH1 0x6 ADD SSTORE SWAP1 POP POP PUSH2 0xD81 DUP4 DUP3 PUSH2 0x1744 JUMP JUMPDEST DUP1 PUSH32 0x874AA2CA5FFC8D2ED8B042E9AF9287B2E03DAB4A96517706AEAFB2CA2F9DD461 DUP12 DUP8 PUSH1 0x40 MLOAD PUSH2 0xDB3 SWAP3 SWAP2 SWAP1 PUSH2 0x2E57 JUMP JUMPDEST PUSH1 0x40 MLOAD DUP1 SWAP2 SUB SWAP1 LOG2 DUP1 SWAP2 POP POP SWAP9 SWAP8 POP POP POP POP POP POP POP POP JUMP JUMPDEST PUSH1 0x0 PUSH1 0x6 PUSH1 0x0 SWAP1 SLOAD SWAP1 PUSH2 0x100 EXP SWAP1 DIV PUSH20 0xFFFFFFFFFFFFFFFFFFFFFFFFFFFFFFFFFFFFFFFF AND SWAP1 POP SWAP1 JUMP JUMPDEST PUSH1 0x60 PUSH1 0x1 DUP1 SLOAD PUSH2 0xE04 SWAP1 PUSH2 0x2811 JUMP JUMPDEST DUP1 PUSH1 0x1F ADD PUSH1 0x20 DUP1 SWAP2 DIV MUL PUSH1 0x20 ADD PUSH1 0x40 MLOAD SWAP1 DUP2 ADD PUSH1 0x40 MSTORE DUP1 SWAP3 SWAP2 SWAP1 DUP2 DUP2 MSTORE PUSH1 0x20 ADD DUP3 DUP1 SLOAD PUSH2 0xE30 SWAP1 PUSH2 0x2811 JUMP JUMPDEST DUP1 ISZERO PUSH2 0xE7D JUMPI DUP1 PUSH1 0x1F LT PUSH2 0xE52 JUMPI PUSH2 0x100 DUP1 DUP4 SLOAD DIV MUL DUP4 MSTORE SWAP2 PUSH1 0x20 ADD SWAP2 PUSH2 0xE7D JUMP JUMPDEST DUP3 ADD SWAP2 SWAP1 PUSH1 0x0 MSTORE PUSH1 0x20 PUSH1 0x0 KECCAK256 SWAP1 JUMPDEST DUP2 SLOAD DUP2 MSTORE SWAP1 PUSH1 0x1 ADD SWAP1 PUSH1 0x20 ADD DUP1 DUP4 GT PUSH2 0xE60 JUMPI DUP3 SWAP1 SUB PUSH1 0x1F AND DUP3 ADD SWAP2 JUMPDEST POP POP POP POP POP SWAP1 POP SWAP1 JUMP JUMPDEST PUSH2 0xE99 PUSH2 0xE92 PUSH2 0x1133 JUMP JUMPDEST DUP4 DUP4 PUSH2 0x1762 JUMP JUMPDEST POP POP JUMP JUMPDEST PUSH2 0xEAE PUSH2 0xEA8 PUSH2 0x1133 JUMP JUMPDEST DUP4 PUSH2 0x11F4 JUMP JUMPDEST PUSH2 0xEED JUMPI PUSH1 0x40 MLOAD PUSH32 0x8C379A000000000000000000000000000000000000000000000000000000000 DUP2 MSTORE PUSH1 0x4 ADD PUSH2 0xEE4 SWAP1 PUSH2 0x29D8 JUMP JUMPDEST PUSH1 0x40 MLOAD DUP1 SWAP2 SUB SWAP1 REVERT JUMPDEST PUSH2 0xEF9 DUP5 DUP5 DUP5 DUP5 PUSH2 0x18CE JUMP JUMPDEST POP POP POP POP JUMP JUMPDEST PUSH1 0x60 PUSH2 0xF0A DUP3 PUSH2 0x10E8 JUMP JUMPDEST PUSH1 0x0 PUSH2 0xF14 PUSH2 0x192A JUMP JUMPDEST SWAP1 POP PUSH1 0x0 DUP2 MLOAD GT PUSH2 0xF34 JUMPI PUSH1 0x40 MLOAD DUP1 PUSH1 0x20 ADD PUSH1 0x40 MSTORE DUP1 PUSH1 0x0 DUP2 MSTORE POP PUSH2 0xF5F JUMP JUMPDEST DUP1 PUSH2 0xF3E DUP5 PUSH2 0x1941 JUMP JUMPDEST PUSH1 0x40 MLOAD PUSH1 0x20 ADD PUSH2 0xF4F SWAP3 SWAP2 SWAP1 PUSH2 0x2ECA JUMP JUMPDEST PUSH1 0x40 MLOAD PUSH1 0x20 DUP2 DUP4 SUB SUB DUP2 MSTORE SWAP1 PUSH1 0x40 MSTORE JUMPDEST SWAP2 POP POP SWAP2 SWAP1 POP JUMP JUMPDEST PUSH1 0x0 PUSH1 0x5 PUSH1 0x0 DUP5 PUSH20 0xFFFFFFFFFFFFFFFFFFFFFFFFFFFFFFFFFFFFFFFF AND PUSH20 0xFFFFFFFFFFFFFFFFFFFFFFFFFFFFFFFFFFFFFFFF AND DUP2 MSTORE PUSH1 0x20 ADD SWAP1 DUP2 MSTORE PUSH1 0x20 ADD PUSH1 0x0 KECCAK256 PUSH1 0x0 DUP4 PUSH20 0xFFFFFFFFFFFFFFFFFFFFFFFFFFFFFFFFFFFFFFFF AND PUSH20 0xFFFFFFFFFFFFFFFFFFFFFFFFFFFFFFFFFFFFFFFF AND DUP2 MSTORE PUSH1 0x20 ADD SWAP1 DUP2 MSTORE PUSH1 0x20 ADD PUSH1 0x0 KECCAK256 PUSH1 0x0 SWAP1 SLOAD SWAP1 PUSH2 0x100 EXP SWAP1 DIV PUSH1 0xFF AND SWAP1 POP SWAP3 SWAP2 POP POP JUMP JUMPDEST PUSH2 0x1003 PUSH2 0x1600 JUMP JUMPDEST PUSH1 0x0 PUSH20 0xFFFFFFFFFFFFFFFFFFFFFFFFFFFFFFFFFFFFFFFF AND DUP2 PUSH20 0xFFFFFFFFFFFFFFFFFFFFFFFFFFFFFFFFFFFFFFFF AND SUB PUSH2 0x1072 JUMPI PUSH1 0x40 MLOAD PUSH32 0x8C379A000000000000000000000000000000000000000000000000000000000 DUP2 MSTORE PUSH1 0x4 ADD PUSH2 0x1069 SWAP1 PUSH2 0x2F60 JUMP JUMPDEST PUSH1 0x40 MLOAD DUP1 SWAP2 SUB SWAP1 REVERT JUMPDEST PUSH2 0x107B DUP2 PUSH2 0x167E JUMP JUMPDEST POP JUMP JUMPDEST PUSH1 0x0 PUSH32 0x1FFC9A700000000000000000000000000000000000000000000000000000000 PUSH28 0xFFFFFFFFFFFFFFFFFFFFFFFFFFFFFFFFFFFFFFFFFFFFFFFFFFFFFFFF NOT AND DUP3 PUSH28 0xFFFFFFFFFFFFFFFFFFFFFFFFFFFFFFFFFFFFFFFFFFFFFFFFFFFFFFFF NOT AND EQ SWAP1 POP SWAP2 SWAP1 POP JUMP JUMPDEST PUSH2 0x10F1 DUP2 PUSH2 0x1582 JUMP JUMPDEST PUSH2 0x1130 JUMPI PUSH1 0x40 MLOAD PUSH32 0x8C379A000000000000000000000000000000000000000000000000000000000 DUP2 MSTORE PUSH1 0x4 ADD PUSH2 0x1127 SWAP1 PUSH2 0x2AB0 JUMP JUMPDEST PUSH1 0x40 MLOAD DUP1 SWAP2 SUB SWAP1 REVERT JUMPDEST POP JUMP JUMPDEST PUSH1 0x0 CALLER SWAP1 POP SWAP1 JUMP JUMPDEST DUP2 PUSH1 0x4 PUSH1 0x0 DUP4 DUP2 MSTORE PUSH1 0x20 ADD SWAP1 DUP2 MSTORE PUSH1 0x20 ADD PUSH1 0x0 KECCAK256 PUSH1 0x0 PUSH2 0x100 EXP DUP2 SLOAD DUP2 PUSH20 0xFFFFFFFFFFFFFFFFFFFFFFFFFFFFFFFFFFFFFFFF MUL NOT AND SWAP1 DUP4 PUSH20 0xFFFFFFFFFFFFFFFFFFFFFFFFFFFFFFFFFFFFFFFF AND MUL OR SWAP1 SSTORE POP DUP1 DUP3 PUSH20 0xFFFFFFFFFFFFFFFFFFFFFFFFFFFFFFFFFFFFFFFF AND PUSH2 0x11AE DUP4 PUSH2 0xB26 JUMP JUMPDEST PUSH20 0xFFFFFFFFFFFFFFFFFFFFFFFFFFFFFFFFFFFFFFFF AND PUSH32 0x8C5BE1E5EBEC7D5BD14F71427D1E84F3DD0314C0F7B2291E5B200AC8C7C3B925 PUSH1 0x40 MLOAD PUSH1 0x40 MLOAD DUP1 SWAP2 SUB SWAP1 LOG4 POP POP JUMP JUMPDEST PUSH1 0x0 DUP1 PUSH2 0x1200 DUP4 PUSH2 0xB26 JUMP JUMPDEST SWAP1 POP DUP1 PUSH20 0xFFFFFFFFFFFFFFFFFFFFFFFFFFFFFFFFFFFFFFFF AND DUP5 PUSH20 0xFFFFFFFFFFFFFFFFFFFFFFFFFFFFFFFFFFFFFFFF AND EQ DUP1 PUSH2 0x1242 JUMPI POP PUSH2 0x1241 DUP2 DUP6 PUSH2 0xF67 JUMP JUMPDEST JUMPDEST DUP1 PUSH2 0x1280 JUMPI POP DUP4 PUSH20 0xFFFFFFFFFFFFFFFFFFFFFFFFFFFFFFFFFFFFFFFF AND PUSH2 0x1268 DUP5 PUSH2 0x521 JUMP JUMPDEST PUSH20 0xFFFFFFFFFFFFFFFFFFFFFFFFFFFFFFFFFFFFFFFF AND EQ JUMPDEST SWAP2 POP POP SWAP3 SWAP2 POP POP JUMP JUMPDEST DUP3 PUSH20 0xFFFFFFFFFFFFFFFFFFFFFFFFFFFFFFFFFFFFFFFF AND PUSH2 0x12A9 DUP3 PUSH2 0xB26 JUMP JUMPDEST PUSH20 0xFFFFFFFFFFFFFFFFFFFFFFFFFFFFFFFFFFFFFFFF AND EQ PUSH2 0x12FF JUMPI PUSH1 0x40 MLOAD PUSH32 0x8C379A000000000000000000000000000000000000000000000000000000000 DUP2 MSTORE PUSH1 0x4 ADD PUSH2 0x12F6 SWAP1 PUSH2 0x2FF2 JUMP JUMPDEST PUSH1 0x40 MLOAD DUP1 SWAP2 SUB SWAP1 REVERT JUMPDEST PUSH1 0x0 PUSH20 0xFFFFFFFFFFFFFFFFFFFFFFFFFFFFFFFFFFFFFFFF AND DUP3 PUSH20 0xFFFFFFFFFFFFFFFFFFFFFFFFFFFFFFFFFFFFFFFF AND SUB PUSH2 0x136E JUMPI PUSH1 0x40 MLOAD PUSH32 0x8C379A000000000000000000000000000000000000000000000000000000000 DUP2 MSTORE PUSH1 0x4 ADD PUSH2 0x1365 SWAP1 PUSH2 0x3084 JUMP JUMPDEST PUSH1 0x40 MLOAD DUP1 SWAP2 SUB SWAP1 REVERT JUMPDEST PUSH2 0x137B DUP4 DUP4 DUP4 PUSH1 0x1 PUSH2 0x1A0F JUMP JUMPDEST DUP3 PUSH20 0xFFFFFFFFFFFFFFFFFFFFFFFFFFFFFFFFFFFFFFFF AND PUSH2 0x139B DUP3 PUSH2 0xB26 JUMP JUMPDEST PUSH20 0xFFFFFFFFFFFFFFFFFFFFFFFFFFFFFFFFFFFFFFFF AND EQ PUSH2 0x13F1 JUMPI PUSH1 0x40 MLOAD PUSH32 0x8C379A000000000000000000000000000000000000000000000000000000000 DUP2 MSTORE PUSH1 0x4 ADD PUSH2 0x13E8 SWAP1 PUSH2 0x2FF2 JUMP JUMPDEST PUSH1 0x40 MLOAD DUP1 SWAP2 SUB SWAP1 REVERT JUMPDEST PUSH1 0x4 PUSH1 0x0 DUP3 DUP2 MSTORE PUSH1 0x20 ADD SWAP1 DUP2 MSTORE PUSH1 0x20 ADD PUSH1 0x0 KECCAK256 PUSH1 0x0 PUSH2 0x100 EXP DUP2 SLOAD SWAP1 PUSH20 0xFFFFFFFFFFFFFFFFFFFFFFFFFFFFFFFFFFFFFFFF MUL NOT AND SWAP1 SSTORE PUSH1 0x1 PUSH1 0x3 PUSH1 0x0 DUP6 PUSH20 0xFFFFFFFFFFFFFFFFFFFFFFFFFFFFFFFFFFFFFFFF AND PUSH20 0xFFFFFFFFFFFFFFFFFFFFFFFFFFFFFFFFFFFFFFFF AND DUP2 MSTORE PUSH1 0x20 ADD SWAP1 DUP2 MSTORE PUSH1 0x20 ADD PUSH1 0x0 KECCAK256 PUSH1 0x0 DUP3 DUP3 SLOAD SUB SWAP3 POP POP DUP2 SWAP1 SSTORE POP PUSH1 0x1 PUSH1 0x3 PUSH1 0x0 DUP5 PUSH20 0xFFFFFFFFFFFFFFFFFFFFFFFFFFFFFFFFFFFFFFFF AND PUSH20 0xFFFFFFFFFFFFFFFFFFFFFFFFFFFFFFFFFFFFFFFF AND DUP2 MSTORE PUSH1 0x20 ADD SWAP1 DUP2 MSTORE PUSH1 0x20 ADD PUSH1 0x0 KECCAK256 PUSH1 0x0 DUP3 DUP3 SLOAD ADD SWAP3 POP POP DUP2 SWAP1 SSTORE POP DUP2 PUSH1 0x2 PUSH1 0x0 DUP4 DUP2 MSTORE PUSH1 0x20 ADD SWAP1 DUP2 MSTORE PUSH1 0x20 ADD PUSH1 0x0 KECCAK256 PUSH1 0x0 PUSH2 0x100 EXP DUP2 SLOAD DUP2 PUSH20 0xFFFFFFFFFFFFFFFFFFFFFFFFFFFFFFFFFFFFFFFF MUL NOT AND SWAP1 DUP4 PUSH20 0xFFFFFFFFFFFFFFFFFFFFFFFFFFFFFFFFFFFFFFFF AND MUL OR SWAP1 SSTORE POP DUP1 DUP3 PUSH20 0xFFFFFFFFFFFFFFFFFFFFFFFFFFFFFFFFFFFFFFFF AND DUP5 PUSH20 0xFFFFFFFFFFFFFFFFFFFFFFFFFFFFFFFFFFFFFFFF AND PUSH32 0xDDF252AD1BE2C89B69C2B068FC378DAA952BA7F163C4A11628F55A4DF523B3EF PUSH1 0x40 MLOAD PUSH1 0x40 MLOAD DUP1 SWAP2 SUB SWAP1 LOG4 PUSH2 0x157D DUP4 DUP4 DUP4 PUSH1 0x1 PUSH2 0x1A15 JUMP JUMPDEST POP POP POP JUMP JUMPDEST PUSH1 0x0 DUP1 PUSH20 0xFFFFFFFFFFFFFFFFFFFFFFFFFFFFFFFFFFFFFFFF AND PUSH2 0x15A4 DUP4 PUSH2 0x15C3 JUMP JUMPDEST PUSH20 0xFFFFFFFFFFFFFFFFFFFFFFFFFFFFFFFFFFFFFFFF AND EQ ISZERO SWAP1 POP SWAP2 SWAP1 POP JUMP JUMPDEST PUSH1 0x0 PUSH1 0x2 PUSH1 0x0 DUP4 DUP2 MSTORE PUSH1 0x20 ADD SWAP1 DUP2 MSTORE PUSH1 0x20 ADD PUSH1 0x0 KECCAK256 PUSH1 0x0 SWAP1 SLOAD SWAP1 PUSH2 0x100 EXP SWAP1 DIV PUSH20 0xFFFFFFFFFFFFFFFFFFFFFFFFFFFFFFFFFFFFFFFF AND SWAP1 POP SWAP2 SWAP1 POP JUMP JUMPDEST PUSH2 0x1608 PUSH2 0x1133 JUMP JUMPDEST PUSH20 0xFFFFFFFFFFFFFFFFFFFFFFFFFFFFFFFFFFFFFFFF AND PUSH2 0x1626 PUSH2 0xDCB JUMP JUMPDEST PUSH20 0xFFFFFFFFFFFFFFFFFFFFFFFFFFFFFFFFFFFFFFFF AND EQ PUSH2 0x167C JUMPI PUSH1 0x40 MLOAD PUSH32 0x8C379A000000000000000000000000000000000000000000000000000000000 DUP2 MSTORE PUSH1 0x4 ADD PUSH2 0x1673 SWAP1 PUSH2 0x30F0 JUMP JUMPDEST PUSH1 0x40 MLOAD DUP1 SWAP2 SUB SWAP1 REVERT JUMPDEST JUMP JUMPDEST PUSH1 0x0 PUSH1 0x6 PUSH1 0x0 SWAP1 SLOAD SWAP1 PUSH2 0x100 EXP SWAP1 DIV PUSH20 0xFFFFFFFFFFFFFFFFFFFFFFFFFFFFFFFFFFFFFFFF AND SWAP1 POP DUP2 PUSH1 0x6 PUSH1 0x0 PUSH2 0x100 EXP DUP2 SLOAD DUP2 PUSH20 0xFFFFFFFFFFFFFFFFFFFFFFFFFFFFFFFFFFFFFFFF MUL NOT AND SWAP1 DUP4 PUSH20 0xFFFFFFFFFFFFFFFFFFFFFFFFFFFFFFFFFFFFFFFF AND MUL OR SWAP1 SSTORE POP DUP2 PUSH20 0xFFFFFFFFFFFFFFFFFFFFFFFFFFFFFFFFFFFFFFFF AND DUP2 PUSH20 0xFFFFFFFFFFFFFFFFFFFFFFFFFFFFFFFFFFFFFFFF AND PUSH32 0x8BE0079C531659141344CD1FD0A4F28419497F9722A3DAAFE3B4186F6B6457E0 PUSH1 0x40 MLOAD PUSH1 0x40 MLOAD DUP1 SWAP2 SUB SWAP1 LOG3 POP POP JUMP JUMPDEST PUSH2 0x175E DUP3 DUP3 PUSH1 0x40 MLOAD DUP1 PUSH1 0x20 ADD PUSH1 0x40 MSTORE DUP1 PUSH1 0x0 DUP2 MSTORE POP PUSH2 0x1A1B JUMP JUMPDEST POP POP JUMP JUMPDEST DUP2 PUSH20 0xFFFFFFFFFFFFFFFFFFFFFFFFFFFFFFFFFFFFFFFF AND DUP4 PUSH20 0xFFFFFFFFFFFFFFFFFFFFFFFFFFFFFFFFFFFFFFFF AND SUB PUSH2 0x17D0 JUMPI PUSH1 0x40 MLOAD PUSH32 0x8C379A000000000000000000000000000000000000000000000000000000000 DUP2 MSTORE PUSH1 0x4 ADD PUSH2 0x17C7 SWAP1 PUSH2 0x315C JUMP JUMPDEST PUSH1 0x40 MLOAD DUP1 SWAP2 SUB SWAP1 REVERT JUMPDEST DUP1 PUSH1 0x5 PUSH1 0x0 DUP6 PUSH20 0xFFFFFFFFFFFFFFFFFFFFFFFFFFFFFFFFFFFFFFFF AND PUSH20 0xFFFFFFFFFFFFFFFFFFFFFFFFFFFFFFFFFFFFFFFF AND DUP2 MSTORE PUSH1 0x20 ADD SWAP1 DUP2 MSTORE PUSH1 0x20 ADD PUSH1 0x0 KECCAK256 PUSH1 0x0 DUP5 PUSH20 0xFFFFFFFFFFFFFFFFFFFFFFFFFFFFFFFFFFFFFFFF AND PUSH20 0xFFFFFFFFFFFFFFFFFFFFFFFFFFFFFFFFFFFFFFFF AND DUP2 MSTORE PUSH1 0x20 ADD SWAP1 DUP2 MSTORE PUSH1 0x20 ADD PUSH1 0x0 KECCAK256 PUSH1 0x0 PUSH2 0x100 EXP DUP2 SLOAD DUP2 PUSH1 0xFF MUL NOT AND SWAP1 DUP4 ISZERO ISZERO MUL OR SWAP1 SSTORE POP DUP2 PUSH20 0xFFFFFFFFFFFFFFFFFFFFFFFFFFFFFFFFFFFFFFFF AND DUP4 PUSH20 0xFFFFFFFFFFFFFFFFFFFFFFFFFFFFFFFFFFFFFFFF AND PUSH32 0x17307EAB39AB6107E8899845AD3D59BD9653F200F220920489CA2B5937696C31 DUP4 PUSH1 0x40 MLOAD PUSH2 0x18C1 SWAP2 SWAP1 PUSH2 0x2044 JUMP JUMPDEST PUSH1 0x40 MLOAD DUP1 SWAP2 SUB SWAP1 LOG3 POP POP POP JUMP JUMPDEST PUSH2 0x18D9 DUP5 DUP5 DUP5 PUSH2 0x1289 JUMP JUMPDEST PUSH2 0x18E5 DUP5 DUP5 DUP5 DUP5 PUSH2 0x1A76 JUMP JUMPDEST PUSH2 0x1924 JUMPI PUSH1 0x40 MLOAD PUSH32 0x8C379A000000000000000000000000000000000000000000000000000000000 DUP2 MSTORE PUSH1 0x4 ADD PUSH2 0x191B SWAP1 PUSH2 0x31EE JUMP JUMPDEST PUSH1 0x40 MLOAD DUP1 SWAP2 SUB SWAP1 REVERT JUMPDEST POP POP POP POP JUMP JUMPDEST PUSH1 0x60 PUSH1 0x40 MLOAD DUP1 PUSH1 0x20 ADD PUSH1 0x40 MSTORE DUP1 PUSH1 0x0 DUP2 MSTORE POP SWAP1 POP SWAP1 JUMP JUMPDEST PUSH1 0x60 PUSH1 0x0 PUSH1 0x1 PUSH2 0x1950 DUP5 PUSH2 0x1BFD JUMP JUMPDEST ADD SWAP1 POP PUSH1 0x0 DUP2 PUSH8 0xFFFFFFFFFFFFFFFF DUP2 GT ISZERO PUSH2 0x196F JUMPI PUSH2 0x196E PUSH2 0x2389 JUMP JUMPDEST JUMPDEST PUSH1 0x40 MLOAD SWAP1 DUP1 DUP3 MSTORE DUP1 PUSH1 0x1F ADD PUSH1 0x1F NOT AND PUSH1 0x20 ADD DUP3 ADD PUSH1 0x40 MSTORE DUP1 ISZERO PUSH2 0x19A1 JUMPI DUP2 PUSH1 0x20 ADD PUSH1 0x1 DUP3 MUL DUP1 CALLDATASIZE DUP4 CALLDATACOPY DUP1 DUP3 ADD SWAP2 POP POP SWAP1 POP JUMPDEST POP SWAP1 POP PUSH1 0x0 DUP3 PUSH1 0x20 ADD DUP3 ADD SWAP1 POP JUMPDEST PUSH1 0x1 ISZERO PUSH2 0x1A04 JUMPI DUP1 DUP1 PUSH1 0x1 SWAP1 SUB SWAP2 POP POP PUSH32 0x3031323334353637383961626364656600000000000000000000000000000000 PUSH1 0xA DUP7 MOD BYTE DUP2 MSTORE8 PUSH1 0xA DUP6 DUP2 PUSH2 0x19F8 JUMPI PUSH2 0x19F7 PUSH2 0x320E JUMP JUMPDEST JUMPDEST DIV SWAP5 POP PUSH1 0x0 DUP6 SUB PUSH2 0x19AF JUMPI JUMPDEST DUP2 SWAP4 POP POP POP POP SWAP2 SWAP1 POP JUMP JUMPDEST POP POP POP POP JUMP JUMPDEST POP POP POP POP JUMP JUMPDEST PUSH2 0x1A25 DUP4 DUP4 PUSH2 0x1D50 JUMP JUMPDEST PUSH2 0x1A32 PUSH1 0x0 DUP5 DUP5 DUP5 PUSH2 0x1A76 JUMP JUMPDEST PUSH2 0x1A71 JUMPI PUSH1 0x40 MLOAD PUSH32 0x8C379A000000000000000000000000000000000000000000000000000000000 DUP2 MSTORE PUSH1 0x4 ADD PUSH2 0x1A68 SWAP1 PUSH2 0x31EE JUMP JUMPDEST PUSH1 0x40 MLOAD DUP1 SWAP2 SUB SWAP1 REVERT JUMPDEST POP POP POP JUMP JUMPDEST PUSH1 0x0 PUSH2 0x1A97 DUP5 PUSH20 0xFFFFFFFFFFFFFFFFFFFFFFFFFFFFFFFFFFFFFFFF AND PUSH2 0x1F6D JUMP JUMPDEST ISZERO PUSH2 0x1BF0 JUMPI DUP4 PUSH20 0xFFFFFFFFFFFFFFFFFFFFFFFFFFFFFFFFFFFFFFFF AND PUSH4 0x150B7A02 PUSH2 0x1AC0 PUSH2 0x1133 JUMP JUMPDEST DUP8 DUP7 DUP7 PUSH1 0x40 MLOAD DUP6 PUSH4 0xFFFFFFFF AND PUSH1 0xE0 SHL DUP2 MSTORE PUSH1 0x4 ADD PUSH2 0x1AE2 SWAP5 SWAP4 SWAP3 SWAP2 SWAP1 PUSH2 0x3292 JUMP JUMPDEST PUSH1 0x20 PUSH1 0x40 MLOAD DUP1 DUP4 SUB DUP2 PUSH1 0x0 DUP8 GAS CALL SWAP3 POP POP POP DUP1 ISZERO PUSH2 0x1B1E JUMPI POP PUSH1 0x40 MLOAD RETURNDATASIZE PUSH1 0x1F NOT PUSH1 0x1F DUP3 ADD AND DUP3 ADD DUP1 PUSH1 0x40 MSTORE POP DUP2 ADD SWAP1 PUSH2 0x1B1B SWAP2 SWAP1 PUSH2 0x32F3 JUMP JUMPDEST PUSH1 0x1 JUMPDEST PUSH2 0x1BA0 JUMPI RETURNDATASIZE DUP1 PUSH1 0x0 DUP2 EQ PUSH2 0x1B4E JUMPI PUSH1 0x40 MLOAD SWAP2 POP PUSH1 0x1F NOT PUSH1 0x3F RETURNDATASIZE ADD AND DUP3 ADD PUSH1 0x40 MSTORE RETURNDATASIZE DUP3 MSTORE RETURNDATASIZE PUSH1 0x0 PUSH1 0x20 DUP5 ADD RETURNDATACOPY PUSH2 0x1B53 JUMP JUMPDEST PUSH1 0x60 SWAP2 POP JUMPDEST POP PUSH1 0x0 DUP2 MLOAD SUB PUSH2 0x1B98 JUMPI PUSH1 0x40 MLOAD PUSH32 0x8C379A000000000000000000000000000000000000000000000000000000000 DUP2 MSTORE PUSH1 0x4 ADD PUSH2 0x1B8F SWAP1 PUSH2 0x31EE JUMP JUMPDEST PUSH1 0x40 MLOAD DUP1 SWAP2 SUB SWAP1 REVERT JUMPDEST DUP1 MLOAD DUP2 PUSH1 0x20 ADD REVERT JUMPDEST PUSH4 0x150B7A02 PUSH1 0xE0 SHL PUSH28 0xFFFFFFFFFFFFFFFFFFFFFFFFFFFFFFFFFFFFFFFFFFFFFFFFFFFFFFFF NOT AND DUP2 PUSH28 0xFFFFFFFFFFFFFFFFFFFFFFFFFFFFFFFFFFFFFFFFFFFFFFFFFFFFFFFF NOT AND EQ SWAP2 POP POP PUSH2 0x1BF5 JUMP JUMPDEST PUSH1 0x1 SWAP1 POP JUMPDEST SWAP5 SWAP4 POP POP POP POP JUMP JUMPDEST PUSH1 0x0 DUP1 PUSH1 0x0 SWAP1 POP PUSH27 0x184F03E93FF9F4DAA797ED6E38ED64BF6A1F010000000000000000 DUP4 LT PUSH2 0x1C5B JUMPI PUSH27 0x184F03E93FF9F4DAA797ED6E38ED64BF6A1F010000000000000000 DUP4 DUP2 PUSH2 0x1C51 JUMPI PUSH2 0x1C50 PUSH2 0x320E JUMP JUMPDEST JUMPDEST DIV SWAP3 POP PUSH1 0x40 DUP2 ADD SWAP1 POP JUMPDEST PUSH14 0x4EE2D6D415B85ACEF8100000000 DUP4 LT PUSH2 0x1C98 JUMPI PUSH14 0x4EE2D6D415B85ACEF8100000000 DUP4 DUP2 PUSH2 0x1C8E JUMPI PUSH2 0x1C8D PUSH2 0x320E JUMP JUMPDEST JUMPDEST DIV SWAP3 POP PUSH1 0x20 DUP2 ADD SWAP1 POP JUMPDEST PUSH7 0x2386F26FC10000 DUP4 LT PUSH2 0x1CC7 JUMPI PUSH7 0x2386F26FC10000 DUP4 DUP2 PUSH2 0x1CBD JUMPI PUSH2 0x1CBC PUSH2 0x320E JUMP JUMPDEST JUMPDEST DIV SWAP3 POP PUSH1 0x10 DUP2 ADD SWAP1 POP JUMPDEST PUSH4 0x5F5E100 DUP4 LT PUSH2 0x1CF0 JUMPI PUSH4 0x5F5E100 DUP4 DUP2 PUSH2 0x1CE6 JUMPI PUSH2 0x1CE5 PUSH2 0x320E JUMP JUMPDEST JUMPDEST DIV SWAP3 POP PUSH1 0x8 DUP2 ADD SWAP1 POP JUMPDEST PUSH2 0x2710 DUP4 LT PUSH2 0x1D15 JUMPI PUSH2 0x2710 DUP4 DUP2 PUSH2 0x1D0B JUMPI PUSH2 0x1D0A PUSH2 0x320E JUMP JUMPDEST JUMPDEST DIV SWAP3 POP PUSH1 0x4 DUP2 ADD SWAP1 POP JUMPDEST PUSH1 0x64 DUP4 LT PUSH2 0x1D38 JUMPI PUSH1 0x64 DUP4 DUP2 PUSH2 0x1D2E JUMPI PUSH2 0x1D2D PUSH2 0x320E JUMP JUMPDEST JUMPDEST DIV SWAP3 POP PUSH1 0x2 DUP2 ADD SWAP1 POP JUMPDEST PUSH1 0xA DUP4 LT PUSH2 0x1D47 JUMPI PUSH1 0x1 DUP2 ADD SWAP1 POP JUMPDEST DUP1 SWAP2 POP POP SWAP2 SWAP1 POP JUMP JUMPDEST PUSH1 0x0 PUSH20 0xFFFFFFFFFFFFFFFFFFFFFFFFFFFFFFFFFFFFFFFF AND DUP3 PUSH20 0xFFFFFFFFFFFFFFFFFFFFFFFFFFFFFFFFFFFFFFFF AND SUB PUSH2 0x1DBF JUMPI PUSH1 0x40 MLOAD PUSH32 0x8C379A000000000000000000000000000000000000000000000000000000000 DUP2 MSTORE PUSH1 0x4 ADD PUSH2 0x1DB6 SWAP1 PUSH2 0x336C JUMP JUMPDEST PUSH1 0x40 MLOAD DUP1 SWAP2 SUB SWAP1 REVERT JUMPDEST PUSH2 0x1DC8 DUP2 PUSH2 0x1582 JUMP JUMPDEST ISZERO PUSH2 0x1E08 JUMPI PUSH1 0x40 MLOAD PUSH32 0x8C379A000000000000000000000000000000000000000000000000000000000 DUP2 MSTORE PUSH1 0x4 ADD PUSH2 0x1DFF SWAP1 PUSH2 0x33D8 JUMP JUMPDEST PUSH1 0x40 MLOAD DUP1 SWAP2 SUB SWAP1 REVERT JUMPDEST PUSH2 0x1E16 PUSH1 0x0 DUP4 DUP4 PUSH1 0x1 PUSH2 0x1A0F JUMP JUMPDEST PUSH2 0x1E1F DUP2 PUSH2 0x1582 JUMP JUMPDEST ISZERO PUSH2 0x1E5F JUMPI PUSH1 0x40 MLOAD PUSH32 0x8C379A000000000000000000000000000000000000000000000000000000000 DUP2 MSTORE PUSH1 0x4 ADD PUSH2 0x1E56 SWAP1 PUSH2 0x33D8 JUMP JUMPDEST PUSH1 0x40 MLOAD DUP1 SWAP2 SUB SWAP1 REVERT JUMPDEST PUSH1 0x1 PUSH1 0x3 PUSH1 0x0 DUP5 PUSH20 0xFFFFFFFFFFFFFFFFFFFFFFFFFFFFFFFFFFFFFFFF AND PUSH20 0xFFFFFFFFFFFFFFFFFFFFFFFFFFFFFFFFFFFFFFFF AND DUP2 MSTORE PUSH1 0x20 ADD SWAP1 DUP2 MSTORE PUSH1 0x20 ADD PUSH1 0x0 KECCAK256 PUSH1 0x0 DUP3 DUP3 SLOAD ADD SWAP3 POP POP DUP2 SWAP1 SSTORE POP DUP2 PUSH1 0x2 PUSH1 0x0 DUP4 DUP2 MSTORE PUSH1 0x20 ADD SWAP1 DUP2 MSTORE PUSH1 0x20 ADD PUSH1 0x0 KECCAK256 PUSH1 0x0 PUSH2 0x100 EXP DUP2 SLOAD DUP2 PUSH20 0xFFFFFFFFFFFFFFFFFFFFFFFFFFFFFFFFFFFFFFFF MUL NOT AND SWAP1 DUP4 PUSH20 0xFFFFFFFFFFFFFFFFFFFFFFFFFFFFFFFFFFFFFFFF AND MUL OR SWAP1 SSTORE POP DUP1 DUP3 PUSH20 0xFFFFFFFFFFFFFFFFFFFFFFFFFFFFFFFFFFFFFFFF AND PUSH1 0x0 PUSH20 0xFFFFFFFFFFFFFFFFFFFFFFFFFFFFFFFFFFFFFFFF AND PUSH32 0xDDF252AD1BE2C89B69C2B068FC378DAA952BA7F163C4A11628F55A4DF523B3EF PUSH1 0x40 MLOAD PUSH1 0x40 MLOAD DUP1 SWAP2 SUB SWAP1 LOG4 PUSH2 0x1F69 PUSH1 0x0 DUP4 DUP4 PUSH1 0x1 PUSH2 0x1A15 JUMP JUMPDEST POP POP JUMP JUMPDEST PUSH1 0x0 DUP1 DUP3 PUSH20 0xFFFFFFFFFFFFFFFFFFFFFFFFFFFFFFFFFFFFFFFF AND EXTCODESIZE GT SWAP1 POP SWAP2 SWAP1 POP JUMP JUMPDEST PUSH1 0x0 PUSH1 0x40 MLOAD SWAP1 POP SWAP1 JUMP JUMPDEST PUSH1 0x0 DUP1 REVERT JUMPDEST PUSH1 0x0 DUP1 REVERT JUMPDEST PUSH1 0x0 PUSH32 0xFFFFFFFF00000000000000000000000000000000000000000000000000000000 DUP3 AND SWAP1 POP SWAP2 SWAP1 POP JUMP JUMPDEST PUSH2 0x1FD9 DUP2 PUSH2 0x1FA4 JUMP JUMPDEST DUP2 EQ PUSH2 0x1FE4 JUMPI PUSH1 0x0 DUP1 REVERT JUMPDEST POP JUMP JUMPDEST PUSH1 0x0 DUP2 CALLDATALOAD SWAP1 POP PUSH2 0x1FF6 DUP2 PUSH2 0x1FD0 JUMP JUMPDEST SWAP3 SWAP2 POP POP JUMP JUMPDEST PUSH1 0x0 PUSH1 0x20 DUP3 DUP5 SUB SLT ISZERO PUSH2 0x2012 JUMPI PUSH2 0x2011 PUSH2 0x1F9A JUMP JUMPDEST JUMPDEST PUSH1 0x0 PUSH2 0x2020 DUP5 DUP3 DUP6 ADD PUSH2 0x1FE7 JUMP JUMPDEST SWAP2 POP POP SWAP3 SWAP2 POP POP JUMP JUMPDEST PUSH1 0x0 DUP2 ISZERO ISZERO SWAP1 POP SWAP2 SWAP1 POP JUMP JUMPDEST PUSH2 0x203E DUP2 PUSH2 0x2029 JUMP JUMPDEST DUP3 MSTORE POP POP JUMP JUMPDEST PUSH1 0x0 PUSH1 0x20 DUP3 ADD SWAP1 POP PUSH2 0x2059 PUSH1 0x0 DUP4 ADD DUP5 PUSH2 0x2035 JUMP JUMPDEST SWAP3 SWAP2 POP POP JUMP JUMPDEST PUSH1 0x0 DUP2 MLOAD SWAP1 POP SWAP2 SWAP1 POP JUMP JUMPDEST PUSH1 0x0 DUP3 DUP3 MSTORE PUSH1 0x20 DUP3 ADD SWAP1 POP SWAP3 SWAP2 POP POP JUMP JUMPDEST PUSH1 0x0 JUMPDEST DUP4 DUP2 LT ISZERO PUSH2 0x2099 JUMPI DUP1 DUP3 ADD MLOAD DUP2 DUP5 ADD MSTORE PUSH1 0x20 DUP2 ADD SWAP1 POP PUSH2 0x207E JUMP JUMPDEST PUSH1 0x0 DUP5 DUP5 ADD MSTORE POP POP POP POP JUMP JUMPDEST PUSH1 0x0 PUSH1 0x1F NOT PUSH1 0x1F DUP4 ADD AND SWAP1 POP SWAP2 SWAP1 POP JUMP JUMPDEST PUSH1 0x0 PUSH2 0x20C1 DUP3 PUSH2 0x205F JUMP JUMPDEST PUSH2 0x20CB DUP2 DUP6 PUSH2 0x206A JUMP JUMPDEST SWAP4 POP PUSH2 0x20DB DUP2 DUP6 PUSH1 0x20 DUP7 ADD PUSH2 0x207B JUMP JUMPDEST PUSH2 0x20E4 DUP2 PUSH2 0x20A5 JUMP JUMPDEST DUP5 ADD SWAP2 POP POP SWAP3 SWAP2 POP POP JUMP JUMPDEST PUSH1 0x0 PUSH1 0x20 DUP3 ADD SWAP1 POP DUP2 DUP2 SUB PUSH1 0x0 DUP4 ADD MSTORE PUSH2 0x2109 DUP2 DUP5 PUSH2 0x20B6 JUMP JUMPDEST SWAP1 POP SWAP3 SWAP2 POP POP JUMP JUMPDEST PUSH1 0x0 DUP2 SWAP1 POP SWAP2 SWAP1 POP JUMP JUMPDEST PUSH2 0x2124 DUP2 PUSH2 0x2111 JUMP JUMPDEST DUP2 EQ PUSH2 0x212F JUMPI PUSH1 0x0 DUP1 REVERT JUMPDEST POP JUMP JUMPDEST PUSH1 0x0 DUP2 CALLDATALOAD SWAP1 POP PUSH2 0x2141 DUP2 PUSH2 0x211B JUMP JUMPDEST SWAP3 SWAP2 POP POP JUMP JUMPDEST PUSH1 0x0 PUSH1 0x20 DUP3 DUP5 SUB SLT ISZERO PUSH2 0x215D JUMPI PUSH2 0x215C PUSH2 0x1F9A JUMP JUMPDEST JUMPDEST PUSH1 0x0 PUSH2 0x216B DUP5 DUP3 DUP6 ADD PUSH2 0x2132 JUMP JUMPDEST SWAP2 POP POP SWAP3 SWAP2 POP POP JUMP JUMPDEST PUSH1 0x0 PUSH20 0xFFFFFFFFFFFFFFFFFFFFFFFFFFFFFFFFFFFFFFFF DUP3 AND SWAP1 POP SWAP2 SWAP1 POP JUMP JUMPDEST PUSH1 0x0 PUSH2 0x219F DUP3 PUSH2 0x2174 JUMP JUMPDEST SWAP1 POP SWAP2 SWAP1 POP JUMP JUMPDEST PUSH2 0x21AF DUP2 PUSH2 0x2194 JUMP JUMPDEST DUP3 MSTORE POP POP JUMP JUMPDEST PUSH1 0x0 PUSH1 0x20 DUP3 ADD SWAP1 POP PUSH2 0x21CA PUSH1 0x0 DUP4 ADD DUP5 PUSH2 0x21A6 JUMP JUMPDEST SWAP3 SWAP2 POP POP JUMP JUMPDEST PUSH2 0x21D9 DUP2 PUSH2 0x2194 JUMP JUMPDEST DUP2 EQ PUSH2 0x21E4 JUMPI PUSH1 0x0 DUP1 REVERT JUMPDEST POP JUMP JUMPDEST PUSH1 0x0 DUP2 CALLDATALOAD SWAP1 POP PUSH2 0x21F6 DUP2 PUSH2 0x21D0 JUMP JUMPDEST SWAP3 SWAP2 POP POP JUMP JUMPDEST PUSH1 0x0 DUP1 PUSH1 0x40 DUP4 DUP6 SUB SLT ISZERO PUSH2 0x2213 JUMPI PUSH2 0x2212 PUSH2 0x1F9A JUMP JUMPDEST JUMPDEST PUSH1 0x0 PUSH2 0x2221 DUP6 DUP3 DUP7 ADD PUSH2 0x21E7 JUMP JUMPDEST SWAP3 POP POP PUSH1 0x20 PUSH2 0x2232 DUP6 DUP3 DUP7 ADD PUSH2 0x2132 JUMP JUMPDEST SWAP2 POP POP SWAP3 POP SWAP3 SWAP1 POP JUMP JUMPDEST PUSH1 0x0 DUP1 PUSH1 0x0 PUSH1 0x60 DUP5 DUP7 SUB SLT ISZERO PUSH2 0x2255 JUMPI PUSH2 0x2254 PUSH2 0x1F9A JUMP JUMPDEST JUMPDEST PUSH1 0x0 PUSH2 0x2263 DUP7 DUP3 DUP8 ADD PUSH2 0x21E7 JUMP JUMPDEST SWAP4 POP POP PUSH1 0x20 PUSH2 0x2274 DUP7 DUP3 DUP8 ADD PUSH2 0x21E7 JUMP JUMPDEST SWAP3 POP POP PUSH1 0x40 PUSH2 0x2285 DUP7 DUP3 DUP8 ADD PUSH2 0x2132 JUMP JUMPDEST SWAP2 POP POP SWAP3 POP SWAP3 POP SWAP3 JUMP JUMPDEST PUSH2 0x2298 DUP2 PUSH2 0x2111 JUMP JUMPDEST DUP3 MSTORE POP POP JUMP JUMPDEST PUSH1 0x0 PUSH1 0xE0 DUP3 ADD SWAP1 POP DUP2 DUP2 SUB PUSH1 0x0 DUP4 ADD MSTORE PUSH2 0x22B8 DUP2 DUP11 PUSH2 0x20B6 JUMP JUMPDEST SWAP1 POP DUP2 DUP2 SUB PUSH1 0x20 DUP4 ADD MSTORE PUSH2 0x22CC DUP2 DUP10 PUSH2 0x20B6 JUMP JUMPDEST SWAP1 POP DUP2 DUP2 SUB PUSH1 0x40 DUP4 ADD MSTORE PUSH2 0x22E0 DUP2 DUP9 PUSH2 0x20B6 JUMP JUMPDEST SWAP1 POP DUP2 DUP2 SUB PUSH1 0x60 DUP4 ADD MSTORE PUSH2 0x22F4 DUP2 DUP8 PUSH2 0x20B6 JUMP JUMPDEST SWAP1 POP DUP2 DUP2 SUB PUSH1 0x80 DUP4 ADD MSTORE PUSH2 0x2308 DUP2 DUP7 PUSH2 0x20B6 JUMP JUMPDEST SWAP1 POP DUP2 DUP2 SUB PUSH1 0xA0 DUP4 ADD MSTORE PUSH2 0x231C DUP2 DUP6 PUSH2 0x20B6 JUMP JUMPDEST SWAP1 POP PUSH2 0x232B PUSH1 0xC0 DUP4 ADD DUP5 PUSH2 0x228F JUMP JUMPDEST SWAP9 SWAP8 POP POP POP POP POP POP POP POP JUMP JUMPDEST PUSH1 0x0 PUSH1 0x20 DUP3 DUP5 SUB SLT ISZERO PUSH2 0x234D JUMPI PUSH2 0x234C PUSH2 0x1F9A JUMP JUMPDEST JUMPDEST PUSH1 0x0 PUSH2 0x235B DUP5 DUP3 DUP6 ADD PUSH2 0x21E7 JUMP JUMPDEST SWAP2 POP POP SWAP3 SWAP2 POP POP JUMP JUMPDEST PUSH1 0x0 PUSH1 0x20 DUP3 ADD SWAP1 POP PUSH2 0x2379 PUSH1 0x0 DUP4 ADD DUP5 PUSH2 0x228F JUMP JUMPDEST SWAP3 SWAP2 POP POP JUMP JUMPDEST PUSH1 0x0 DUP1 REVERT JUMPDEST PUSH1 0x0 DUP1 REVERT JUMPDEST PUSH32 0x4E487B7100000000000000000000000000000000000000000000000000000000 PUSH1 0x0 MSTORE PUSH1 0x41 PUSH1 0x4 MSTORE PUSH1 0x24 PUSH1 0x0 REVERT JUMPDEST PUSH2 0x23C1 DUP3 PUSH2 0x20A5 JUMP JUMPDEST DUP2 ADD DUP2 DUP2 LT PUSH8 0xFFFFFFFFFFFFFFFF DUP3 GT OR ISZERO PUSH2 0x23E0 JUMPI PUSH2 0x23DF PUSH2 0x2389 JUMP JUMPDEST JUMPDEST DUP1 PUSH1 0x40 MSTORE POP POP POP JUMP JUMPDEST PUSH1 0x0 PUSH2 0x23F3 PUSH2 0x1F90 JUMP JUMPDEST SWAP1 POP PUSH2 0x23FF DUP3 DUP3 PUSH2 0x23B8 JUMP JUMPDEST SWAP2 SWAP1 POP JUMP JUMPDEST PUSH1 0x0 PUSH8 0xFFFFFFFFFFFFFFFF DUP3 GT ISZERO PUSH2 0x241F JUMPI PUSH2 0x241E PUSH2 0x2389 JUMP JUMPDEST JUMPDEST PUSH2 0x2428 DUP3 PUSH2 0x20A5 JUMP JUMPDEST SWAP1 POP PUSH1 0x20 DUP2 ADD SWAP1 POP SWAP2 SWAP1 POP JUMP JUMPDEST DUP3 DUP2 DUP4 CALLDATACOPY PUSH1 0x0 DUP4 DUP4 ADD MSTORE POP POP POP JUMP JUMPDEST PUSH1 0x0 PUSH2 0x2457 PUSH2 0x2452 DUP5 PUSH2 0x2404 JUMP JUMPDEST PUSH2 0x23E9 JUMP JUMPDEST SWAP1 POP DUP3 DUP2 MSTORE PUSH1 0x20 DUP2 ADD DUP5 DUP5 DUP5 ADD GT ISZERO PUSH2 0x2473 JUMPI PUSH2 0x2472 PUSH2 0x2384 JUMP JUMPDEST JUMPDEST PUSH2 0x247E DUP5 DUP3 DUP6 PUSH2 0x2435 JUMP JUMPDEST POP SWAP4 SWAP3 POP POP POP JUMP JUMPDEST PUSH1 0x0 DUP3 PUSH1 0x1F DUP4 ADD SLT PUSH2 0x249B JUMPI PUSH2 0x249A PUSH2 0x237F JUMP JUMPDEST JUMPDEST DUP2 CALLDATALOAD PUSH2 0x24AB DUP5 DUP3 PUSH1 0x20 DUP7 ADD PUSH2 0x2444 JUMP JUMPDEST SWAP2 POP POP SWAP3 SWAP2 POP POP JUMP JUMPDEST PUSH1 0x0 DUP1 PUSH1 0x0 DUP1 PUSH1 0x0 DUP1 PUSH1 0x0 DUP1 PUSH2 0x100 DUP10 DUP12 SUB SLT ISZERO PUSH2 0x24D5 JUMPI PUSH2 0x24D4 PUSH2 0x1F9A JUMP JUMPDEST JUMPDEST PUSH1 0x0 DUP10 ADD CALLDATALOAD PUSH8 0xFFFFFFFFFFFFFFFF DUP2 GT ISZERO PUSH2 0x24F3 JUMPI PUSH2 0x24F2 PUSH2 0x1F9F JUMP JUMPDEST JUMPDEST PUSH2 0x24FF DUP12 DUP3 DUP13 ADD PUSH2 0x2486 JUMP JUMPDEST SWAP9 POP POP PUSH1 0x20 DUP10 ADD CALLDATALOAD PUSH8 0xFFFFFFFFFFFFFFFF DUP2 GT ISZERO PUSH2 0x2520 JUMPI PUSH2 0x251F PUSH2 0x1F9F JUMP JUMPDEST JUMPDEST PUSH2 0x252C DUP12 DUP3 DUP13 ADD PUSH2 0x2486 JUMP JUMPDEST SWAP8 POP POP PUSH1 0x40 DUP10 ADD CALLDATALOAD PUSH8 0xFFFFFFFFFFFFFFFF DUP2 GT ISZERO PUSH2 0x254D JUMPI PUSH2 0x254C PUSH2 0x1F9F JUMP JUMPDEST JUMPDEST PUSH2 0x2559 DUP12 DUP3 DUP13 ADD PUSH2 0x2486 JUMP JUMPDEST SWAP7 POP POP PUSH1 0x60 DUP10 ADD CALLDATALOAD PUSH8 0xFFFFFFFFFFFFFFFF DUP2 GT ISZERO PUSH2 0x257A JUMPI PUSH2 0x2579 PUSH2 0x1F9F JUMP JUMPDEST JUMPDEST PUSH2 0x2586 DUP12 DUP3 DUP13 ADD PUSH2 0x2486 JUMP JUMPDEST SWAP6 POP POP PUSH1 0x80 DUP10 ADD CALLDATALOAD PUSH8 0xFFFFFFFFFFFFFFFF DUP2 GT ISZERO PUSH2 0x25A7 JUMPI PUSH2 0x25A6 PUSH2 0x1F9F JUMP JUMPDEST JUMPDEST PUSH2 0x25B3 DUP12 DUP3 DUP13 ADD PUSH2 0x2486 JUMP JUMPDEST SWAP5 POP POP PUSH1 0xA0 DUP10 ADD CALLDATALOAD PUSH8 0xFFFFFFFFFFFFFFFF DUP2 GT ISZERO PUSH2 0x25D4 JUMPI PUSH2 0x25D3 PUSH2 0x1F9F JUMP JUMPDEST JUMPDEST PUSH2 0x25E0 DUP12 DUP3 DUP13 ADD PUSH2 0x2486 JUMP JUMPDEST SWAP4 POP POP PUSH1 0xC0 PUSH2 0x25F1 DUP12 DUP3 DUP13 ADD PUSH2 0x2132 JUMP JUMPDEST SWAP3 POP POP PUSH1 0xE0 PUSH2 0x2602 DUP12 DUP3 DUP13 ADD PUSH2 0x21E7 JUMP JUMPDEST SWAP2 POP POP SWAP3 SWAP6 SWAP9 POP SWAP3 SWAP6 SWAP9 SWAP1 SWAP4 SWAP7 POP JUMP JUMPDEST PUSH2 0x261B DUP2 PUSH2 0x2029 JUMP JUMPDEST DUP2 EQ PUSH2 0x2626 JUMPI PUSH1 0x0 DUP1 REVERT JUMPDEST POP JUMP JUMPDEST PUSH1 0x0 DUP2 CALLDATALOAD SWAP1 POP PUSH2 0x2638 DUP2 PUSH2 0x2612 JUMP JUMPDEST SWAP3 SWAP2 POP POP JUMP JUMPDEST PUSH1 0x0 DUP1 PUSH1 0x40 DUP4 DUP6 SUB SLT ISZERO PUSH2 0x2655 JUMPI PUSH2 0x2654 PUSH2 0x1F9A JUMP JUMPDEST JUMPDEST PUSH1 0x0 PUSH2 0x2663 DUP6 DUP3 DUP7 ADD PUSH2 0x21E7 JUMP JUMPDEST SWAP3 POP POP PUSH1 0x20 PUSH2 0x2674 DUP6 DUP3 DUP7 ADD PUSH2 0x2629 JUMP JUMPDEST SWAP2 POP POP SWAP3 POP SWAP3 SWAP1 POP JUMP JUMPDEST PUSH1 0x0 PUSH8 0xFFFFFFFFFFFFFFFF DUP3 GT ISZERO PUSH2 0x2699 JUMPI PUSH2 0x2698 PUSH2 0x2389 JUMP JUMPDEST JUMPDEST PUSH2 0x26A2 DUP3 PUSH2 0x20A5 JUMP JUMPDEST SWAP1 POP PUSH1 0x20 DUP2 ADD SWAP1 POP SWAP2 SWAP1 POP JUMP JUMPDEST PUSH1 0x0 PUSH2 0x26C2 PUSH2 0x26BD DUP5 PUSH2 0x267E JUMP JUMPDEST PUSH2 0x23E9 JUMP JUMPDEST SWAP1 POP DUP3 DUP2 MSTORE PUSH1 0x20 DUP2 ADD DUP5 DUP5 DUP5 ADD GT ISZERO PUSH2 0x26DE JUMPI PUSH2 0x26DD PUSH2 0x2384 JUMP JUMPDEST JUMPDEST PUSH2 0x26E9 DUP5 DUP3 DUP6 PUSH2 0x2435 JUMP JUMPDEST POP SWAP4 SWAP3 POP POP POP JUMP JUMPDEST PUSH1 0x0 DUP3 PUSH1 0x1F DUP4 ADD SLT PUSH2 0x2706 JUMPI PUSH2 0x2705 PUSH2 0x237F JUMP JUMPDEST JUMPDEST DUP2 CALLDATALOAD PUSH2 0x2716 DUP5 DUP3 PUSH1 0x20 DUP7 ADD PUSH2 0x26AF JUMP JUMPDEST SWAP2 POP POP SWAP3 SWAP2 POP POP JUMP JUMPDEST PUSH1 0x0 DUP1 PUSH1 0x0 DUP1 PUSH1 0x80 DUP6 DUP8 SUB SLT ISZERO PUSH2 0x2739 JUMPI PUSH2 0x2738 PUSH2 0x1F9A JUMP JUMPDEST JUMPDEST PUSH1 0x0 PUSH2 0x2747 DUP8 DUP3 DUP9 ADD PUSH2 0x21E7 JUMP JUMPDEST SWAP5 POP POP PUSH1 0x20 PUSH2 0x2758 DUP8 DUP3 DUP9 ADD PUSH2 0x21E7 JUMP JUMPDEST SWAP4 POP POP PUSH1 0x40 PUSH2 0x2769 DUP8 DUP3 DUP9 ADD PUSH2 0x2132 JUMP JUMPDEST SWAP3 POP POP PUSH1 0x60 DUP6 ADD CALLDATALOAD PUSH8 0xFFFFFFFFFFFFFFFF DUP2 GT ISZERO PUSH2 0x278A JUMPI PUSH2 0x2789 PUSH2 0x1F9F JUMP JUMPDEST JUMPDEST PUSH2 0x2796 DUP8 DUP3 DUP9 ADD PUSH2 0x26F1 JUMP JUMPDEST SWAP2 POP POP SWAP3 SWAP6 SWAP2 SWAP5 POP SWAP3 POP JUMP JUMPDEST PUSH1 0x0 DUP1 PUSH1 0x40 DUP4 DUP6 SUB SLT ISZERO PUSH2 0x27B9 JUMPI PUSH2 0x27B8 PUSH2 0x1F9A JUMP JUMPDEST JUMPDEST PUSH1 0x0 PUSH2 0x27C7 DUP6 DUP3 DUP7 ADD PUSH2 0x21E7 JUMP JUMPDEST SWAP3 POP POP PUSH1 0x20 PUSH2 0x27D8 DUP6 DUP3 DUP7 ADD PUSH2 0x21E7 JUMP JUMPDEST SWAP2 POP POP SWAP3 POP SWAP3 SWAP1 POP JUMP JUMPDEST PUSH32 0x4E487B7100000000000000000000000000000000000000000000000000000000 PUSH1 0x0 MSTORE PUSH1 0x22 PUSH1 0x4 MSTORE PUSH1 0x24 PUSH1 0x0 REVERT JUMPDEST PUSH1 0x0 PUSH1 0x2 DUP3 DIV SWAP1 POP PUSH1 0x1 DUP3 AND DUP1 PUSH2 0x2829 JUMPI PUSH1 0x7F DUP3 AND SWAP2 POP JUMPDEST PUSH1 0x20 DUP3 LT DUP2 SUB PUSH2 0x283C JUMPI PUSH2 0x283B PUSH2 0x27E2 JUMP JUMPDEST JUMPDEST POP SWAP2 SWAP1 POP JUMP JUMPDEST PUSH32 0x4552433732313A20617070726F76616C20746F2063757272656E74206F776E65 PUSH1 0x0 DUP3 ADD MSTORE PUSH32 0x7200000000000000000000000000000000000000000000000000000000000000 PUSH1 0x20 DUP3 ADD MSTORE POP JUMP JUMPDEST PUSH1 0x0 PUSH2 0x289E PUSH1 0x21 DUP4 PUSH2 0x206A JUMP JUMPDEST SWAP2 POP PUSH2 0x28A9 DUP3 PUSH2 0x2842 JUMP JUMPDEST PUSH1 0x40 DUP3 ADD SWAP1 POP SWAP2 SWAP1 POP JUMP JUMPDEST PUSH1 0x0 PUSH1 0x20 DUP3 ADD SWAP1 POP DUP2 DUP2 SUB PUSH1 0x0 DUP4 ADD MSTORE PUSH2 0x28CD DUP2 PUSH2 0x2891 JUMP JUMPDEST SWAP1 POP SWAP2 SWAP1 POP JUMP JUMPDEST PUSH32 0x4552433732313A20617070726F76652063616C6C6572206973206E6F7420746F PUSH1 0x0 DUP3 ADD MSTORE PUSH32 0x6B656E206F776E6572206F7220617070726F76656420666F7220616C6C000000 PUSH1 0x20 DUP3 ADD MSTORE POP JUMP JUMPDEST PUSH1 0x0 PUSH2 0x2930 PUSH1 0x3D DUP4 PUSH2 0x206A JUMP JUMPDEST SWAP2 POP PUSH2 0x293B DUP3 PUSH2 0x28D4 JUMP JUMPDEST PUSH1 0x40 DUP3 ADD SWAP1 POP SWAP2 SWAP1 POP JUMP JUMPDEST PUSH1 0x0 PUSH1 0x20 DUP3 ADD SWAP1 POP DUP2 DUP2 SUB PUSH1 0x0 DUP4 ADD MSTORE PUSH2 0x295F DUP2 PUSH2 0x2923 JUMP JUMPDEST SWAP1 POP SWAP2 SWAP1 POP JUMP JUMPDEST PUSH32 0x4552433732313A2063616C6C6572206973206E6F7420746F6B656E206F776E65 PUSH1 0x0 DUP3 ADD MSTORE PUSH32 0x72206F7220617070726F76656400000000000000000000000000000000000000 PUSH1 0x20 DUP3 ADD MSTORE POP JUMP JUMPDEST PUSH1 0x0 PUSH2 0x29C2 PUSH1 0x2D DUP4 PUSH2 0x206A JUMP JUMPDEST SWAP2 POP PUSH2 0x29CD DUP3 PUSH2 0x2966 JUMP JUMPDEST PUSH1 0x40 DUP3 ADD SWAP1 POP SWAP2 SWAP1 POP JUMP JUMPDEST PUSH1 0x0 PUSH1 0x20 DUP3 ADD SWAP1 POP DUP2 DUP2 SUB PUSH1 0x0 DUP4 ADD MSTORE PUSH2 0x29F1 DUP2 PUSH2 0x29B5 JUMP JUMPDEST SWAP1 POP SWAP2 SWAP1 POP JUMP JUMPDEST PUSH32 0x43617220646F6573206E6F742065786973740000000000000000000000000000 PUSH1 0x0 DUP3 ADD MSTORE POP JUMP JUMPDEST PUSH1 0x0 PUSH2 0x2A2E PUSH1 0x12 DUP4 PUSH2 0x206A JUMP JUMPDEST SWAP2 POP PUSH2 0x2A39 DUP3 PUSH2 0x29F8 JUMP JUMPDEST PUSH1 0x20 DUP3 ADD SWAP1 POP SWAP2 SWAP1 POP JUMP JUMPDEST PUSH1 0x0 PUSH1 0x20 DUP3 ADD SWAP1 POP DUP2 DUP2 SUB PUSH1 0x0 DUP4 ADD MSTORE PUSH2 0x2A5D DUP2 PUSH2 0x2A21 JUMP JUMPDEST SWAP1 POP SWAP2 SWAP1 POP JUMP JUMPDEST PUSH32 0x4552433732313A20696E76616C696420746F6B656E2049440000000000000000 PUSH1 0x0 DUP3 ADD MSTORE POP JUMP JUMPDEST PUSH1 0x0 PUSH2 0x2A9A PUSH1 0x18 DUP4 PUSH2 0x206A JUMP JUMPDEST SWAP2 POP PUSH2 0x2AA5 DUP3 PUSH2 0x2A64 JUMP JUMPDEST PUSH1 0x20 DUP3 ADD SWAP1 POP SWAP2 SWAP1 POP JUMP JUMPDEST PUSH1 0x0 PUSH1 0x20 DUP3 ADD SWAP1 POP DUP2 DUP2 SUB PUSH1 0x0 DUP4 ADD MSTORE PUSH2 0x2AC9 DUP2 PUSH2 0x2A8D JUMP JUMPDEST SWAP1 POP SWAP2 SWAP1 POP JUMP JUMPDEST PUSH32 0x4552433732313A2061646472657373207A65726F206973206E6F742061207661 PUSH1 0x0 DUP3 ADD MSTORE PUSH32 0x6C6964206F776E65720000000000000000000000000000000000000000000000 PUSH1 0x20 DUP3 ADD MSTORE POP JUMP JUMPDEST PUSH1 0x0 PUSH2 0x2B2C PUSH1 0x29 DUP4 PUSH2 0x206A JUMP JUMPDEST SWAP2 POP PUSH2 0x2B37 DUP3 PUSH2 0x2AD0 JUMP JUMPDEST PUSH1 0x40 DUP3 ADD SWAP1 POP SWAP2 SWAP1 POP JUMP JUMPDEST PUSH1 0x0 PUSH1 0x20 DUP3 ADD SWAP1 POP DUP2 DUP2 SUB PUSH1 0x0 DUP4 ADD MSTORE PUSH2 0x2B5B DUP2 PUSH2 0x2B1F JUMP JUMPDEST SWAP1 POP SWAP2 SWAP1 POP JUMP JUMPDEST PUSH32 0x4E487B7100000000000000000000000000000000000000000000000000000000 PUSH1 0x0 MSTORE PUSH1 0x11 PUSH1 0x4 MSTORE PUSH1 0x24 PUSH1 0x0 REVERT JUMPDEST PUSH1 0x0 PUSH2 0x2B9C DUP3 PUSH2 0x2111 JUMP JUMPDEST SWAP2 POP PUSH32 0xFFFFFFFFFFFFFFFFFFFFFFFFFFFFFFFFFFFFFFFFFFFFFFFFFFFFFFFFFFFFFFFF DUP3 SUB PUSH2 0x2BCE JUMPI PUSH2 0x2BCD PUSH2 0x2B62 JUMP JUMPDEST JUMPDEST PUSH1 0x1 DUP3 ADD SWAP1 POP SWAP2 SWAP1 POP JUMP JUMPDEST PUSH1 0x0 DUP2 SWAP1 POP DUP2 PUSH1 0x0 MSTORE PUSH1 0x20 PUSH1 0x0 KECCAK256 SWAP1 POP SWAP2 SWAP1 POP JUMP JUMPDEST PUSH1 0x0 PUSH1 0x20 PUSH1 0x1F DUP4 ADD DIV SWAP1 POP SWAP2 SWAP1 POP JUMP JUMPDEST PUSH1 0x0 DUP3 DUP3 SHL SWAP1 POP SWAP3 SWAP2 POP POP JUMP JUMPDEST PUSH1 0x0 PUSH1 0x8 DUP4 MUL PUSH2 0x2C3B PUSH32 0xFFFFFFFFFFFFFFFFFFFFFFFFFFFFFFFFFFFFFFFFFFFFFFFFFFFFFFFFFFFFFFFF DUP3 PUSH2 0x2BFE JUMP JUMPDEST PUSH2 0x2C45 DUP7 DUP4 PUSH2 0x2BFE JUMP JUMPDEST SWAP6 POP DUP1 NOT DUP5 AND SWAP4 POP DUP1 DUP7 AND DUP5 OR SWAP3 POP POP POP SWAP4 SWAP3 POP POP POP JUMP JUMPDEST PUSH1 0x0 DUP2 SWAP1 POP SWAP2 SWAP1 POP JUMP JUMPDEST PUSH1 0x0 PUSH2 0x2C82 PUSH2 0x2C7D PUSH2 0x2C78 DUP5 PUSH2 0x2111 JUMP JUMPDEST PUSH2 0x2C5D JUMP JUMPDEST PUSH2 0x2111 JUMP JUMPDEST SWAP1 POP SWAP2 SWAP1 POP JUMP JUMPDEST PUSH1 0x0 DUP2 SWAP1 POP SWAP2 SWAP1 POP JUMP JUMPDEST PUSH2 0x2C9C DUP4 PUSH2 0x2C67 JUMP JUMPDEST PUSH2 0x2CB0 PUSH2 0x2CA8 DUP3 PUSH2 0x2C89 JUMP JUMPDEST DUP5 DUP5 SLOAD PUSH2 0x2C0B JUMP JUMPDEST DUP3 SSTORE POP POP POP POP JUMP JUMPDEST PUSH1 0x0 SWAP1 JUMP JUMPDEST PUSH2 0x2CC5 PUSH2 0x2CB8 JUMP JUMPDEST PUSH2 0x2CD0 DUP2 DUP5 DUP5 PUSH2 0x2C93 JUMP JUMPDEST POP POP POP JUMP JUMPDEST JUMPDEST DUP2 DUP2 LT ISZERO PUSH2 0x2CF4 JUMPI PUSH2 0x2CE9 PUSH1 0x0 DUP3 PUSH2 0x2CBD JUMP JUMPDEST PUSH1 0x1 DUP2 ADD SWAP1 POP PUSH2 0x2CD6 JUMP JUMPDEST POP POP JUMP JUMPDEST PUSH1 0x1F DUP3 GT ISZERO PUSH2 0x2D39 JUMPI PUSH2 0x2D0A DUP2 PUSH2 0x2BD9 JUMP JUMPDEST PUSH2 0x2D13 DUP5 PUSH2 0x2BEE JUMP JUMPDEST DUP2 ADD PUSH1 0x20 DUP6 LT ISZERO PUSH2 0x2D22 JUMPI DUP2 SWAP1 POP JUMPDEST PUSH2 0x2D36 PUSH2 0x2D2E DUP6 PUSH2 0x2BEE JUMP JUMPDEST DUP4 ADD DUP3 PUSH2 0x2CD5 JUMP JUMPDEST POP POP JUMPDEST POP POP POP JUMP JUMPDEST PUSH1 0x0 DUP3 DUP3 SHR SWAP1 POP SWAP3 SWAP2 POP POP JUMP JUMPDEST PUSH1 0x0 PUSH2 0x2D5C PUSH1 0x0 NOT DUP5 PUSH1 0x8 MUL PUSH2 0x2D3E JUMP JUMPDEST NOT DUP1 DUP4 AND SWAP2 POP POP SWAP3 SWAP2 POP POP JUMP JUMPDEST PUSH1 0x0 PUSH2 0x2D75 DUP4 DUP4 PUSH2 0x2D4B JUMP JUMPDEST SWAP2 POP DUP3 PUSH1 0x2 MUL DUP3 OR SWAP1 POP SWAP3 SWAP2 POP POP JUMP JUMPDEST PUSH2 0x2D8E DUP3 PUSH2 0x205F JUMP JUMPDEST PUSH8 0xFFFFFFFFFFFFFFFF DUP2 GT ISZERO PUSH2 0x2DA7 JUMPI PUSH2 0x2DA6 PUSH2 0x2389 JUMP JUMPDEST JUMPDEST PUSH2 0x2DB1 DUP3 SLOAD PUSH2 0x2811 JUMP JUMPDEST PUSH2 0x2DBC DUP3 DUP3 DUP6 PUSH2 0x2CF8 JUMP JUMPDEST PUSH1 0x0 PUSH1 0x20 SWAP1 POP PUSH1 0x1F DUP4 GT PUSH1 0x1 DUP2 EQ PUSH2 0x2DEF JUMPI PUSH1 0x0 DUP5 ISZERO PUSH2 0x2DDD JUMPI DUP3 DUP8 ADD MLOAD SWAP1 POP JUMPDEST PUSH2 0x2DE7 DUP6 DUP3 PUSH2 0x2D69 JUMP JUMPDEST DUP7 SSTORE POP PUSH2 0x2E4F JUMP JUMPDEST PUSH1 0x1F NOT DUP5 AND PUSH2 0x2DFD DUP7 PUSH2 0x2BD9 JUMP JUMPDEST PUSH1 0x0 JUMPDEST DUP3 DUP2 LT ISZERO PUSH2 0x2E25 JUMPI DUP5 DUP10 ADD MLOAD DUP3 SSTORE PUSH1 0x1 DUP3 ADD SWAP2 POP PUSH1 0x20 DUP6 ADD SWAP5 POP PUSH1 0x20 DUP2 ADD SWAP1 POP PUSH2 0x2E00 JUMP JUMPDEST DUP7 DUP4 LT ISZERO PUSH2 0x2E42 JUMPI DUP5 DUP10 ADD MLOAD PUSH2 0x2E3E PUSH1 0x1F DUP10 AND DUP3 PUSH2 0x2D4B JUMP JUMPDEST DUP4 SSTORE POP JUMPDEST PUSH1 0x1 PUSH1 0x2 DUP9 MUL ADD DUP9 SSTORE POP POP POP JUMPDEST POP POP POP POP POP POP JUMP JUMPDEST PUSH1 0x0 PUSH1 0x40 DUP3 ADD SWAP1 POP DUP2 DUP2 SUB PUSH1 0x0 DUP4 ADD MSTORE PUSH2 0x2E71 DUP2 DUP6 PUSH2 0x20B6 JUMP JUMPDEST SWAP1 POP DUP2 DUP2 SUB PUSH1 0x20 DUP4 ADD MSTORE PUSH2 0x2E85 DUP2 DUP5 PUSH2 0x20B6 JUMP JUMPDEST SWAP1 POP SWAP4 SWAP3 POP POP POP JUMP JUMPDEST PUSH1 0x0 DUP2 SWAP1 POP SWAP3 SWAP2 POP POP JUMP JUMPDEST PUSH1 0x0 PUSH2 0x2EA4 DUP3 PUSH2 0x205F JUMP JUMPDEST PUSH2 0x2EAE DUP2 DUP6 PUSH2 0x2E8E JUMP JUMPDEST SWAP4 POP PUSH2 0x2EBE DUP2 DUP6 PUSH1 0x20 DUP7 ADD PUSH2 0x207B JUMP JUMPDEST DUP1 DUP5 ADD SWAP2 POP POP SWAP3 SWAP2 POP POP JUMP JUMPDEST PUSH1 0x0 PUSH2 0x2ED6 DUP3 DUP6 PUSH2 0x2E99 JUMP JUMPDEST SWAP2 POP PUSH2 0x2EE2 DUP3 DUP5 PUSH2 0x2E99 JUMP JUMPDEST SWAP2 POP DUP2 SWAP1 POP SWAP4 SWAP3 POP POP POP JUMP JUMPDEST PUSH32 0x4F776E61626C653A206E6577206F776E657220697320746865207A65726F2061 PUSH1 0x0 DUP3 ADD MSTORE PUSH32 0x6464726573730000000000000000000000000000000000000000000000000000 PUSH1 0x20 DUP3 ADD MSTORE POP JUMP JUMPDEST PUSH1 0x0 PUSH2 0x2F4A PUSH1 0x26 DUP4 PUSH2 0x206A JUMP JUMPDEST SWAP2 POP PUSH2 0x2F55 DUP3 PUSH2 0x2EEE JUMP JUMPDEST PUSH1 0x40 DUP3 ADD SWAP1 POP SWAP2 SWAP1 POP JUMP JUMPDEST PUSH1 0x0 PUSH1 0x20 DUP3 ADD SWAP1 POP DUP2 DUP2 SUB PUSH1 0x0 DUP4 ADD MSTORE PUSH2 0x2F79 DUP2 PUSH2 0x2F3D JUMP JUMPDEST SWAP1 POP SWAP2 SWAP1 POP JUMP JUMPDEST PUSH32 0x4552433732313A207472616E736665722066726F6D20696E636F727265637420 PUSH1 0x0 DUP3 ADD MSTORE PUSH32 0x6F776E6572000000000000000000000000000000000000000000000000000000 PUSH1 0x20 DUP3 ADD MSTORE POP JUMP JUMPDEST PUSH1 0x0 PUSH2 0x2FDC PUSH1 0x25 DUP4 PUSH2 0x206A JUMP JUMPDEST SWAP2 POP PUSH2 0x2FE7 DUP3 PUSH2 0x2F80 JUMP JUMPDEST PUSH1 0x40 DUP3 ADD SWAP1 POP SWAP2 SWAP1 POP JUMP JUMPDEST PUSH1 0x0 PUSH1 0x20 DUP3 ADD SWAP1 POP DUP2 DUP2 SUB PUSH1 0x0 DUP4 ADD MSTORE PUSH2 0x300B DUP2 PUSH2 0x2FCF JUMP JUMPDEST SWAP1 POP SWAP2 SWAP1 POP JUMP JUMPDEST PUSH32 0x4552433732313A207472616E7366657220746F20746865207A65726F20616464 PUSH1 0x0 DUP3 ADD MSTORE PUSH32 0x7265737300000000000000000000000000000000000000000000000000000000 PUSH1 0x20 DUP3 ADD MSTORE POP JUMP JUMPDEST PUSH1 0x0 PUSH2 0x306E PUSH1 0x24 DUP4 PUSH2 0x206A JUMP JUMPDEST SWAP2 POP PUSH2 0x3079 DUP3 PUSH2 0x3012 JUMP JUMPDEST PUSH1 0x40 DUP3 ADD SWAP1 POP SWAP2 SWAP1 POP JUMP JUMPDEST PUSH1 0x0 PUSH1 0x20 DUP3 ADD SWAP1 POP DUP2 DUP2 SUB PUSH1 0x0 DUP4 ADD MSTORE PUSH2 0x309D DUP2 PUSH2 0x3061 JUMP JUMPDEST SWAP1 POP SWAP2 SWAP1 POP JUMP JUMPDEST PUSH32 0x4F776E61626C653A2063616C6C6572206973206E6F7420746865206F776E6572 PUSH1 0x0 DUP3 ADD MSTORE POP JUMP JUMPDEST PUSH1 0x0 PUSH2 0x30DA PUSH1 0x20 DUP4 PUSH2 0x206A JUMP JUMPDEST SWAP2 POP PUSH2 0x30E5 DUP3 PUSH2 0x30A4 JUMP JUMPDEST PUSH1 0x20 DUP3 ADD SWAP1 POP SWAP2 SWAP1 POP JUMP JUMPDEST PUSH1 0x0 PUSH1 0x20 DUP3 ADD SWAP1 POP DUP2 DUP2 SUB PUSH1 0x0 DUP4 ADD MSTORE PUSH2 0x3109 DUP2 PUSH2 0x30CD JUMP JUMPDEST SWAP1 POP SWAP2 SWAP1 POP JUMP JUMPDEST PUSH32 0x4552433732313A20617070726F766520746F2063616C6C657200000000000000 PUSH1 0x0 DUP3 ADD MSTORE POP JUMP JUMPDEST PUSH1 0x0 PUSH2 0x3146 PUSH1 0x19 DUP4 PUSH2 0x206A JUMP JUMPDEST SWAP2 POP PUSH2 0x3151 DUP3 PUSH2 0x3110 JUMP JUMPDEST PUSH1 0x20 DUP3 ADD SWAP1 POP SWAP2 SWAP1 POP JUMP JUMPDEST PUSH1 0x0 PUSH1 0x20 DUP3 ADD SWAP1 POP DUP2 DUP2 SUB PUSH1 0x0 DUP4 ADD MSTORE PUSH2 0x3175 DUP2 PUSH2 0x3139 JUMP JUMPDEST SWAP1 POP SWAP2 SWAP1 POP JUMP JUMPDEST PUSH32 0x4552433732313A207472616E7366657220746F206E6F6E204552433732315265 PUSH1 0x0 DUP3 ADD MSTORE PUSH32 0x63656976657220696D706C656D656E7465720000000000000000000000000000 PUSH1 0x20 DUP3 ADD MSTORE POP JUMP JUMPDEST PUSH1 0x0 PUSH2 0x31D8 PUSH1 0x32 DUP4 PUSH2 0x206A JUMP JUMPDEST SWAP2 POP PUSH2 0x31E3 DUP3 PUSH2 0x317C JUMP JUMPDEST PUSH1 0x40 DUP3 ADD SWAP1 POP SWAP2 SWAP1 POP JUMP JUMPDEST PUSH1 0x0 PUSH1 0x20 DUP3 ADD SWAP1 POP DUP2 DUP2 SUB PUSH1 0x0 DUP4 ADD MSTORE PUSH2 0x3207 DUP2 PUSH2 0x31CB JUMP JUMPDEST SWAP1 POP SWAP2 SWAP1 POP JUMP JUMPDEST PUSH32 0x4E487B7100000000000000000000000000000000000000000000000000000000 PUSH1 0x0 MSTORE PUSH1 0x12 PUSH1 0x4 MSTORE PUSH1 0x24 PUSH1 0x0 REVERT JUMPDEST PUSH1 0x0 DUP2 MLOAD SWAP1 POP SWAP2 SWAP1 POP JUMP JUMPDEST PUSH1 0x0 DUP3 DUP3 MSTORE PUSH1 0x20 DUP3 ADD SWAP1 POP SWAP3 SWAP2 POP POP JUMP JUMPDEST PUSH1 0x0 PUSH2 0x3264 DUP3 PUSH2 0x323D JUMP JUMPDEST PUSH2 0x326E DUP2 DUP6 PUSH2 0x3248 JUMP JUMPDEST SWAP4 POP PUSH2 0x327E DUP2 DUP6 PUSH1 0x20 DUP7 ADD PUSH2 0x207B JUMP JUMPDEST PUSH2 0x3287 DUP2 PUSH2 0x20A5 JUMP JUMPDEST DUP5 ADD SWAP2 POP POP SWAP3 SWAP2 POP POP JUMP JUMPDEST PUSH1 0x0 PUSH1 0x80 DUP3 ADD SWAP1 POP PUSH2 0x32A7 PUSH1 0x0 DUP4 ADD DUP8 PUSH2 0x21A6 JUMP JUMPDEST PUSH2 0x32B4 PUSH1 0x20 DUP4 ADD DUP7 PUSH2 0x21A6 JUMP JUMPDEST PUSH2 0x32C1 PUSH1 0x40 DUP4 ADD DUP6 PUSH2 0x228F JUMP JUMPDEST DUP2 DUP2 SUB PUSH1 0x60 DUP4 ADD MSTORE PUSH2 0x32D3 DUP2 DUP5 PUSH2 0x3259 JUMP JUMPDEST SWAP1 POP SWAP6 SWAP5 POP POP POP POP POP JUMP JUMPDEST PUSH1 0x0 DUP2 MLOAD SWAP1 POP PUSH2 0x32ED DUP2 PUSH2 0x1FD0 JUMP JUMPDEST SWAP3 SWAP2 POP POP JUMP JUMPDEST PUSH1 0x0 PUSH1 0x20 DUP3 DUP5 SUB SLT ISZERO PUSH2 0x3309 JUMPI PUSH2 0x3308 PUSH2 0x1F9A JUMP JUMPDEST JUMPDEST PUSH1 0x0 PUSH2 0x3317 DUP5 DUP3 DUP6 ADD PUSH2 0x32DE JUMP JUMPDEST SWAP2 POP POP SWAP3 SWAP2 POP POP JUMP JUMPDEST PUSH32 0x4552433732313A206D696E7420746F20746865207A65726F2061646472657373 PUSH1 0x0 DUP3 ADD MSTORE POP JUMP JUMPDEST PUSH1 0x0 PUSH2 0x3356 PUSH1 0x20 DUP4 PUSH2 0x206A JUMP JUMPDEST SWAP2 POP PUSH2 0x3361 DUP3 PUSH2 0x3320 JUMP JUMPDEST PUSH1 0x20 DUP3 ADD SWAP1 POP SWAP2 SWAP1 POP JUMP JUMPDEST PUSH1 0x0 PUSH1 0x20 DUP3 ADD SWAP1 POP DUP2 DUP2 SUB PUSH1 0x0 DUP4 ADD MSTORE PUSH2 0x3385 DUP2 PUSH2 0x3349 JUMP JUMPDEST SWAP1 POP SWAP2 SWAP1 POP JUMP JUMPDEST PUSH32 0x4552433732313A20746F6B656E20616C7265616479206D696E74656400000000 PUSH1 0x0 DUP3 ADD MSTORE POP JUMP JUMPDEST PUSH1 0x0 PUSH2 0x33C2 PUSH1 0x1C DUP4 PUSH2 0x206A JUMP JUMPDEST SWAP2 POP PUSH2 0x33CD DUP3 PUSH2 0x338C JUMP JUMPDEST PUSH1 0x20 DUP3 ADD SWAP1 POP SWAP2 SWAP1 POP JUMP JUMPDEST PUSH1 0x0 PUSH1 0x20 DUP3 ADD SWAP1 POP DUP2 DUP2 SUB PUSH1 0x0 DUP4 ADD MSTORE PUSH2 0x33F1 DUP2 PUSH2 0x33B5 JUMP JUMPDEST SWAP1 POP SWAP2 SWAP1 POP JUMP INVALID LOG2 PUSH5 0x6970667358 0x22 SLT KECCAK256 DUP13 0xC0 SWAP5 DUP15 0xE DUP12 0xBD DUP14 0xF7 0x2F 0xF6 0xDD DUP1 JUMP SMOD ADD 0x2F PUSH25 0x72644CF845C7B55ADFDA86C0AD5364736F6C63430008110033 "},"methodIdentifiers":{"approve(address,uint256)":"095ea7b3","balanceOf(address)":"70a08231","getApproved(uint256)":"081812fc","getCarDetails(uint256)":"472ec454","isApprovedForAll(address,address)":"e985e9c5","name()":"06fdde03","owner()":"8da5cb5b","ownerOf(uint256)":"6352211e","registerCar(string,string,string,string,string,string,uint256,address)":"8002e22c","renounceOwnership()":"715018a6","safeTransferFrom(address,address,uint256)":"42842e0e","safeTransferFrom(address,address,uint256,bytes)":"b88d4fde","setApprovalForAll(address,bool)":"a22cb465","supportsInterface(bytes4)":"01ffc9a7","symbol()":"95d89b41","tokenURI(uint256)":"c87b56dd","transferFrom(address,address,uint256)":"23b872dd","transferOwnership(address)":"f2fde38b"}}}}}