{
  "_format": "hh-sol-artifact-1",
  "contractName": "ServiceHistory",
  "sourceName": "contracts/ServiceHistory.sol",
  "abi": [
    {
      "inputs": [
        {
          "internalType": "address",
          "name": "_carNFTAddress",
          "type": "address"
        }
      ],
      "stateMutability": "nonpayable",
      "type": "constructor"
    },
    {
      "anonymous": false,
      "inputs": [
        {
          "indexed": true,
          "internalType": "uint256",
          "name": "carId",
          "type": "uint256"
        },
        {
          "indexed": false,
          "internalType": "string",
          "name": "description",
          "type": "string"
        },
        {
          "indexed": false,
          "internalType": "uint256",
          "name": "timestamp",
          "type": "uint256"
        }
      ],
      "name": "AccidentReported",
      "type": "event"
    },
    {
      "anonymous": false,
      "inputs": [
        {
          "indexed": true,
          "internalType": "uint256",
          "name": "carId",
          "type": "uint256"
        },
        {
          "indexed": false,
          "internalType": "string",
          "name": "modification",
          "type": "string"
        },
        {
          "indexed": false,
          "internalType": "uint256",
          "name": "timestamp",
          "type": "uint256"
        }
      ],
      "name": "ModificationAdded",
      "type": "event"
    },
    {
      "anonymous": false,
      "inputs": [
        {
          "indexed": true,
          "internalType": "address",
          "name": "previousOwner",
          "type": "address"
        },
        {
          "indexed": true,
          "internalType": "address",
          "name": "newOwner",
          "type": "address"
        }
      ],
      "name": "OwnershipTransferred",
      "type": "event"
    },
    {
      "anonymous": false,
      "inputs": [
        {
          "indexed": true,
          "internalType": "uint256",
          "name": "carId",
          "type": "uint256"
        },
        {
          "indexed": false,
          "internalType": "string",
          "name": "serviceType",
          "type": "string"
        },
        {
          "indexed": false,
          "internalType": "uint256",
          "name": "timestamp",
          "type": "uint256"
        }
      ],
      "name": "ServiceRecorded",
      "type": "event"
    },
    {
      "inputs": [
        {
          "internalType": "uint256",
          "name": "carId",
          "type": "uint256"
        },
        {
          "internalType": "string",
          "name": "modification",
          "type": "string"
        }
      ],
      "name": "addModification",
      "outputs": [],
      "stateMutability": "nonpayable",
      "type": "function"
    },
    {
      "inputs": [],
      "name": "carNFT",
      "outputs": [
        {
          "internalType": "contract CarNFT",
          "name": "",
          "type": "address"
        }
      ],
      "stateMutability": "view",
      "type": "function"
    },
    {
      "inputs": [
        {
          "internalType": "uint256",
          "name": "carId",
          "type": "uint256"
        }
      ],
      "name": "getModifications",
      "outputs": [
        {
          "internalType": "string[]",
          "name": "",
          "type": "string[]"
        }
      ],
      "stateMutability": "view",
      "type": "function"
    },
    {
      "inputs": [
        {
          "internalType": "uint256",
          "name": "carId",
          "type": "uint256"
        }
      ],
      "name": "getServiceHistory",
      "outputs": [
        {
          "components": [
            {
              "internalType": "uint256",
              "name": "timestamp",
              "type": "uint256"
            },
            {
              "internalType": "string",
              "name": "serviceType",
              "type": "string"
            },
            {
              "internalType": "string",
              "name": "description",
              "type": "string"
            },
            {
              "internalType": "string",
              "name": "serviceProvider",
              "type": "string"
            },
            {
              "internalType": "uint256",
              "name": "mileage",
              "type": "uint256"
            },
            {
              "internalType": "string[]",
              "name": "partsReplaced",
              "type": "string[]"
            }
          ],
          "internalType": "struct ServiceHistory.ServiceRecord[]",
          "name": "",
          "type": "tuple[]"
        }
      ],
      "stateMutability": "view",
      "type": "function"
    },
    {
      "inputs": [
        {
          "internalType": "uint256",
          "name": "carId",
          "type": "uint256"
        }
      ],
      "name": "hasAccidentHistory",
      "outputs": [
        {
          "internalType": "bool",
          "name": "",
          "type": "bool"
        }
      ],
      "stateMutability": "view",
      "type": "function"
    },
    {
      "inputs": [],
      "name": "owner",
      "outputs": [
        {
          "internalType": "address",
          "name": "",
          "type": "address"
        }
      ],
      "stateMutability": "view",
      "type": "function"
    },
    {
      "inputs": [
        {
          "internalType": "uint256",
          "name": "carId",
          "type": "uint256"
        },
        {
          "internalType": "string",
          "name": "serviceType",
          "type": "string"
        },
        {
          "internalType": "string",
          "name": "description",
          "type": "string"
        },
        {
          "internalType": "string",
          "name": "serviceProvider",
          "type": "string"
        },
        {
          "internalType": "uint256",
          "name": "mileage",
          "type": "uint256"
        },
        {
          "internalType": "string[]",
          "name": "partsReplaced",
          "type": "string[]"
        }
      ],
      "name": "recordService",
      "outputs": [],
      "stateMutability": "nonpayable",
      "type": "function"
    },
    {
      "inputs": [],
      "name": "renounceOwnership",
      "outputs": [],
      "stateMutability": "nonpayable",
      "type": "function"
    },
    {
      "inputs": [
        {
          "internalType": "uint256",
          "name": "carId",
          "type": "uint256"
        },
        {
          "internalType": "string",
          "name": "description",
          "type": "string"
        }
      ],
      "name": "reportAccident",
      "outputs": [],
      "stateMutability": "nonpayable",
      "type": "function"
    },
    {
      "inputs": [
        {
          "internalType": "address",
          "name": "newOwner",
          "type": "address"
        }
      ],
      "name": "transferOwnership",
      "outputs": [],
      "stateMutability": "nonpayable",
      "type": "function"
    }
  ],
  "bytecode": "0x60806040523480156200001157600080fd5b5060405162001fe338038062001fe38339818101604052810190620000379190620001d5565b620000576200004b6200009f60201b60201c565b620000a760201b60201c565b80600160006101000a81548173ffffffffffffffffffffffffffffffffffffffff021916908373ffffffffffffffffffffffffffffffffffffffff1602179055505062000207565b600033905090565b60008060009054906101000a900473ffffffffffffffffffffffffffffffffffffffff169050816000806101000a81548173ffffffffffffffffffffffffffffffffffffffff021916908373ffffffffffffffffffffffffffffffffffffffff1602179055508173ffffffffffffffffffffffffffffffffffffffff168173ffffffffffffffffffffffffffffffffffffffff167f8be0079c531659141344cd1fd0a4f28419497f9722a3daafe3b4186f6b6457e060405160405180910390a35050565b600080fd5b600073ffffffffffffffffffffffffffffffffffffffff82169050919050565b60006200019d8262000170565b9050919050565b620001af8162000190565b8114620001bb57600080fd5b50565b600081519050620001cf81620001a4565b92915050565b600060208284031215620001ee57620001ed6200016b565b5b6000620001fe84828501620001be565b91505092915050565b611dcc80620002176000396000f3fe608060405234801561001057600080fd5b506004361061009e5760003560e01c8063c4535f4011610066578063c4535f401461015b578063cfdb3c9f14610177578063f14cb00114610193578063f2f17bf5146101af578063f2fde38b146101cd5761009e565b80631e7046b5146100a35780633d26c39c146100d3578063715018a6146101035780638da5cb5b1461010d578063958662781461012b575b600080fd5b6100bd60048036038101906100b89190610e97565b6101e9565b6040516100ca9190611185565b60405180910390f35b6100ed60048036038101906100e89190610e97565b6104fe565b6040516100fa91906111c2565b60405180910390f35b61010b610528565b005b61011561053c565b604051610122919061121e565b60405180910390f35b61014560048036038101906101409190610e97565b610565565b60405161015291906112bf565b60405180910390f35b610175600480360381019061017091906114fc565b610651565b005b610191600480360381019061018c91906115f9565b610880565b005b6101ad60048036038101906101a891906115f9565b610a0d565b005b6101b7610b80565b6040516101c491906116b4565b60405180910390f35b6101e760048036038101906101e291906116fb565b610ba6565b005b606060026000838152602001908152602001600020805480602002602001604051908101604052809291908181526020016000905b828210156104f357838290600052602060002090600602016040518060c00160405290816000820154815260200160018201805461025b90611757565b80601f016020809104026020016040519081016040528092919081815260200182805461028790611757565b80156102d45780601f106102a9576101008083540402835291602001916102d4565b820191906000526020600020905b8154815290600101906020018083116102b757829003601f168201915b505050505081526020016002820180546102ed90611757565b80601f016020809104026020016040519081016040528092919081815260200182805461031990611757565b80156103665780601f1061033b57610100808354040283529160200191610366565b820191906000526020600020905b81548152906001019060200180831161034957829003601f168201915b5050505050815260200160038201805461037f90611757565b80601f01602080910402602001604051908101604052809291908181526020018280546103ab90611757565b80156103f85780601f106103cd576101008083540402835291602001916103f8565b820191906000526020600020905b8154815290600101906020018083116103db57829003601f168201915b505050505081526020016004820154815260200160058201805480602002602001604051908101604052809291908181526020016000905b828210156104dc57838290600052602060002001805461044f90611757565b80601f016020809104026020016040519081016040528092919081815260200182805461047b90611757565b80156104c85780601f1061049d576101008083540402835291602001916104c8565b820191906000526020600020905b8154815290600101906020018083116104ab57829003601f168201915b505050505081526020019060010190610430565b50505050815250508152602001906001019061021e565b505050509050919050565b60006003600083815260200190815260200160002060009054906101000a900460ff169050919050565b610530610c29565b61053a6000610ca7565b565b60008060009054906101000a900473ffffffffffffffffffffffffffffffffffffffff16905090565b606060046000838152602001908152602001600020805480602002602001604051908101604052809291908181526020016000905b828210156106465783829060005260206000200180546105b990611757565b80601f01602080910402602001604051908101604052809291908181526020018280546105e590611757565b80156106325780601f1061060757610100808354040283529160200191610632565b820191906000526020600020905b81548152906001019060200180831161061557829003601f168201915b50505050508152602001906001019061059a565b505050509050919050565b3373ffffffffffffffffffffffffffffffffffffffff16600160009054906101000a900473ffffffffffffffffffffffffffffffffffffffff1673ffffffffffffffffffffffffffffffffffffffff16636352211e886040518263ffffffff1660e01b81526004016106c39190611797565b602060405180830381865afa1580156106e0573d6000803e3d6000fd5b505050506040513d601f19601f8201168201806040525081019061070491906117c7565b73ffffffffffffffffffffffffffffffffffffffff161461075a576040517f08c379a000000000000000000000000000000000000000000000000000000000815260040161075190611877565b60405180910390fd5b60006040518060c00160405280428152602001878152602001868152602001858152602001848152602001838152509050600260008881526020019081526020016000208190806001815401808255809150506001900390600052602060002090600602016000909190919091506000820151816000015560208201518160010190816107e79190611a39565b5060408201518160020190816107fd9190611a39565b5060608201518160030190816108139190611a39565b506080820151816004015560a082015181600501908051906020019061083a929190610d73565b505050867fc83a14cc446bd2b16da6f003276722f342e12d926363e46e2ec0212b09a5e337874260405161086f929190611b44565b60405180910390a250505050505050565b3373ffffffffffffffffffffffffffffffffffffffff16600160009054906101000a900473ffffffffffffffffffffffffffffffffffffffff1673ffffffffffffffffffffffffffffffffffffffff16636352211e846040518263ffffffff1660e01b81526004016108f29190611797565b602060405180830381865afa15801561090f573d6000803e3d6000fd5b505050506040513d601f19601f8201168201806040525081019061093391906117c7565b73ffffffffffffffffffffffffffffffffffffffff1614610989576040517f08c379a000000000000000000000000000000000000000000000000000000000815260040161098090611be6565b60405180910390fd5b60046000838152602001908152602001600020819080600181540180825580915050600190039060005260206000200160009091909190915090816109ce9190611a39565b50817f6bf4c59f897adaacfc748a1d4d3bd6f5a2ef13597d97e4bb27b83ab54ae5415b8242604051610a01929190611b44565b60405180910390a25050565b3373ffffffffffffffffffffffffffffffffffffffff16600160009054906101000a900473ffffffffffffffffffffffffffffffffffffffff1673ffffffffffffffffffffffffffffffffffffffff16636352211e846040518263ffffffff1660e01b8152600401610a7f9190611797565b602060405180830381865afa158015610a9c573d6000803e3d6000fd5b505050506040513d601f19601f82011682018060405250810190610ac091906117c7565b73ffffffffffffffffffffffffffffffffffffffff1614610b16576040517f08c379a0000000000000000000000000000000000000000000000000000000008152600401610b0d90611c78565b60405180910390fd5b60016003600084815260200190815260200160002060006101000a81548160ff021916908315150217905550817f4cb99d0c36137b2227ea7ffa76d6fd3748ac810c2c7f059e0eed0cd2e3bc66c98242604051610b74929190611b44565b60405180910390a25050565b600160009054906101000a900473ffffffffffffffffffffffffffffffffffffffff1681565b610bae610c29565b600073ffffffffffffffffffffffffffffffffffffffff168173ffffffffffffffffffffffffffffffffffffffff1603610c1d576040517f08c379a0000000000000000000000000000000000000000000000000000000008152600401610c1490611d0a565b60405180910390fd5b610c2681610ca7565b50565b610c31610d6b565b73ffffffffffffffffffffffffffffffffffffffff16610c4f61053c565b73ffffffffffffffffffffffffffffffffffffffff1614610ca5576040517f08c379a0000000000000000000000000000000000000000000000000000000008152600401610c9c90611d76565b60405180910390fd5b565b60008060009054906101000a900473ffffffffffffffffffffffffffffffffffffffff169050816000806101000a81548173ffffffffffffffffffffffffffffffffffffffff021916908373ffffffffffffffffffffffffffffffffffffffff1602179055508173ffffffffffffffffffffffffffffffffffffffff168173ffffffffffffffffffffffffffffffffffffffff167f8be0079c531659141344cd1fd0a4f28419497f9722a3daafe3b4186f6b6457e060405160405180910390a35050565b600033905090565b828054828255906000526020600020908101928215610dbb579160200282015b82811115610dba578251829081610daa9190611a39565b5091602001919060010190610d93565b5b509050610dc89190610dcc565b5090565b5b80821115610dec5760008181610de39190610df0565b50600101610dcd565b5090565b508054610dfc90611757565b6000825580601f10610e0e5750610e2d565b601f016020900490600052602060002090810190610e2c9190610e30565b5b50565b5b80821115610e49576000816000905550600101610e31565b5090565b6000604051905090565b600080fd5b600080fd5b6000819050919050565b610e7481610e61565b8114610e7f57600080fd5b50565b600081359050610e9181610e6b565b92915050565b600060208284031215610ead57610eac610e57565b5b6000610ebb84828501610e82565b91505092915050565b600081519050919050565b600082825260208201905092915050565b6000819050602082019050919050565b610ef981610e61565b82525050565b600081519050919050565b600082825260208201905092915050565b60005b83811015610f39578082015181840152602081019050610f1e565b60008484015250505050565b6000601f19601f8301169050919050565b6000610f6182610eff565b610f6b8185610f0a565b9350610f7b818560208601610f1b565b610f8481610f45565b840191505092915050565b600081519050919050565b600082825260208201905092915050565b6000819050602082019050919050565b6000610fc78383610f56565b905092915050565b6000602082019050919050565b6000610fe782610f8f565b610ff18185610f9a565b93508360208202850161100385610fab565b8060005b8581101561103f57848403895281516110208582610fbb565b945061102b83610fcf565b925060208a01995050600181019050611007565b50829750879550505050505092915050565b600060c0830160008301516110696000860182610ef0565b50602083015184820360208601526110818282610f56565b9150506040830151848203604086015261109b8282610f56565b915050606083015184820360608601526110b58282610f56565b91505060808301516110ca6080860182610ef0565b5060a083015184820360a08601526110e28282610fdc565b9150508091505092915050565b60006110fb8383611051565b905092915050565b6000602082019050919050565b600061111b82610ec4565b6111258185610ecf565b93508360208202850161113785610ee0565b8060005b85811015611173578484038952815161115485826110ef565b945061115f83611103565b925060208a0199505060018101905061113b565b50829750879550505050505092915050565b6000602082019050818103600083015261119f8184611110565b905092915050565b60008115159050919050565b6111bc816111a7565b82525050565b60006020820190506111d760008301846111b3565b92915050565b600073ffffffffffffffffffffffffffffffffffffffff82169050919050565b6000611208826111dd565b9050919050565b611218816111fd565b82525050565b6000602082019050611233600083018461120f565b92915050565b600082825260208201905092915050565b600061125582610f8f565b61125f8185611239565b93508360208202850161127185610fab565b8060005b858110156112ad578484038952815161128e8582610fbb565b945061129983610fcf565b925060208a01995050600181019050611275565b50829750879550505050505092915050565b600060208201905081810360008301526112d9818461124a565b905092915050565b600080fd5b600080fd5b7f4e487b7100000000000000000000000000000000000000000000000000000000600052604160045260246000fd5b61132382610f45565b810181811067ffffffffffffffff82111715611342576113416112eb565b5b80604052505050565b6000611355610e4d565b9050611361828261131a565b919050565b600067ffffffffffffffff821115611381576113806112eb565b5b61138a82610f45565b9050602081019050919050565b82818337600083830152505050565b60006113b96113b484611366565b61134b565b9050828152602081018484840111156113d5576113d46112e6565b5b6113e0848285611397565b509392505050565b600082601f8301126113fd576113fc6112e1565b5b813561140d8482602086016113a6565b91505092915050565b600067ffffffffffffffff821115611431576114306112eb565b5b602082029050602081019050919050565b600080fd5b600061145a61145584611416565b61134b565b9050808382526020820190506020840283018581111561147d5761147c611442565b5b835b818110156114c457803567ffffffffffffffff8111156114a2576114a16112e1565b5b8086016114af89826113e8565b8552602085019450505060208101905061147f565b5050509392505050565b600082601f8301126114e3576114e26112e1565b5b81356114f3848260208601611447565b91505092915050565b60008060008060008060c0878903121561151957611518610e57565b5b600061152789828a01610e82565b965050602087013567ffffffffffffffff81111561154857611547610e5c565b5b61155489828a016113e8565b955050604087013567ffffffffffffffff81111561157557611574610e5c565b5b61158189828a016113e8565b945050606087013567ffffffffffffffff8111156115a2576115a1610e5c565b5b6115ae89828a016113e8565b93505060806115bf89828a01610e82565b92505060a087013567ffffffffffffffff8111156115e0576115df610e5c565b5b6115ec89828a016114ce565b9150509295509295509295565b600080604083850312156116105761160f610e57565b5b600061161e85828601610e82565b925050602083013567ffffffffffffffff81111561163f5761163e610e5c565b5b61164b858286016113e8565b9150509250929050565b6000819050919050565b600061167a611675611670846111dd565b611655565b6111dd565b9050919050565b600061168c8261165f565b9050919050565b600061169e82611681565b9050919050565b6116ae81611693565b82525050565b60006020820190506116c960008301846116a5565b92915050565b6116d8816111fd565b81146116e357600080fd5b50565b6000813590506116f5816116cf565b92915050565b60006020828403121561171157611710610e57565b5b600061171f848285016116e6565b91505092915050565b7f4e487b7100000000000000000000000000000000000000000000000000000000600052602260045260246000fd5b6000600282049050600182168061176f57607f821691505b60208210810361178257611781611728565b5b50919050565b61179181610e61565b82525050565b60006020820190506117ac6000830184611788565b92915050565b6000815190506117c1816116cf565b92915050565b6000602082840312156117dd576117dc610e57565b5b60006117eb848285016117b2565b91505092915050565b600082825260208201905092915050565b7f4f6e6c7920636172206f776e65722063616e207265636f72642073657276696360008201527f6500000000000000000000000000000000000000000000000000000000000000602082015250565b60006118616021836117f4565b915061186c82611805565b604082019050919050565b6000602082019050818103600083015261189081611854565b9050919050565b60008190508160005260206000209050919050565b60006020601f8301049050919050565b600082821b905092915050565b6000600883026118f97fffffffffffffffffffffffffffffffffffffffffffffffffffffffffffffffff826118bc565b61190386836118bc565b95508019841693508086168417925050509392505050565b600061193661193161192c84610e61565b611655565b610e61565b9050919050565b6000819050919050565b6119508361191b565b61196461195c8261193d565b8484546118c9565b825550505050565b600090565b61197961196c565b611984818484611947565b505050565b5b818110156119a85761199d600082611971565b60018101905061198a565b5050565b601f8211156119ed576119be81611897565b6119c7846118ac565b810160208510156119d6578190505b6119ea6119e2856118ac565b830182611989565b50505b505050565b600082821c905092915050565b6000611a10600019846008026119f2565b1980831691505092915050565b6000611a2983836119ff565b9150826002028217905092915050565b611a4282610eff565b67ffffffffffffffff811115611a5b57611a5a6112eb565b5b611a658254611757565b611a708282856119ac565b600060209050601f831160018114611aa35760008415611a91578287015190505b611a9b8582611a1d565b865550611b03565b601f198416611ab186611897565b60005b82811015611ad957848901518255600182019150602085019450602081019050611ab4565b86831015611af65784890151611af2601f8916826119ff565b8355505b6001600288020188555050505b505050505050565b6000611b1682610eff565b611b2081856117f4565b9350611b30818560208601610f1b565b611b3981610f45565b840191505092915050565b60006040820190508181036000830152611b5e8185611b0b565b9050611b6d6020830184611788565b9392505050565b7f4f6e6c7920636172206f776e65722063616e20616464206d6f6469666963617460008201527f696f6e0000000000000000000000000000000000000000000000000000000000602082015250565b6000611bd06023836117f4565b9150611bdb82611b74565b604082019050919050565b60006020820190508181036000830152611bff81611bc3565b9050919050565b7f4f6e6c7920636172206f776e65722063616e207265706f72742061636369646560008201527f6e74000000000000000000000000000000000000000000000000000000000000602082015250565b6000611c626022836117f4565b9150611c6d82611c06565b604082019050919050565b60006020820190508181036000830152611c9181611c55565b9050919050565b7f4f776e61626c653a206e6577206f776e657220697320746865207a65726f206160008201527f6464726573730000000000000000000000000000000000000000000000000000602082015250565b6000611cf46026836117f4565b9150611cff82611c98565b604082019050919050565b60006020820190508181036000830152611d2381611ce7565b9050919050565b7f4f776e61626c653a2063616c6c6572206973206e6f7420746865206f776e6572600082015250565b6000611d606020836117f4565b9150611d6b82611d2a565b602082019050919050565b60006020820190508181036000830152611d8f81611d53565b905091905056fea26469706673582212205910ddbef2de8ccdcc0fa806b7edba3ed41c5604eb1cef50ee352377a43dd3fa64736f6c63430008110033",
  "linkReferences": {},
  "deployedLinkReferences": {}
}