{
  "_format": "hh-sol-artifact-1",
  "contractName": "OwnershipTransfer",
  "sourceName": "contracts/OwnershipTransfer.sol",
  "abi": [
    {
      "inputs": [
        {
          "internalType": "address",
          "name": "_carNFTAddress",
          "type": "address"
        }
      ],
      "stateMutability": "nonpayable",
      "type": "constructor"
    },
    {
      "anonymous": false,
      "inputs": [
        {
          "indexed": true,
          "internalType": "address",
          "name": "previousOwner",
          "type": "address"
        },
        {
          "indexed": true,
          "internalType": "address",
          "name": "newOwner",
          "type": "address"
        }
      ],
      "name": "OwnershipTransferred",
      "type": "event"
    },
    {
      "anonymous": false,
      "inputs": [
        {
          "indexed": true,
          "internalType": "uint256",
          "name": "carId",
          "type": "uint256"
        },
        {
          "indexed": true,
          "internalType": "address",
          "name": "from",
          "type": "address"
        },
        {
          "indexed": true,
          "internalType": "address",
          "name": "to",
          "type": "address"
        },
        {
          "indexed": false,
          "internalType": "uint256",
          "name": "timestamp",
          "type": "uint256"
        }
      ],
      "name": "TransferCancelled",
      "type": "event"
    },
    {
      "anonymous": false,
      "inputs": [
        {
          "indexed": true,
          "internalType": "uint256",
          "name": "carId",
          "type": "uint256"
        },
        {
          "indexed": true,
          "internalType": "address",
          "name": "from",
          "type": "address"
        },
        {
          "indexed": true,
          "internalType": "address",
          "name": "to",
          "type": "address"
        },
        {
          "indexed": false,
          "internalType": "uint256",
          "name": "timestamp",
          "type": "uint256"
        }
      ],
      "name": "TransferCompleted",
      "type": "event"
    },
    {
      "anonymous": false,
      "inputs": [
        {
          "indexed": true,
          "internalType": "uint256",
          "name": "carId",
          "type": "uint256"
        },
        {
          "indexed": true,
          "internalType": "address",
          "name": "from",
          "type": "address"
        },
        {
          "indexed": true,
          "internalType": "address",
          "name": "to",
          "type": "address"
        },
        {
          "indexed": false,
          "internalType": "uint256",
          "name": "timestamp",
          "type": "uint256"
        }
      ],
      "name": "TransferInitiated",
      "type": "event"
    },
    {
      "inputs": [
        {
          "internalType": "uint256",
          "name": "carId",
          "type": "uint256"
        }
      ],
      "name": "acceptTransfer",
      "outputs": [],
      "stateMutability": "nonpayable",
      "type": "function"
    },
    {
      "inputs": [
        {
          "internalType": "uint256",
          "name": "carId",
          "type": "uint256"
        }
      ],
      "name": "cancelTransfer",
      "outputs": [],
      "stateMutability": "nonpayable",
      "type": "function"
    },
    {
      "inputs": [],
      "name": "carNFT",
      "outputs": [
        {
          "internalType": "contract CarNFT",
          "name": "",
          "type": "address"
        }
      ],
      "stateMutability": "view",
      "type": "function"
    },
    {
      "inputs": [
        {
          "internalType": "uint256",
          "name": "carId",
          "type": "uint256"
        }
      ],
      "name": "getPendingTransfer",
      "outputs": [
        {
          "internalType": "address",
          "name": "from",
          "type": "address"
        },
        {
          "internalType": "address",
          "name": "to",
          "type": "address"
        },
        {
          "internalType": "uint256",
          "name": "timestamp",
          "type": "uint256"
        },
        {
          "internalType": "string",
          "name": "transferReason",
          "type": "string"
        },
        {
          "internalType": "bool",
          "name": "isActive",
          "type": "bool"
        }
      ],
      "stateMutability": "view",
      "type": "function"
    },
    {
      "inputs": [
        {
          "internalType": "uint256",
          "name": "carId",
          "type": "uint256"
        }
      ],
      "name": "getTransferHistory",
      "outputs": [
        {
          "components": [
            {
              "internalType": "address",
              "name": "from",
              "type": "address"
            },
            {
              "internalType": "address",
              "name": "to",
              "type": "address"
            },
            {
              "internalType": "uint256",
              "name": "timestamp",
              "type": "uint256"
            },
            {
              "internalType": "string",
              "name": "transferReason",
              "type": "string"
            },
            {
              "internalType": "bool",
              "name": "isActive",
              "type": "bool"
            }
          ],
          "internalType": "struct OwnershipTransfer.Transfer[]",
          "name": "",
          "type": "tuple[]"
        }
      ],
      "stateMutability": "view",
      "type": "function"
    },
    {
      "inputs": [
        {
          "internalType": "uint256",
          "name": "carId",
          "type": "uint256"
        },
        {
          "internalType": "address",
          "name": "to",
          "type": "address"
        },
        {
          "internalType": "string",
          "name": "transferReason",
          "type": "string"
        }
      ],
      "name": "initiateTransfer",
      "outputs": [],
      "stateMutability": "nonpayable",
      "type": "function"
    },
    {
      "inputs": [],
      "name": "owner",
      "outputs": [
        {
          "internalType": "address",
          "name": "",
          "type": "address"
        }
      ],
      "stateMutability": "view",
      "type": "function"
    },
    {
      "inputs": [
        {
          "internalType": "uint256",
          "name": "",
          "type": "uint256"
        }
      ],
      "name": "pendingTransfers",
      "outputs": [
        {
          "internalType": "address",
          "name": "from",
          "type": "address"
        },
        {
          "internalType": "address",
          "name": "to",
          "type": "address"
        },
        {
          "internalType": "uint256",
          "name": "timestamp",
          "type": "uint256"
        },
        {
          "internalType": "string",
          "name": "transferReason",
          "type": "string"
        },
        {
          "internalType": "bool",
          "name": "isActive",
          "type": "bool"
        }
      ],
      "stateMutability": "view",
      "type": "function"
    },
    {
      "inputs": [],
      "name": "renounceOwnership",
      "outputs": [],
      "stateMutability": "nonpayable",
      "type": "function"
    },
    {
      "inputs": [
        {
          "internalType": "uint256",
          "name": "",
          "type": "uint256"
        },
        {
          "internalType": "uint256",
          "name": "",
          "type": "uint256"
        }
      ],
      "name": "transferHistory",
      "outputs": [
        {
          "internalType": "address",
          "name": "from",
          "type": "address"
        },
        {
          "internalType": "address",
          "name": "to",
          "type": "address"
        },
        {
          "internalType": "uint256",
          "name": "timestamp",
          "type": "uint256"
        },
        {
          "internalType": "string",
          "name": "transferReason",
          "type": "string"
        },
        {
          "internalType": "bool",
          "name": "isActive",
          "type": "bool"
        }
      ],
      "stateMutability": "view",
      "type": "function"
    },
    {
      "inputs": [
        {
          "internalType": "address",
          "name": "newOwner",
          "type": "address"
        }
      ],
      "name": "transferOwnership",
      "outputs": [],
      "stateMutability": "nonpayable",
      "type": "function"
    }
  ],
  "bytecode": "0x60806040523480156200001157600080fd5b506040516200260c3803806200260c8339818101604052810190620000379190620001d5565b620000576200004b6200009f60201b60201c565b620000a760201b60201c565b80600160006101000a81548173ffffffffffffffffffffffffffffffffffffffff021916908373ffffffffffffffffffffffffffffffffffffffff1602179055505062000207565b600033905090565b60008060009054906101000a900473ffffffffffffffffffffffffffffffffffffffff169050816000806101000a81548173ffffffffffffffffffffffffffffffffffffffff021916908373ffffffffffffffffffffffffffffffffffffffff1602179055508173ffffffffffffffffffffffffffffffffffffffff168173ffffffffffffffffffffffffffffffffffffffff167f8be0079c531659141344cd1fd0a4f28419497f9722a3daafe3b4186f6b6457e060405160405180910390a35050565b600080fd5b600073ffffffffffffffffffffffffffffffffffffffff82169050919050565b60006200019d8262000170565b9050919050565b620001af8162000190565b8114620001bb57600080fd5b50565b600081519050620001cf81620001a4565b92915050565b600060208284031215620001ee57620001ed6200016b565b5b6000620001fe84828501620001be565b91505092915050565b6123f580620002176000396000f3fe608060405234801561001057600080fd5b50600436106100a95760003560e01c80638bb27d02116100715780638bb27d02146101405780638da5cb5b14610170578063dedaff541461018e578063f2f17bf5146101c2578063f2fde38b146101e0578063f91a7b89146101fc576100a9565b8063274fae7c146100ae57806359caecb5146100ca5780636577b86a146100e6578063715018a61461011a5780637b53d28814610124575b600080fd5b6100c860048036038101906100c391906116ac565b610230565b005b6100e460048036038101906100df91906116ac565b61070d565b005b61010060048036038101906100fb91906116ac565b610a84565b6040516101119594939291906117d4565b60405180910390f35b610122610b8f565b005b61013e6004803603810190610139919061198f565b610ba3565b005b61015a600480360381019061015591906116ac565b610f32565b6040516101679190611bad565b60405180910390f35b610178611107565b6040516101859190611bcf565b60405180910390f35b6101a860048036038101906101a39190611bea565b611130565b6040516101b99594939291906117d4565b60405180910390f35b6101ca611258565b6040516101d79190611c89565b60405180910390f35b6101fa60048036038101906101f59190611ca4565b61127e565b005b610216600480360381019061021191906116ac565b611301565b6040516102279594939291906117d4565b60405180910390f35b6000600360008381526020019081526020016000206040518060a00160405290816000820160009054906101000a900473ffffffffffffffffffffffffffffffffffffffff1673ffffffffffffffffffffffffffffffffffffffff1673ffffffffffffffffffffffffffffffffffffffff1681526020016001820160009054906101000a900473ffffffffffffffffffffffffffffffffffffffff1673ffffffffffffffffffffffffffffffffffffffff1673ffffffffffffffffffffffffffffffffffffffff1681526020016002820154815260200160038201805461031690611d00565b80601f016020809104026020016040519081016040528092919081815260200182805461034290611d00565b801561038f5780601f106103645761010080835404028352916020019161038f565b820191906000526020600020905b81548152906001019060200180831161037257829003601f168201915b505050505081526020016004820160009054906101000a900460ff161515151581525050905080608001516103f9576040517f08c379a00000000000000000000000000000000000000000000000000000000081526004016103f090611d7d565b60405180910390fd5b3373ffffffffffffffffffffffffffffffffffffffff16816020015173ffffffffffffffffffffffffffffffffffffffff161461046b576040517f08c379a000000000000000000000000000000000000000000000000000000000815260040161046290611de9565b60405180910390fd5b600081600001519050600160009054906101000a900473ffffffffffffffffffffffffffffffffffffffff1673ffffffffffffffffffffffffffffffffffffffff166323b872dd8233866040518463ffffffff1660e01b81526004016104d393929190611e09565b600060405180830381600087803b1580156104ed57600080fd5b505af1158015610501573d6000803e3d6000fd5b505050506002600084815260200190815260200160002082908060018154018082558091505060019003906000526020600020906005020160009091909190915060008201518160000160006101000a81548173ffffffffffffffffffffffffffffffffffffffff021916908373ffffffffffffffffffffffffffffffffffffffff16021790555060208201518160010160006101000a81548173ffffffffffffffffffffffffffffffffffffffff021916908373ffffffffffffffffffffffffffffffffffffffff1602179055506040820151816002015560608201518160030190816105ef9190611fe2565b5060808201518160040160006101000a81548160ff021916908315150217905550505060036000848152602001908152602001600020600080820160006101000a81549073ffffffffffffffffffffffffffffffffffffffff02191690556001820160006101000a81549073ffffffffffffffffffffffffffffffffffffffff0219169055600282016000905560038201600061068c9190611605565b6004820160006101000a81549060ff021916905550503373ffffffffffffffffffffffffffffffffffffffff168173ffffffffffffffffffffffffffffffffffffffff16847ff1b289f30d1499938643326e8dad1060509095ff97a300b4a36a9f0771c29e944260405161070091906120b4565b60405180910390a4505050565b6000600360008381526020019081526020016000206040518060a00160405290816000820160009054906101000a900473ffffffffffffffffffffffffffffffffffffffff1673ffffffffffffffffffffffffffffffffffffffff1673ffffffffffffffffffffffffffffffffffffffff1681526020016001820160009054906101000a900473ffffffffffffffffffffffffffffffffffffffff1673ffffffffffffffffffffffffffffffffffffffff1673ffffffffffffffffffffffffffffffffffffffff168152602001600282015481526020016003820180546107f390611d00565b80601f016020809104026020016040519081016040528092919081815260200182805461081f90611d00565b801561086c5780601f106108415761010080835404028352916020019161086c565b820191906000526020600020905b81548152906001019060200180831161084f57829003601f168201915b505050505081526020016004820160009054906101000a900460ff161515151581525050905080608001516108d6576040517f08c379a00000000000000000000000000000000000000000000000000000000081526004016108cd90611d7d565b60405180910390fd5b3373ffffffffffffffffffffffffffffffffffffffff16816000015173ffffffffffffffffffffffffffffffffffffffff16148061094357503373ffffffffffffffffffffffffffffffffffffffff16816020015173ffffffffffffffffffffffffffffffffffffffff16145b610982576040517f08c379a00000000000000000000000000000000000000000000000000000000081526004016109799061211b565b60405180910390fd5b60036000838152602001908152602001600020600080820160006101000a81549073ffffffffffffffffffffffffffffffffffffffff02191690556001820160006101000a81549073ffffffffffffffffffffffffffffffffffffffff021916905560028201600090556003820160006109fc9190611605565b6004820160006101000a81549060ff02191690555050806020015173ffffffffffffffffffffffffffffffffffffffff16816000015173ffffffffffffffffffffffffffffffffffffffff16837fb793b4b7fe4755c513c1f414e72788b4597f2a7fba03b010dd8cfa0cf0d5bd0d42604051610a7891906120b4565b60405180910390a45050565b60036020528060005260406000206000915090508060000160009054906101000a900473ffffffffffffffffffffffffffffffffffffffff16908060010160009054906101000a900473ffffffffffffffffffffffffffffffffffffffff1690806002015490806003018054610af990611d00565b80601f0160208091040260200160405190810160405280929190818152602001828054610b2590611d00565b8015610b725780601f10610b4757610100808354040283529160200191610b72565b820191906000526020600020905b815481529060010190602001808311610b5557829003601f168201915b5050505050908060040160009054906101000a900460ff16905085565b610b976114bb565b610ba16000611539565b565b823373ffffffffffffffffffffffffffffffffffffffff16600160009054906101000a900473ffffffffffffffffffffffffffffffffffffffff1673ffffffffffffffffffffffffffffffffffffffff16636352211e836040518263ffffffff1660e01b8152600401610c1691906120b4565b602060405180830381865afa158015610c33573d6000803e3d6000fd5b505050506040513d601f19601f82011682018060405250810190610c579190612150565b73ffffffffffffffffffffffffffffffffffffffff1614610cad576040517f08c379a0000000000000000000000000000000000000000000000000000000008152600401610ca4906121c9565b60405180910390fd5b600073ffffffffffffffffffffffffffffffffffffffff168373ffffffffffffffffffffffffffffffffffffffff1603610d1c576040517f08c379a0000000000000000000000000000000000000000000000000000000008152600401610d1390612235565b60405180910390fd5b600015156003600086815260200190815260200160002060040160009054906101000a900460ff16151514610d86576040517f08c379a0000000000000000000000000000000000000000000000000000000008152600401610d7d906122a1565b60405180910390fd5b60006040518060a001604052803373ffffffffffffffffffffffffffffffffffffffff1681526020018573ffffffffffffffffffffffffffffffffffffffff168152602001428152602001848152602001600115158152509050806003600087815260200190815260200160002060008201518160000160006101000a81548173ffffffffffffffffffffffffffffffffffffffff021916908373ffffffffffffffffffffffffffffffffffffffff16021790555060208201518160010160006101000a81548173ffffffffffffffffffffffffffffffffffffffff021916908373ffffffffffffffffffffffffffffffffffffffff160217905550604082015181600201556060820151816003019081610ea19190611fe2565b5060808201518160040160006101000a81548160ff0219169083151502179055509050508373ffffffffffffffffffffffffffffffffffffffff163373ffffffffffffffffffffffffffffffffffffffff16867f6297f3ba1130d22c92a5e79901f1a07b8261f9faaf6c67cf996235e1e0c2d63042604051610f2391906120b4565b60405180910390a45050505050565b606060026000838152602001908152602001600020805480602002602001604051908101604052809291908181526020016000905b828210156110fc57838290600052602060002090600502016040518060a00160405290816000820160009054906101000a900473ffffffffffffffffffffffffffffffffffffffff1673ffffffffffffffffffffffffffffffffffffffff1673ffffffffffffffffffffffffffffffffffffffff1681526020016001820160009054906101000a900473ffffffffffffffffffffffffffffffffffffffff1673ffffffffffffffffffffffffffffffffffffffff1673ffffffffffffffffffffffffffffffffffffffff1681526020016002820154815260200160038201805461105090611d00565b80601f016020809104026020016040519081016040528092919081815260200182805461107c90611d00565b80156110c95780601f1061109e576101008083540402835291602001916110c9565b820191906000526020600020905b8154815290600101906020018083116110ac57829003601f168201915b505050505081526020016004820160009054906101000a900460ff16151515158152505081526020019060010190610f67565b505050509050919050565b60008060009054906101000a900473ffffffffffffffffffffffffffffffffffffffff16905090565b6002602052816000526040600020818154811061114c57600080fd5b9060005260206000209060050201600091509150508060000160009054906101000a900473ffffffffffffffffffffffffffffffffffffffff16908060010160009054906101000a900473ffffffffffffffffffffffffffffffffffffffff16908060020154908060030180546111c290611d00565b80601f01602080910402602001604051908101604052809291908181526020018280546111ee90611d00565b801561123b5780601f106112105761010080835404028352916020019161123b565b820191906000526020600020905b81548152906001019060200180831161121e57829003601f168201915b5050505050908060040160009054906101000a900460ff16905085565b600160009054906101000a900473ffffffffffffffffffffffffffffffffffffffff1681565b6112866114bb565b600073ffffffffffffffffffffffffffffffffffffffff168173ffffffffffffffffffffffffffffffffffffffff16036112f5576040517f08c379a00000000000000000000000000000000000000000000000000000000081526004016112ec90612333565b60405180910390fd5b6112fe81611539565b50565b60008060006060600080600360008881526020019081526020016000206040518060a00160405290816000820160009054906101000a900473ffffffffffffffffffffffffffffffffffffffff1673ffffffffffffffffffffffffffffffffffffffff1673ffffffffffffffffffffffffffffffffffffffff1681526020016001820160009054906101000a900473ffffffffffffffffffffffffffffffffffffffff1673ffffffffffffffffffffffffffffffffffffffff1673ffffffffffffffffffffffffffffffffffffffff168152602001600282015481526020016003820180546113ef90611d00565b80601f016020809104026020016040519081016040528092919081815260200182805461141b90611d00565b80156114685780601f1061143d57610100808354040283529160200191611468565b820191906000526020600020905b81548152906001019060200180831161144b57829003601f168201915b505050505081526020016004820160009054906101000a900460ff161515151581525050905080600001518160200151826040015183606001518460800151955095509550955095505091939590929450565b6114c36115fd565b73ffffffffffffffffffffffffffffffffffffffff166114e1611107565b73ffffffffffffffffffffffffffffffffffffffff1614611537576040517f08c379a000000000000000000000000000000000000000000000000000000000815260040161152e9061239f565b60405180910390fd5b565b60008060009054906101000a900473ffffffffffffffffffffffffffffffffffffffff169050816000806101000a81548173ffffffffffffffffffffffffffffffffffffffff021916908373ffffffffffffffffffffffffffffffffffffffff1602179055508173ffffffffffffffffffffffffffffffffffffffff168173ffffffffffffffffffffffffffffffffffffffff167f8be0079c531659141344cd1fd0a4f28419497f9722a3daafe3b4186f6b6457e060405160405180910390a35050565b600033905090565b50805461161190611d00565b6000825580601f106116235750611642565b601f0160209004906000526020600020908101906116419190611645565b5b50565b5b8082111561165e576000816000905550600101611646565b5090565b6000604051905090565b600080fd5b600080fd5b6000819050919050565b61168981611676565b811461169457600080fd5b50565b6000813590506116a681611680565b92915050565b6000602082840312156116c2576116c161166c565b5b60006116d084828501611697565b91505092915050565b600073ffffffffffffffffffffffffffffffffffffffff82169050919050565b6000611704826116d9565b9050919050565b611714816116f9565b82525050565b61172381611676565b82525050565b600081519050919050565b600082825260208201905092915050565b60005b83811015611763578082015181840152602081019050611748565b60008484015250505050565b6000601f19601f8301169050919050565b600061178b82611729565b6117958185611734565b93506117a5818560208601611745565b6117ae8161176f565b840191505092915050565b60008115159050919050565b6117ce816117b9565b82525050565b600060a0820190506117e9600083018861170b565b6117f6602083018761170b565b611803604083018661171a565b81810360608301526118158185611780565b905061182460808301846117c5565b9695505050505050565b611837816116f9565b811461184257600080fd5b50565b6000813590506118548161182e565b92915050565b600080fd5b600080fd5b7f4e487b7100000000000000000000000000000000000000000000000000000000600052604160045260246000fd5b61189c8261176f565b810181811067ffffffffffffffff821117156118bb576118ba611864565b5b80604052505050565b60006118ce611662565b90506118da8282611893565b919050565b600067ffffffffffffffff8211156118fa576118f9611864565b5b6119038261176f565b9050602081019050919050565b82818337600083830152505050565b600061193261192d846118df565b6118c4565b90508281526020810184848401111561194e5761194d61185f565b5b611959848285611910565b509392505050565b600082601f8301126119765761197561185a565b5b813561198684826020860161191f565b91505092915050565b6000806000606084860312156119a8576119a761166c565b5b60006119b686828701611697565b93505060206119c786828701611845565b925050604084013567ffffffffffffffff8111156119e8576119e7611671565b5b6119f486828701611961565b9150509250925092565b600081519050919050565b600082825260208201905092915050565b6000819050602082019050919050565b611a33816116f9565b82525050565b611a4281611676565b82525050565b600082825260208201905092915050565b6000611a6482611729565b611a6e8185611a48565b9350611a7e818560208601611745565b611a878161176f565b840191505092915050565b611a9b816117b9565b82525050565b600060a083016000830151611ab96000860182611a2a565b506020830151611acc6020860182611a2a565b506040830151611adf6040860182611a39565b5060608301518482036060860152611af78282611a59565b9150506080830151611b0c6080860182611a92565b508091505092915050565b6000611b238383611aa1565b905092915050565b6000602082019050919050565b6000611b43826119fe565b611b4d8185611a09565b935083602082028501611b5f85611a1a565b8060005b85811015611b9b5784840389528151611b7c8582611b17565b9450611b8783611b2b565b925060208a01995050600181019050611b63565b50829750879550505050505092915050565b60006020820190508181036000830152611bc78184611b38565b905092915050565b6000602082019050611be4600083018461170b565b92915050565b60008060408385031215611c0157611c0061166c565b5b6000611c0f85828601611697565b9250506020611c2085828601611697565b9150509250929050565b6000819050919050565b6000611c4f611c4a611c45846116d9565b611c2a565b6116d9565b9050919050565b6000611c6182611c34565b9050919050565b6000611c7382611c56565b9050919050565b611c8381611c68565b82525050565b6000602082019050611c9e6000830184611c7a565b92915050565b600060208284031215611cba57611cb961166c565b5b6000611cc884828501611845565b91505092915050565b7f4e487b7100000000000000000000000000000000000000000000000000000000600052602260045260246000fd5b60006002820490506001821680611d1857607f821691505b602082108103611d2b57611d2a611cd1565b5b50919050565b7f4e6f20616374697665207472616e736665720000000000000000000000000000600082015250565b6000611d67601283611734565b9150611d7282611d31565b602082019050919050565b60006020820190508181036000830152611d9681611d5a565b9050919050565b7f4e6f742074686520696e74656e64656420726563697069656e74000000000000600082015250565b6000611dd3601a83611734565b9150611dde82611d9d565b602082019050919050565b60006020820190508181036000830152611e0281611dc6565b9050919050565b6000606082019050611e1e600083018661170b565b611e2b602083018561170b565b611e38604083018461171a565b949350505050565b60008190508160005260206000209050919050565b60006020601f8301049050919050565b600082821b905092915050565b600060088302611ea27fffffffffffffffffffffffffffffffffffffffffffffffffffffffffffffffff82611e65565b611eac8683611e65565b95508019841693508086168417925050509392505050565b6000611edf611eda611ed584611676565b611c2a565b611676565b9050919050565b6000819050919050565b611ef983611ec4565b611f0d611f0582611ee6565b848454611e72565b825550505050565b600090565b611f22611f15565b611f2d818484611ef0565b505050565b5b81811015611f5157611f46600082611f1a565b600181019050611f33565b5050565b601f821115611f9657611f6781611e40565b611f7084611e55565b81016020851015611f7f578190505b611f93611f8b85611e55565b830182611f32565b50505b505050565b600082821c905092915050565b6000611fb960001984600802611f9b565b1980831691505092915050565b6000611fd28383611fa8565b9150826002028217905092915050565b611feb82611729565b67ffffffffffffffff81111561200457612003611864565b5b61200e8254611d00565b612019828285611f55565b600060209050601f83116001811461204c576000841561203a578287015190505b6120448582611fc6565b8655506120ac565b601f19841661205a86611e40565b60005b828110156120825784890151825560018201915060208501945060208101905061205d565b8683101561209f578489015161209b601f891682611fa8565b8355505b6001600288020188555050505b505050505050565b60006020820190506120c9600083018461171a565b92915050565b7f4e6f7420617574686f72697a6564000000000000000000000000000000000000600082015250565b6000612105600e83611734565b9150612110826120cf565b602082019050919050565b60006020820190508181036000830152612134816120f8565b9050919050565b60008151905061214a8161182e565b92915050565b6000602082840312156121665761216561166c565b5b60006121748482850161213b565b91505092915050565b7f4e6f742074686520636172206f776e6572000000000000000000000000000000600082015250565b60006121b3601183611734565b91506121be8261217d565b602082019050919050565b600060208201905081810360008301526121e2816121a6565b9050919050565b7f496e76616c696420726563697069656e74206164647265737300000000000000600082015250565b600061221f601983611734565b915061222a826121e9565b602082019050919050565b6000602082019050818103600083015261224e81612212565b9050919050565b7f5472616e7366657220616c72656164792070656e64696e670000000000000000600082015250565b600061228b601883611734565b915061229682612255565b602082019050919050565b600060208201905081810360008301526122ba8161227e565b9050919050565b7f4f776e61626c653a206e6577206f776e657220697320746865207a65726f206160008201527f6464726573730000000000000000000000000000000000000000000000000000602082015250565b600061231d602683611734565b9150612328826122c1565b604082019050919050565b6000602082019050818103600083015261234c81612310565b9050919050565b7f4f776e61626c653a2063616c6c6572206973206e6f7420746865206f776e6572600082015250565b6000612389602083611734565b915061239482612353565b602082019050919050565b600060208201905081810360008301526123b88161237c565b905091905056fea26469706673582212203eddb85604bd892411189ad6e3ad61b7f00a8ed4893cd7e5e111fdd450b8c6b864736f6c63430008110033",
  "linkReferences": {},
  "deployedLinkReferences": {}
}