{
  "_format": "hh-sol-artifact-1",
  "contractName": "CarNFT",
  "sourceName": "contracts/CarNFT.sol",
  "abi": [
    {
      "inputs": [],
      "stateMutability": "nonpayable",
      "type": "constructor"
    },
    {
      "anonymous": false,
      "inputs": [
        {
          "indexed": true,
          "internalType": "address",
          "name": "owner",
          "type": "address"
        },
        {
          "indexed": true,
          "internalType": "address",
          "name": "approved",
          "type": "address"
        },
        {
          "indexed": true,
          "internalType": "uint256",
          "name": "tokenId",
          "type": "uint256"
        }
      ],
      "name": "Approval",
      "type": "event"
    },
    {
      "anonymous": false,
      "inputs": [
        {
          "indexed": true,
          "internalType": "address",
          "name": "owner",
          "type": "address"
        },
        {
          "indexed": true,
          "internalType": "address",
          "name": "operator",
          "type": "address"
        },
        {
          "indexed": false,
          "internalType": "bool",
          "name": "approved",
          "type": "bool"
        }
      ],
      "name": "ApprovalForAll",
      "type": "event"
    },
    {
      "anonymous": false,
      "inputs": [
        {
          "indexed": true,
          "internalType": "uint256",
          "name": "tokenId",
          "type": "uint256"
        },
        {
          "indexed": false,
          "internalType": "string",
          "name": "vin",
          "type": "string"
        },
        {
          "indexed": false,
          "internalType": "string",
          "name": "licensePlate",
          "type": "string"
        }
      ],
      "name": "CarRegistered",
      "type": "event"
    },
    {
      "anonymous": false,
      "inputs": [
        {
          "indexed": true,
          "internalType": "address",
          "name": "previousOwner",
          "type": "address"
        },
        {
          "indexed": true,
          "internalType": "address",
          "name": "newOwner",
          "type": "address"
        }
      ],
      "name": "OwnershipTransferred",
      "type": "event"
    },
    {
      "anonymous": false,
      "inputs": [
        {
          "indexed": true,
          "internalType": "address",
          "name": "from",
          "type": "address"
        },
        {
          "indexed": true,
          "internalType": "address",
          "name": "to",
          "type": "address"
        },
        {
          "indexed": true,
          "internalType": "uint256",
          "name": "tokenId",
          "type": "uint256"
        }
      ],
      "name": "Transfer",
      "type": "event"
    },
    {
      "inputs": [
        {
          "internalType": "address",
          "name": "to",
          "type": "address"
        },
        {
          "internalType": "uint256",
          "name": "tokenId",
          "type": "uint256"
        }
      ],
      "name": "approve",
      "outputs": [],
      "stateMutability": "nonpayable",
      "type": "function"
    },
    {
      "inputs": [
        {
          "internalType": "address",
          "name": "owner",
          "type": "address"
        }
      ],
      "name": "balanceOf",
      "outputs": [
        {
          "internalType": "uint256",
          "name": "",
          "type": "uint256"
        }
      ],
      "stateMutability": "view",
      "type": "function"
    },
    {
      "inputs": [
        {
          "internalType": "uint256",
          "name": "tokenId",
          "type": "uint256"
        }
      ],
      "name": "getApproved",
      "outputs": [
        {
          "internalType": "address",
          "name": "",
          "type": "address"
        }
      ],
      "stateMutability": "view",
      "type": "function"
    },
    {
      "inputs": [
        {
          "internalType": "uint256",
          "name": "tokenId",
          "type": "uint256"
        }
      ],
      "name": "getCarDetails",
      "outputs": [
        {
          "internalType": "string",
          "name": "vin",
          "type": "string"
        },
        {
          "internalType": "string",
          "name": "ppsr",
          "type": "string"
        },
        {
          "internalType": "string",
          "name": "make",
          "type": "string"
        },
        {
          "internalType": "string",
          "name": "model",
          "type": "string"
        },
        {
          "internalType": "string",
          "name": "color",
          "type": "string"
        },
        {
          "internalType": "string",
          "name": "licensePlate",
          "type": "string"
        },
        {
          "internalType": "uint256",
          "name": "year",
          "type": "uint256"
        }
      ],
      "stateMutability": "view",
      "type": "function"
    },
    {
      "inputs": [
        {
          "internalType": "address",
          "name": "owner",
          "type": "address"
        },
        {
          "internalType": "address",
          "name": "operator",
          "type": "address"
        }
      ],
      "name": "isApprovedForAll",
      "outputs": [
        {
          "internalType": "bool",
          "name": "",
          "type": "bool"
        }
      ],
      "stateMutability": "view",
      "type": "function"
    },
    {
      "inputs": [],
      "name": "name",
      "outputs": [
        {
          "internalType": "string",
          "name": "",
          "type": "string"
        }
      ],
      "stateMutability": "view",
      "type": "function"
    },
    {
      "inputs": [],
      "name": "owner",
      "outputs": [
        {
          "internalType": "address",
          "name": "",
          "type": "address"
        }
      ],
      "stateMutability": "view",
      "type": "function"
    },
    {
      "inputs": [
        {
          "internalType": "uint256",
          "name": "tokenId",
          "type": "uint256"
        }
      ],
      "name": "ownerOf",
      "outputs": [
        {
          "internalType": "address",
          "name": "",
          "type": "address"
        }
      ],
      "stateMutability": "view",
      "type": "function"
    },
    {
      "inputs": [
        {
          "internalType": "string",
          "name": "vin",
          "type": "string"
        },
        {
          "internalType": "string",
          "name": "ppsr",
          "type": "string"
        },
        {
          "internalType": "string",
          "name": "make",
          "type": "string"
        },
        {
          "internalType": "string",
          "name": "model",
          "type": "string"
        },
        {
          "internalType": "string",
          "name": "color",
          "type": "string"
        },
        {
          "internalType": "string",
          "name": "licensePlate",
          "type": "string"
        },
        {
          "internalType": "uint256",
          "name": "year",
          "type": "uint256"
        },
        {
          "internalType": "address",
          "name": "owner",
          "type": "address"
        }
      ],
      "name": "registerCar",
      "outputs": [
        {
          "internalType": "uint256",
          "name": "",
          "type": "uint256"
        }
      ],
      "stateMutability": "nonpayable",
      "type": "function"
    },
    {
      "inputs": [],
      "name": "renounceOwnership",
      "outputs": [],
      "stateMutability": "nonpayable",
      "type": "function"
    },
    {
      "inputs": [
        {
          "internalType": "address",
          "name": "from",
          "type": "address"
        },
        {
          "internalType": "address",
          "name": "to",
          "type": "address"
        },
        {
          "internalType": "uint256",
          "name": "tokenId",
          "type": "uint256"
        }
      ],
      "name": "safeTransferFrom",
      "outputs": [],
      "stateMutability": "nonpayable",
      "type": "function"
    },
    {
      "inputs": [
        {
          "internalType": "address",
          "name": "from",
          "type": "address"
        },
        {
          "internalType": "address",
          "name": "to",
          "type": "address"
        },
        {
          "internalType": "uint256",
          "name": "tokenId",
          "type": "uint256"
        },
        {
          "internalType": "bytes",
          "name": "data",
          "type": "bytes"
        }
      ],
      "name": "safeTransferFrom",
      "outputs": [],
      "stateMutability": "nonpayable",
      "type": "function"
    },
    {
      "inputs": [
        {
          "internalType": "address",
          "name": "operator",
          "type": "address"
        },
        {
          "internalType": "bool",
          "name": "approved",
          "type": "bool"
        }
      ],
      "name": "setApprovalForAll",
      "outputs": [],
      "stateMutability": "nonpayable",
      "type": "function"
    },
    {
      "inputs": [
        {
          "internalType": "bytes4",
          "name": "interfaceId",
          "type": "bytes4"
        }
      ],
      "name": "supportsInterface",
      "outputs": [
        {
          "internalType": "bool",
          "name": "",
          "type": "bool"
        }
      ],
      "stateMutability": "view",
      "type": "function"
    },
    {
      "inputs": [],
      "name": "symbol",
      "outputs": [
        {
          "internalType": "string",
          "name": "",
          "type": "string"
        }
      ],
      "stateMutability": "view",
      "type": "function"
    },
    {
      "inputs": [
        {
          "internalType": "uint256",
          "name": "tokenId",
          "type": "uint256"
        }
      ],
      "name": "tokenURI",
      "outputs": [
        {
          "internalType": "string",
          "name": "",
          "type": "string"
        }
      ],
      "stateMutability": "view",
      "type": "function"
    },
    {
      "inputs": [
        {
          "internalType": "address",
          "name": "from",
          "type": "address"
        },
        {
          "internalType": "address",
          "name": "to",
          "type": "address"
        },
        {
          "internalType": "uint256",
          "name": "tokenId",
          "type": "uint256"
        }
      ],
      "name": "transferFrom",
      "outputs": [],
      "stateMutability": "nonpayable",
      "type": "function"
    },
    {
      "inputs": [
        {
          "internalType": "address",
          "name": "newOwner",
          "type": "address"
        }
      ],
      "name": "transferOwnership",
      "outputs": [],
      "stateMutability": "nonpayable",
      "type": "function"
    }
  ],
  "bytecode": "0x60806040523480156200001157600080fd5b506040518060400160405280600d81526020017f4175746f50726f6f6620436172000000000000000000000000000000000000008152506040518060400160405280600381526020017f434152000000000000000000000000000000000000000000000000000000000081525081600090816200008f919062000412565b508060019081620000a1919062000412565b505050620000c4620000b8620000ca60201b60201c565b620000d260201b60201c565b620004f9565b600033905090565b6000600660009054906101000a900473ffffffffffffffffffffffffffffffffffffffff16905081600660006101000a81548173ffffffffffffffffffffffffffffffffffffffff021916908373ffffffffffffffffffffffffffffffffffffffff1602179055508173ffffffffffffffffffffffffffffffffffffffff168173ffffffffffffffffffffffffffffffffffffffff167f8be0079c531659141344cd1fd0a4f28419497f9722a3daafe3b4186f6b6457e060405160405180910390a35050565b600081519050919050565b7f4e487b7100000000000000000000000000000000000000000000000000000000600052604160045260246000fd5b7f4e487b7100000000000000000000000000000000000000000000000000000000600052602260045260246000fd5b600060028204905060018216806200021a57607f821691505b60208210810362000230576200022f620001d2565b5b50919050565b60008190508160005260206000209050919050565b60006020601f8301049050919050565b600082821b905092915050565b6000600883026200029a7fffffffffffffffffffffffffffffffffffffffffffffffffffffffffffffffff826200025b565b620002a686836200025b565b95508019841693508086168417925050509392505050565b6000819050919050565b6000819050919050565b6000620002f3620002ed620002e784620002be565b620002c8565b620002be565b9050919050565b6000819050919050565b6200030f83620002d2565b620003276200031e82620002fa565b84845462000268565b825550505050565b600090565b6200033e6200032f565b6200034b81848462000304565b505050565b5b8181101562000373576200036760008262000334565b60018101905062000351565b5050565b601f821115620003c2576200038c8162000236565b62000397846200024b565b81016020851015620003a7578190505b620003bf620003b6856200024b565b83018262000350565b50505b505050565b600082821c905092915050565b6000620003e760001984600802620003c7565b1980831691505092915050565b6000620004028383620003d4565b9150826002028217905092915050565b6200041d8262000198565b67ffffffffffffffff811115620004395762000438620001a3565b5b62000445825462000201565b6200045282828562000377565b600060209050601f8311600181146200048a576000841562000475578287015190505b620004818582620003f4565b865550620004f1565b601f1984166200049a8662000236565b60005b82811015620004c4578489015182556001820191506020850194506020810190506200049d565b86831015620004e45784890151620004e0601f891682620003d4565b8355505b6001600288020188555050505b505050505050565b61342e80620005096000396000f3fe608060405234801561001057600080fd5b50600436106101165760003560e01c8063715018a6116100a2578063a22cb46511610071578063a22cb465146102f9578063b88d4fde14610315578063c87b56dd14610331578063e985e9c514610361578063f2fde38b1461039157610116565b8063715018a6146102835780638002e22c1461028d5780638da5cb5b146102bd57806395d89b41146102db57610116565b806323b872dd116100e957806323b872dd146101b557806342842e0e146101d1578063472ec454146101ed5780636352211e1461022357806370a082311461025357610116565b806301ffc9a71461011b57806306fdde031461014b578063081812fc14610169578063095ea7b314610199575b600080fd5b61013560048036038101906101309190611ffc565b6103ad565b6040516101429190612044565b60405180910390f35b61015361048f565b60405161016091906120ef565b60405180910390f35b610183600480360381019061017e9190612147565b610521565b60405161019091906121b5565b60405180910390f35b6101b360048036038101906101ae91906121fc565b610567565b005b6101cf60048036038101906101ca919061223c565b61067e565b005b6101eb60048036038101906101e6919061223c565b6106de565b005b61020760048036038101906102029190612147565b6106fe565b60405161021a979695949392919061229e565b60405180910390f35b61023d60048036038101906102389190612147565b610b26565b60405161024a91906121b5565b60405180910390f35b61026d60048036038101906102689190612337565b610bac565b60405161027a9190612364565b60405180910390f35b61028b610c63565b005b6102a760048036038101906102a291906124b4565b610c77565b6040516102b49190612364565b60405180910390f35b6102c5610dcb565b6040516102d291906121b5565b60405180910390f35b6102e3610df5565b6040516102f091906120ef565b60405180910390f35b610313600480360381019061030e919061263e565b610e87565b005b61032f600480360381019061032a919061271f565b610e9d565b005b61034b60048036038101906103469190612147565b610eff565b60405161035891906120ef565b60405180910390f35b61037b600480360381019061037691906127a2565b610f67565b6040516103889190612044565b60405180910390f35b6103ab60048036038101906103a69190612337565b610ffb565b005b60007f80ac58cd000000000000000000000000000000000000000000000000000000007bffffffffffffffffffffffffffffffffffffffffffffffffffffffff1916827bffffffffffffffffffffffffffffffffffffffffffffffffffffffff1916148061047857507f5b5e139f000000000000000000000000000000000000000000000000000000007bffffffffffffffffffffffffffffffffffffffffffffffffffffffff1916827bffffffffffffffffffffffffffffffffffffffffffffffffffffffff1916145b8061048857506104878261107e565b5b9050919050565b60606000805461049e90612811565b80601f01602080910402602001604051908101604052809291908181526020018280546104ca90612811565b80156105175780601f106104ec57610100808354040283529160200191610517565b820191906000526020600020905b8154815290600101906020018083116104fa57829003601f168201915b5050505050905090565b600061052c826110e8565b6004600083815260200190815260200160002060009054906101000a900473ffffffffffffffffffffffffffffffffffffffff169050919050565b600061057282610b26565b90508073ffffffffffffffffffffffffffffffffffffffff168373ffffffffffffffffffffffffffffffffffffffff16036105e2576040517f08c379a00000000000000000000000000000000000000000000000000000000081526004016105d9906128b4565b60405180910390fd5b8073ffffffffffffffffffffffffffffffffffffffff16610601611133565b73ffffffffffffffffffffffffffffffffffffffff161480610630575061062f8161062a611133565b610f67565b5b61066f576040517f08c379a000000000000000000000000000000000000000000000000000000000815260040161066690612946565b60405180910390fd5b610679838361113b565b505050565b61068f610689611133565b826111f4565b6106ce576040517f08c379a00000000000000000000000000000000000000000000000000000000081526004016106c5906129d8565b60405180910390fd5b6106d9838383611289565b505050565b6106f983838360405180602001604052806000815250610e9d565b505050565b606080606080606080600061071288611582565b610751576040517f08c379a000000000000000000000000000000000000000000000000000000000815260040161074890612a44565b60405180910390fd5b6000600760008a81526020019081526020016000206040518060e001604052908160008201805461078190612811565b80601f01602080910402602001604051908101604052809291908181526020018280546107ad90612811565b80156107fa5780601f106107cf576101008083540402835291602001916107fa565b820191906000526020600020905b8154815290600101906020018083116107dd57829003601f168201915b5050505050815260200160018201805461081390612811565b80601f016020809104026020016040519081016040528092919081815260200182805461083f90612811565b801561088c5780601f106108615761010080835404028352916020019161088c565b820191906000526020600020905b81548152906001019060200180831161086f57829003601f168201915b505050505081526020016002820180546108a590612811565b80601f01602080910402602001604051908101604052809291908181526020018280546108d190612811565b801561091e5780601f106108f35761010080835404028352916020019161091e565b820191906000526020600020905b81548152906001019060200180831161090157829003601f168201915b5050505050815260200160038201805461093790612811565b80601f016020809104026020016040519081016040528092919081815260200182805461096390612811565b80156109b05780601f10610985576101008083540402835291602001916109b0565b820191906000526020600020905b81548152906001019060200180831161099357829003601f168201915b505050505081526020016004820180546109c990612811565b80601f01602080910402602001604051908101604052809291908181526020018280546109f590612811565b8015610a425780601f10610a1757610100808354040283529160200191610a42565b820191906000526020600020905b815481529060010190602001808311610a2557829003601f168201915b50505050508152602001600582018054610a5b90612811565b80601f0160208091040260200160405190810160405280929190818152602001828054610a8790612811565b8015610ad45780601f10610aa957610100808354040283529160200191610ad4565b820191906000526020600020905b815481529060010190602001808311610ab757829003601f168201915b505050505081526020016006820154815250509050806000015181602001518260400151836060015184608001518560a001518660c00151975097509750975097509750975050919395979092949650565b600080610b32836115c3565b9050600073ffffffffffffffffffffffffffffffffffffffff168173ffffffffffffffffffffffffffffffffffffffff1603610ba3576040517f08c379a0000000000000000000000000000000000000000000000000000000008152600401610b9a90612ab0565b60405180910390fd5b80915050919050565b60008073ffffffffffffffffffffffffffffffffffffffff168273ffffffffffffffffffffffffffffffffffffffff1603610c1c576040517f08c379a0000000000000000000000000000000000000000000000000000000008152600401610c1390612b42565b60405180910390fd5b600360008373ffffffffffffffffffffffffffffffffffffffff1673ffffffffffffffffffffffffffffffffffffffff168152602001908152602001600020549050919050565b610c6b611600565b610c75600061167e565b565b6000610c81611600565b6000600854905060086000815480929190610c9b90612b91565b91905055506040518060e001604052808b81526020018a815260200189815260200188815260200187815260200186815260200185815250600760008381526020019081526020016000206000820151816000019081610cfb9190612d85565b506020820151816001019081610d119190612d85565b506040820151816002019081610d279190612d85565b506060820151816003019081610d3d9190612d85565b506080820151816004019081610d539190612d85565b5060a0820151816005019081610d699190612d85565b5060c08201518160060155905050610d818382611744565b807f874aa2ca5ffc8d2ed8b042e9af9287b2e03dab4a96517706aeafb2ca2f9dd4618b87604051610db3929190612e57565b60405180910390a28091505098975050505050505050565b6000600660009054906101000a900473ffffffffffffffffffffffffffffffffffffffff16905090565b606060018054610e0490612811565b80601f0160208091040260200160405190810160405280929190818152602001828054610e3090612811565b8015610e7d5780601f10610e5257610100808354040283529160200191610e7d565b820191906000526020600020905b815481529060010190602001808311610e6057829003601f168201915b5050505050905090565b610e99610e92611133565b8383611762565b5050565b610eae610ea8611133565b836111f4565b610eed576040517f08c379a0000000000000000000000000000000000000000000000000000000008152600401610ee4906129d8565b60405180910390fd5b610ef9848484846118ce565b50505050565b6060610f0a826110e8565b6000610f1461192a565b90506000815111610f345760405180602001604052806000815250610f5f565b80610f3e84611941565b604051602001610f4f929190612eca565b6040516020818303038152906040525b915050919050565b6000600560008473ffffffffffffffffffffffffffffffffffffffff1673ffffffffffffffffffffffffffffffffffffffff16815260200190815260200160002060008373ffffffffffffffffffffffffffffffffffffffff1673ffffffffffffffffffffffffffffffffffffffff16815260200190815260200160002060009054906101000a900460ff16905092915050565b611003611600565b600073ffffffffffffffffffffffffffffffffffffffff168173ffffffffffffffffffffffffffffffffffffffff1603611072576040517f08c379a000000000000000000000000000000000000000000000000000000000815260040161106990612f60565b60405180910390fd5b61107b8161167e565b50565b60007f01ffc9a7000000000000000000000000000000000000000000000000000000007bffffffffffffffffffffffffffffffffffffffffffffffffffffffff1916827bffffffffffffffffffffffffffffffffffffffffffffffffffffffff1916149050919050565b6110f181611582565b611130576040517f08c379a000000000000000000000000000000000000000000000000000000000815260040161112790612ab0565b60405180910390fd5b50565b600033905090565b816004600083815260200190815260200160002060006101000a81548173ffffffffffffffffffffffffffffffffffffffff021916908373ffffffffffffffffffffffffffffffffffffffff160217905550808273ffffffffffffffffffffffffffffffffffffffff166111ae83610b26565b73ffffffffffffffffffffffffffffffffffffffff167f8c5be1e5ebec7d5bd14f71427d1e84f3dd0314c0f7b2291e5b200ac8c7c3b92560405160405180910390a45050565b60008061120083610b26565b90508073ffffffffffffffffffffffffffffffffffffffff168473ffffffffffffffffffffffffffffffffffffffff16148061124257506112418185610f67565b5b8061128057508373ffffffffffffffffffffffffffffffffffffffff1661126884610521565b73ffffffffffffffffffffffffffffffffffffffff16145b91505092915050565b8273ffffffffffffffffffffffffffffffffffffffff166112a982610b26565b73ffffffffffffffffffffffffffffffffffffffff16146112ff576040517f08c379a00000000000000000000000000000000000000000000000000000000081526004016112f690612ff2565b60405180910390fd5b600073ffffffffffffffffffffffffffffffffffffffff168273ffffffffffffffffffffffffffffffffffffffff160361136e576040517f08c379a000000000000000000000000000000000000000000000000000000000815260040161136590613084565b60405180910390fd5b61137b8383836001611a0f565b8273ffffffffffffffffffffffffffffffffffffffff1661139b82610b26565b73ffffffffffffffffffffffffffffffffffffffff16146113f1576040517f08c379a00000000000000000000000000000000000000000000000000000000081526004016113e890612ff2565b60405180910390fd5b6004600082815260200190815260200160002060006101000a81549073ffffffffffffffffffffffffffffffffffffffff02191690556001600360008573ffffffffffffffffffffffffffffffffffffffff1673ffffffffffffffffffffffffffffffffffffffff168152602001908152602001600020600082825403925050819055506001600360008473ffffffffffffffffffffffffffffffffffffffff1673ffffffffffffffffffffffffffffffffffffffff16815260200190815260200160002060008282540192505081905550816002600083815260200190815260200160002060006101000a81548173ffffffffffffffffffffffffffffffffffffffff021916908373ffffffffffffffffffffffffffffffffffffffff160217905550808273ffffffffffffffffffffffffffffffffffffffff168473ffffffffffffffffffffffffffffffffffffffff167fddf252ad1be2c89b69c2b068fc378daa952ba7f163c4a11628f55a4df523b3ef60405160405180910390a461157d8383836001611a15565b505050565b60008073ffffffffffffffffffffffffffffffffffffffff166115a4836115c3565b73ffffffffffffffffffffffffffffffffffffffff1614159050919050565b60006002600083815260200190815260200160002060009054906101000a900473ffffffffffffffffffffffffffffffffffffffff169050919050565b611608611133565b73ffffffffffffffffffffffffffffffffffffffff16611626610dcb565b73ffffffffffffffffffffffffffffffffffffffff161461167c576040517f08c379a0000000000000000000000000000000000000000000000000000000008152600401611673906130f0565b60405180910390fd5b565b6000600660009054906101000a900473ffffffffffffffffffffffffffffffffffffffff16905081600660006101000a81548173ffffffffffffffffffffffffffffffffffffffff021916908373ffffffffffffffffffffffffffffffffffffffff1602179055508173ffffffffffffffffffffffffffffffffffffffff168173ffffffffffffffffffffffffffffffffffffffff167f8be0079c531659141344cd1fd0a4f28419497f9722a3daafe3b4186f6b6457e060405160405180910390a35050565b61175e828260405180602001604052806000815250611a1b565b5050565b8173ffffffffffffffffffffffffffffffffffffffff168373ffffffffffffffffffffffffffffffffffffffff16036117d0576040517f08c379a00000000000000000000000000000000000000000000000000000000081526004016117c79061315c565b60405180910390fd5b80600560008573ffffffffffffffffffffffffffffffffffffffff1673ffffffffffffffffffffffffffffffffffffffff16815260200190815260200160002060008473ffffffffffffffffffffffffffffffffffffffff1673ffffffffffffffffffffffffffffffffffffffff16815260200190815260200160002060006101000a81548160ff0219169083151502179055508173ffffffffffffffffffffffffffffffffffffffff168373ffffffffffffffffffffffffffffffffffffffff167f17307eab39ab6107e8899845ad3d59bd9653f200f220920489ca2b5937696c31836040516118c19190612044565b60405180910390a3505050565b6118d9848484611289565b6118e584848484611a76565b611924576040517f08c379a000000000000000000000000000000000000000000000000000000000815260040161191b906131ee565b60405180910390fd5b50505050565b606060405180602001604052806000815250905090565b60606000600161195084611bfd565b01905060008167ffffffffffffffff81111561196f5761196e612389565b5b6040519080825280601f01601f1916602001820160405280156119a15781602001600182028036833780820191505090505b509050600082602001820190505b600115611a04578080600190039150507f3031323334353637383961626364656600000000000000000000000000000000600a86061a8153600a85816119f8576119f761320e565b5b049450600085036119af575b819350505050919050565b50505050565b50505050565b611a258383611d50565b611a326000848484611a76565b611a71576040517f08c379a0000000000000000000000000000000000000000000000000000000008152600401611a68906131ee565b60405180910390fd5b505050565b6000611a978473ffffffffffffffffffffffffffffffffffffffff16611f6d565b15611bf0578373ffffffffffffffffffffffffffffffffffffffff1663150b7a02611ac0611133565b8786866040518563ffffffff1660e01b8152600401611ae29493929190613292565b6020604051808303816000875af1925050508015611b1e57506040513d601f19601f82011682018060405250810190611b1b91906132f3565b60015b611ba0573d8060008114611b4e576040519150601f19603f3d011682016040523d82523d6000602084013e611b53565b606091505b506000815103611b98576040517f08c379a0000000000000000000000000000000000000000000000000000000008152600401611b8f906131ee565b60405180910390fd5b805181602001fd5b63150b7a0260e01b7bffffffffffffffffffffffffffffffffffffffffffffffffffffffff1916817bffffffffffffffffffffffffffffffffffffffffffffffffffffffff191614915050611bf5565b600190505b949350505050565b600080600090507a184f03e93ff9f4daa797ed6e38ed64bf6a1f0100000000000000008310611c5b577a184f03e93ff9f4daa797ed6e38ed64bf6a1f0100000000000000008381611c5157611c5061320e565b5b0492506040810190505b6d04ee2d6d415b85acef81000000008310611c98576d04ee2d6d415b85acef81000000008381611c8e57611c8d61320e565b5b0492506020810190505b662386f26fc100008310611cc757662386f26fc100008381611cbd57611cbc61320e565b5b0492506010810190505b6305f5e1008310611cf0576305f5e1008381611ce657611ce561320e565b5b0492506008810190505b6127108310611d15576127108381611d0b57611d0a61320e565b5b0492506004810190505b60648310611d385760648381611d2e57611d2d61320e565b5b0492506002810190505b600a8310611d47576001810190505b80915050919050565b600073ffffffffffffffffffffffffffffffffffffffff168273ffffffffffffffffffffffffffffffffffffffff1603611dbf576040517f08c379a0000000000000000000000000000000000000000000000000000000008152600401611db69061336c565b60405180910390fd5b611dc881611582565b15611e08576040517f08c379a0000000000000000000000000000000000000000000000000000000008152600401611dff906133d8565b60405180910390fd5b611e16600083836001611a0f565b611e1f81611582565b15611e5f576040517f08c379a0000000000000000000000000000000000000000000000000000000008152600401611e56906133d8565b60405180910390fd5b6001600360008473ffffffffffffffffffffffffffffffffffffffff1673ffffffffffffffffffffffffffffffffffffffff16815260200190815260200160002060008282540192505081905550816002600083815260200190815260200160002060006101000a81548173ffffffffffffffffffffffffffffffffffffffff021916908373ffffffffffffffffffffffffffffffffffffffff160217905550808273ffffffffffffffffffffffffffffffffffffffff16600073ffffffffffffffffffffffffffffffffffffffff167fddf252ad1be2c89b69c2b068fc378daa952ba7f163c4a11628f55a4df523b3ef60405160405180910390a4611f69600083836001611a15565b5050565b6000808273ffffffffffffffffffffffffffffffffffffffff163b119050919050565b6000604051905090565b600080fd5b600080fd5b60007fffffffff0000000000000000000000000000000000000000000000000000000082169050919050565b611fd981611fa4565b8114611fe457600080fd5b50565b600081359050611ff681611fd0565b92915050565b60006020828403121561201257612011611f9a565b5b600061202084828501611fe7565b91505092915050565b60008115159050919050565b61203e81612029565b82525050565b60006020820190506120596000830184612035565b92915050565b600081519050919050565b600082825260208201905092915050565b60005b8381101561209957808201518184015260208101905061207e565b60008484015250505050565b6000601f19601f8301169050919050565b60006120c18261205f565b6120cb818561206a565b93506120db81856020860161207b565b6120e4816120a5565b840191505092915050565b6000602082019050818103600083015261210981846120b6565b905092915050565b6000819050919050565b61212481612111565b811461212f57600080fd5b50565b6000813590506121418161211b565b92915050565b60006020828403121561215d5761215c611f9a565b5b600061216b84828501612132565b91505092915050565b600073ffffffffffffffffffffffffffffffffffffffff82169050919050565b600061219f82612174565b9050919050565b6121af81612194565b82525050565b60006020820190506121ca60008301846121a6565b92915050565b6121d981612194565b81146121e457600080fd5b50565b6000813590506121f6816121d0565b92915050565b6000806040838503121561221357612212611f9a565b5b6000612221858286016121e7565b925050602061223285828601612132565b9150509250929050565b60008060006060848603121561225557612254611f9a565b5b6000612263868287016121e7565b9350506020612274868287016121e7565b925050604061228586828701612132565b9150509250925092565b61229881612111565b82525050565b600060e08201905081810360008301526122b8818a6120b6565b905081810360208301526122cc81896120b6565b905081810360408301526122e081886120b6565b905081810360608301526122f481876120b6565b9050818103608083015261230881866120b6565b905081810360a083015261231c81856120b6565b905061232b60c083018461228f565b98975050505050505050565b60006020828403121561234d5761234c611f9a565b5b600061235b848285016121e7565b91505092915050565b6000602082019050612379600083018461228f565b92915050565b600080fd5b600080fd5b7f4e487b7100000000000000000000000000000000000000000000000000000000600052604160045260246000fd5b6123c1826120a5565b810181811067ffffffffffffffff821117156123e0576123df612389565b5b80604052505050565b60006123f3611f90565b90506123ff82826123b8565b919050565b600067ffffffffffffffff82111561241f5761241e612389565b5b612428826120a5565b9050602081019050919050565b82818337600083830152505050565b600061245761245284612404565b6123e9565b90508281526020810184848401111561247357612472612384565b5b61247e848285612435565b509392505050565b600082601f83011261249b5761249a61237f565b5b81356124ab848260208601612444565b91505092915050565b600080600080600080600080610100898b0312156124d5576124d4611f9a565b5b600089013567ffffffffffffffff8111156124f3576124f2611f9f565b5b6124ff8b828c01612486565b985050602089013567ffffffffffffffff8111156125205761251f611f9f565b5b61252c8b828c01612486565b975050604089013567ffffffffffffffff81111561254d5761254c611f9f565b5b6125598b828c01612486565b965050606089013567ffffffffffffffff81111561257a57612579611f9f565b5b6125868b828c01612486565b955050608089013567ffffffffffffffff8111156125a7576125a6611f9f565b5b6125b38b828c01612486565b94505060a089013567ffffffffffffffff8111156125d4576125d3611f9f565b5b6125e08b828c01612486565b93505060c06125f18b828c01612132565b92505060e06126028b828c016121e7565b9150509295985092959890939650565b61261b81612029565b811461262657600080fd5b50565b60008135905061263881612612565b92915050565b6000806040838503121561265557612654611f9a565b5b6000612663858286016121e7565b925050602061267485828601612629565b9150509250929050565b600067ffffffffffffffff82111561269957612698612389565b5b6126a2826120a5565b9050602081019050919050565b60006126c26126bd8461267e565b6123e9565b9050828152602081018484840111156126de576126dd612384565b5b6126e9848285612435565b509392505050565b600082601f8301126127065761270561237f565b5b81356127168482602086016126af565b91505092915050565b6000806000806080858703121561273957612738611f9a565b5b6000612747878288016121e7565b9450506020612758878288016121e7565b935050604061276987828801612132565b925050606085013567ffffffffffffffff81111561278a57612789611f9f565b5b612796878288016126f1565b91505092959194509250565b600080604083850312156127b9576127b8611f9a565b5b60006127c7858286016121e7565b92505060206127d8858286016121e7565b9150509250929050565b7f4e487b7100000000000000000000000000000000000000000000000000000000600052602260045260246000fd5b6000600282049050600182168061282957607f821691505b60208210810361283c5761283b6127e2565b5b50919050565b7f4552433732313a20617070726f76616c20746f2063757272656e74206f776e6560008201527f7200000000000000000000000000000000000000000000000000000000000000602082015250565b600061289e60218361206a565b91506128a982612842565b604082019050919050565b600060208201905081810360008301526128cd81612891565b9050919050565b7f4552433732313a20617070726f76652063616c6c6572206973206e6f7420746f60008201527f6b656e206f776e6572206f7220617070726f76656420666f7220616c6c000000602082015250565b6000612930603d8361206a565b915061293b826128d4565b604082019050919050565b6000602082019050818103600083015261295f81612923565b9050919050565b7f4552433732313a2063616c6c6572206973206e6f7420746f6b656e206f776e6560008201527f72206f7220617070726f76656400000000000000000000000000000000000000602082015250565b60006129c2602d8361206a565b91506129cd82612966565b604082019050919050565b600060208201905081810360008301526129f1816129b5565b9050919050565b7f43617220646f6573206e6f742065786973740000000000000000000000000000600082015250565b6000612a2e60128361206a565b9150612a39826129f8565b602082019050919050565b60006020820190508181036000830152612a5d81612a21565b9050919050565b7f4552433732313a20696e76616c696420746f6b656e2049440000000000000000600082015250565b6000612a9a60188361206a565b9150612aa582612a64565b602082019050919050565b60006020820190508181036000830152612ac981612a8d565b9050919050565b7f4552433732313a2061646472657373207a65726f206973206e6f74206120766160008201527f6c6964206f776e65720000000000000000000000000000000000000000000000602082015250565b6000612b2c60298361206a565b9150612b3782612ad0565b604082019050919050565b60006020820190508181036000830152612b5b81612b1f565b9050919050565b7f4e487b7100000000000000000000000000000000000000000000000000000000600052601160045260246000fd5b6000612b9c82612111565b91507fffffffffffffffffffffffffffffffffffffffffffffffffffffffffffffffff8203612bce57612bcd612b62565b5b600182019050919050565b60008190508160005260206000209050919050565b60006020601f8301049050919050565b600082821b905092915050565b600060088302612c3b7fffffffffffffffffffffffffffffffffffffffffffffffffffffffffffffffff82612bfe565b612c458683612bfe565b95508019841693508086168417925050509392505050565b6000819050919050565b6000612c82612c7d612c7884612111565b612c5d565b612111565b9050919050565b6000819050919050565b612c9c83612c67565b612cb0612ca882612c89565b848454612c0b565b825550505050565b600090565b612cc5612cb8565b612cd0818484612c93565b505050565b5b81811015612cf457612ce9600082612cbd565b600181019050612cd6565b5050565b601f821115612d3957612d0a81612bd9565b612d1384612bee565b81016020851015612d22578190505b612d36612d2e85612bee565b830182612cd5565b50505b505050565b600082821c905092915050565b6000612d5c60001984600802612d3e565b1980831691505092915050565b6000612d758383612d4b565b9150826002028217905092915050565b612d8e8261205f565b67ffffffffffffffff811115612da757612da6612389565b5b612db18254612811565b612dbc828285612cf8565b600060209050601f831160018114612def5760008415612ddd578287015190505b612de78582612d69565b865550612e4f565b601f198416612dfd86612bd9565b60005b82811015612e2557848901518255600182019150602085019450602081019050612e00565b86831015612e425784890151612e3e601f891682612d4b565b8355505b6001600288020188555050505b505050505050565b60006040820190508181036000830152612e7181856120b6565b90508181036020830152612e8581846120b6565b90509392505050565b600081905092915050565b6000612ea48261205f565b612eae8185612e8e565b9350612ebe81856020860161207b565b80840191505092915050565b6000612ed68285612e99565b9150612ee28284612e99565b91508190509392505050565b7f4f776e61626c653a206e6577206f776e657220697320746865207a65726f206160008201527f6464726573730000000000000000000000000000000000000000000000000000602082015250565b6000612f4a60268361206a565b9150612f5582612eee565b604082019050919050565b60006020820190508181036000830152612f7981612f3d565b9050919050565b7f4552433732313a207472616e736665722066726f6d20696e636f72726563742060008201527f6f776e6572000000000000000000000000000000000000000000000000000000602082015250565b6000612fdc60258361206a565b9150612fe782612f80565b604082019050919050565b6000602082019050818103600083015261300b81612fcf565b9050919050565b7f4552433732313a207472616e7366657220746f20746865207a65726f2061646460008201527f7265737300000000000000000000000000000000000000000000000000000000602082015250565b600061306e60248361206a565b915061307982613012565b604082019050919050565b6000602082019050818103600083015261309d81613061565b9050919050565b7f4f776e61626c653a2063616c6c6572206973206e6f7420746865206f776e6572600082015250565b60006130da60208361206a565b91506130e5826130a4565b602082019050919050565b60006020820190508181036000830152613109816130cd565b9050919050565b7f4552433732313a20617070726f766520746f2063616c6c657200000000000000600082015250565b600061314660198361206a565b915061315182613110565b602082019050919050565b6000602082019050818103600083015261317581613139565b9050919050565b7f4552433732313a207472616e7366657220746f206e6f6e20455243373231526560008201527f63656976657220696d706c656d656e7465720000000000000000000000000000602082015250565b60006131d860328361206a565b91506131e38261317c565b604082019050919050565b60006020820190508181036000830152613207816131cb565b9050919050565b7f4e487b7100000000000000000000000000000000000000000000000000000000600052601260045260246000fd5b600081519050919050565b600082825260208201905092915050565b60006132648261323d565b61326e8185613248565b935061327e81856020860161207b565b613287816120a5565b840191505092915050565b60006080820190506132a760008301876121a6565b6132b460208301866121a6565b6132c1604083018561228f565b81810360608301526132d38184613259565b905095945050505050565b6000815190506132ed81611fd0565b92915050565b60006020828403121561330957613308611f9a565b5b6000613317848285016132de565b91505092915050565b7f4552433732313a206d696e7420746f20746865207a65726f2061646472657373600082015250565b600061335660208361206a565b915061336182613320565b602082019050919050565b6000602082019050818103600083015261338581613349565b9050919050565b7f4552433732313a20746f6b656e20616c7265616479206d696e74656400000000600082015250565b60006133c2601c8361206a565b91506133cd8261338c565b602082019050919050565b600060208201905081810360008301526133f1816133b5565b905091905056fea26469706673582212208cc0948e0e8bbd8df72ff6dd805607012f7872644cf845c7b55adfda86c0ad5364736f6c63430008110033",
  "linkReferences": {},
  "deployedLinkReferences": {}
}